S00D000053656E736F722E7333376D
S11300006068002029FC000099FB00009DFB0000B3
S1130010A70B0000000000000000FFFF54000000D8
S113002004220A000000000000000000000000009C
S113003000000000000000000000000000000000BC
S1130040000000000000000000000000D7000000D5
S1130050000000006068002029FC000099FB0000FB
S11300609DFB0000A70A08010001000004220AAC5D
S11300705010D70000000000000000000000000045
S1130080000000000000000000000000000000006C
S1130090000000000000000000000000FFFFFFFF60
S11300A0FFFFFFFFFFFFFFFF00E003000000000071
S11300B000000000FFFFFFFFFFFFFFFFFFFFFFFF48
S11300C0FFFFFFFFFFFFFFFFFFFFFFFFFFFFFFFF3C
S11300D0FFFFFFFF00000000000000007D7F002004
S11300E07D7F002060680020C40B0100A6FD000095
S11300F0005F0020A00F00200000040000000000AA
S11301006068002029FC000099FB00009DFB0000B2
S1130110A5FB0000A1FB0000A9FB000025FC0000DA
S113012025FC000025FC000025FC000025FC000047
S1130130ADFB000025FC000025FC000025FC0000B0
S11301406D530000AF5200007976000025FC0000DA
S113015025FC00000B2B000025FC000025FC000002
S113016025FC000025FC000025FC0000D152000005
S113017025FC000025FC000065D8000025FC0000DB
S113018025FC000025FC000025FC000025FC0000E7
S113019025FC000025FC000025FC000025FC0000D7
S11301A025FC000025FC000025FC000025FC0000C7
S11301B025FC000025FC00006BEA000025FC000083
S11301C025FC000025FC000025FC000025FC0000A7
S11301D025FC000025FC000025FC0000DFF800F0F1
S11301E0C10D00002DE9F0410D460026002D044606
S11301F045D0DFF8AC816B4FA2B9FFF7EFFF0020C9
S1130200A8423CD254F8041BF960401C0821396010
S1130210414601E089B3491E3A69D207FAD400295C
S1130220EED12AE0FFF7DAFF002072B65E490A68D1
S113023012F1010F11D0521C0A600EE03A6902F06B
S11302401902102A08BF3A603A691207F6D554F821
S1130250042BFA60401C10223A60A842F4D30868C8
S113026018B1401E086000D162B6414601E021B1D8
S1130270491E3869C007FAD409B96FF0020630463E
S1130280BDE8F0812DE9F047484F9A463B68814626
S113029043F0010300203B6094080025884602E0F7
S11302A0751908EB8608A5422DD23D4801E020B11E
S11302B0401E7969C907FAD410B96FF0020026E02C
S11302C009EB8500B86001217960796911F0060FA6
S11302D009D04A0702D54FF0FF3018E0890702D54C
S11302E06FF0010013E0C0F30A00C0F50060860857
S11302F0601BB04238BF0646524631464046FFF7BF
S113030071FF0100CCD03968490849003960BDE863
S1130310F0872649224A0B6843F001030B6088608A
S1130320012048604869400706D508684008400035
S113033008604FF0FF3070474869800706D50868A9
S11303404008400008606FF00100704702204860D8
S113035001E022B1521E4869C007FAD432B90868D4
S11303604008400008606FF00200704708684008C9
S11303704000086000207047002383E70B480168B1
S113038041F00101016046F21A31C1644FF48071F9
S113039041604169C907FCD40021C1640020704751
S11303A0809698000C000C40647A002008000C40F1
S11303B010B5012109480A4C00F07FF901230422F9
S11303C00821052000F02DFC204600F06DFC20687B
S11303D0BDE810400022802100F0CCBC00D2040013
S11303E0346A0020890001EB401000F1844002606F
S11303F07047890001EB401000F1844000687047A9
S1130400DFF81C07006810F4E06018D0B0F5807FB6
S113041012D0B0F5007F0CD0B0F5407F06D0B0F517
S1130420C06F12D0B0F5E06F0CD011E0DFF8F40625
S11304307047DFF8F4067047DFF8F0067047DFF81E
S1130440F0067047DFF8EC067047DFF8EC067047FB
S11304500020704710B5DFF8E4168A6B02B1012260
S113046041F671338B630B6803F00703012B01D949
S11304701B1F01D1002300E00123DFF8C446A04282
S113048004D3002B0CBF042005200FE0DFF8B44692
S11304902018DFF8B446A04204D2002B0CBF012080
S11304A0032003E0002B14BF022000200B68DB08AC
S11304B040EAC3000860D2B20AB10020886310BDCC
S11304C038B50546002400F0CFF9DFF88036DFF8B0
S11304D080169D4207D0DFF87C369D4204BF886AAF
S11304E0C0F3810002E0886A00F00300032829D8E1
S11304F0DFE800F01602050800F0BDFC21E000F082
S1130500C1FC1EE04868C00502D40868400003D559
S113051000F056FC840815E000F052FC440811E099
S1130520DFF82806854202D1886A102105E0DFF849
S11305302406854206D1886A1421C84002D000F0FE
S11305409EFC0446204632BDDFF80C164A68D207EA
S113055002D40A680242FCD170470E21DFF8FC0580
S113056047E7000070B50D46011101F00F010129A4
S1130570DFF80046DFF8D86508D0042912D0052931
S113058017D0072937D0082963D070BD00F02AFCA2
S1130590FFF760FF306820F4E030691E40EA8130E4
S11305A0306027E0B5FA85F0616800F07AF86060A1
S11305B070BD00F017FCFFF74DFF112000F0C7F8E5
S11305C0B0FBF5F0DFF8B015884206D200221E21F8
S11305D03046FFF707FF002202E000F068FA01222C
S11305E008212046FFF7FEFEB5FA85F0216800F0E9
S11305F058F8206060E2DFF86815884208D0DFF818
S11306006415884210D0DFF86015884218D070BD98
S11306100420FFF799FF00F04BF821F0F001C0F13E
S11306201F0041EA001012E00420FFF78DFF00F0E4
S11306303FF821F47061C0F11F0041EA002006E098
S11306400420FFF781FF00F033F800F024F860661F
S113065070BDDFF81815884204D0DFF814158842FD
S11306600AD070BD4020FFF76FFFB5FA85F0E16E48
S1130670C0B200F010F80CE04020FFF765FFB5FAB7
S113068085F0E16EC0B221F03001C0F11F0041EAF3
S11306900010E06670BD8908C0F11F0040EA8100C7
S11306A07047C0B20909C0F11F0040EA0110704749
S11306B0B5FA85F0616EC0B270472DE9F041064687
S11306C03012002500F00F0001288846DFF8A474DA
S11306D02DD002282DD0032806D006282CD0072898
S11306E02ED00A2830D020E0DFF8900400F02FF854
S11306F0DFF88414884207F13C040AD301221E2146
S1130700DFF84C04FFF76EFE012208213846FFF79C
S113071069FEC6F3043615B12846FFF715FF4246B5
S113072031462046BDE8F0415CE6BDE8F0813C1D61
S1130730EFE707F14004ECE707F154040125E8E78B
S113074007F15C041025E4E707F17404E1E710B550
S1130750024612F47812DFF8F403DFF8F813DFF836
S1130760F0435AD0B2F5003F27D0B2F5802F1ED007
S1130770B2F5402F49D0B2F5602F53D0B2F5801FA7
S11307801FD0B2F5901F22D0B2F5A01F2ED0B2F523
S1130790B01F32D0B2F5C01F25D0B2F5D01F21D082
S11307A0B2F5001F41D0B2F5201F17D053E000F07E
S11307B01BFB00F052F8A1680DE0BDE8104000F00A
S11307C0FFBAFFF77DFEA16EC1F303111BE0FFF733
S11307D077FEA16E090A01F00F0114E0FFF770FE25
S11307E0A16E07E00846BDE8104069E60846FFF739
S11307F067FE216F01F0030105E00846FFF760FE84
S1130800216FC1F30111C84010BDDFF8740300F07B
S11308102BF8072806D008281DD100F0E5FA00F0CF
S11308201CF810BDBDE81040EAE5DFF8580300F0FD
S11308301BF802280BD0032805D008280BD1BDE8EB
S1130840104000F0D1BABDE8104000F014BBBDE880
S1130850104000F017BB002010BD2168C1F38231A5
S1130860491CB0FBF1F070470146012001F00F0173
S11308700129DFF8DC2208D0022917D0032921D06E
S113088006292FD0072935D047E0D06A00F47050EC
S1130890B0F5006F06D0B0F5805F3CD0B0F5005FD6
S11308A037D001E00420704705207047916A01F0B9
S11308B0030101292FD002D303290CD029D3916A33
S11308C0C9030CE0916A01F00C01042923D0082922
S11308D01FD00C2901D106207047916AC9021DD589
S11308E0092070471168072001F08051B1F1805F41
S11308F014D10CE0D16A01F46031B1F5004F06D097
S1130900B1F5803F05D0B1F5003F04D07047082011
S113091070470220704703207047002070472DE97C
S1130920F84F00F00F070324012FA2464FF00009EF
S1130930DFF84052DFF84082DFF84CB2DFF8106293
S113094009D0022F18BF032F42D0062F77D0072FCC
S113095000F083801BE0022906D0032919D0042962
S11309601AD0052932D012E00424CA4601220121FA
S1130970504600F0A7F800F035FAFFF76BFD2C6243
S113098000F055FB00F01CFABDE8F24F62E5BDE84B
S1130990F18F4FF0010AE9E700F064FA02244045C0
S11309A030684FF0020A0BD340F0804040F0600002
S11309B03060DBF80000C006D8D500F073F8D5E746
S11309C020F0600040F020003060CFE70124CDE744
S11309D0012908D0022911D0032913D0062915D0E2
S11309E0092921D0D3E70024022F686A20D167495E
S11309F00840204340EA09406862C8E700F04EF826
S1130A000224F1E700F046F80124EDE70122042175
S1130A105846FFF7E7FC00F0D3F94045E4D300F073
S1130A2046F800F03FF8DFE700244FF00109DBE768
S1130A305749084040EA840040EA0950DCE70729A6
S1130A4002D0082905D0A2E7306820F08050306039
S1130A509DE7306840F08050F9E7022904D003296B
S1130A600AD0082910D092E700F018F84020286234
S1130A70A86AC003FCD58AE700F00CF8602028625D
S1130A80A86A8003FCD582E720202862A86A0004B3
S1130A90FCD57CE701220121012013E00122012180
S1130AA000200FE0012208212846FFF79BBC012209
S1130AB01E213046FFF796BC00F082F9BDE8704075
S1130AC0FFF7C8BC052800D9704738B5DFE800F047
S1130AD01C18100314270120022301242D4DC9B131
S1130AE02860C2B12146FFF739FD0028FAD012E090
S1130AF0042008230324F1E7102020230524EDE734
S1130B00402080230724E9E74FF480704FF40073FA
S1130B100924E3E72B60BDE8314000F088BA31BD19
S1130B2014800C4040420F00C0CF6A00C0D8A70018
S1130B30809FD500406F4001003FAB0104000C4092
S1130B400148E801FFDB0BFF0024F4000200180059
S1130B5000800C4003001A0050800C402C800C4094
S1130B60701610007026120070062800800714000A
S1130B708017160004800C4001366E0150000200FC
S1130B8006000C000723200040800C40FCFFFEFF01
S1130B90F3FFEFFF20800C40890001EB401000F1CF
S1130BA0844002607047012202FA01F12423394A89
S1130BB05843104441617047012202FA01F1242391
S1130BC0344A5843104401617047F8B51D460F2359
S1130BD00C46082C304905D2A6000F6800F01BF81B
S1130BE0086006E0A4F10806B6004F6800F013F8A8
S1130BF0486021462948FFF7CFFF2A462146284866
S1130C00FFF7CAFF27480121A140C1602146069A87
S1130C10BDE8F840C0E7B34027EA0303B0401843F7
S1130C207047F8B50446164630000D461F4607D0F7
S1130C30002F204602D0FFF7BFFF01E0FFF7B3FF0C
S1130C4024210F2213486143082D084409D2AB0024
S1130C5041689A4021EA020206FA03F11143416015
S1130C600AE0A5F108039B0081689A4021EA020288
S1130C7006FA03F11143816056B9002F2946204634
S1130C801CBFBDE8F440FFF797BFBDE8F4408AE716
S1130C90F1BD0000006000400061004008610040B8
S1130CA00C610040106100407FB5044601212A48D0
S1130CB0FFF703FD20682949884230D128480121E3
S1130CC0FFF7FBFC6179207901230A22FFF7A9FFD2
S1130CD0E179A07901230A22FFF7A3FF0920242147
S1130CE0204A012300F020F82E6100F01DF8401E78
S1130CF06E61F7D1217A2068090241F00301816312
S1130D008DF800308DF8013021690291E16801917C
S1130D10217D8DF80C10694600F0C6F97FBD12499B
S1130D208842FBD11148CAE7257994F905604D43FF
S1130D30154403FA06F6704738B5044600F0BAFACB
S1130D400B4D02E0204600F0C9F9012803D12946E1
S1130D504D1E0029F6D132BD4081040000A00040A0
S1130D6000B204000060004000A4004000C204007F
S1130D70E093040010B588B01446ADF80C10CDF81B
S1130D8010D00421ADF80E10FC218DF80010C921FB
S1130D908DF801100221ADF8141001A90691082163
S1130DA0ADF81C1003A9FFF7C7FF08B1002004E049
S1130DB014B19DF804002070012008B010BD00009B
S1130DC080B500F011F83149314B0A684968C2F323
S1130DD08232521CB0FBF2F001F00F01C8401860DF
S1130DE0186802BD2B4870472B482C49026A02F44C
S1130DF07052B2F5006F08D0B2F5805F04D0B2F53E
S1130E00005F04D14868704736E00868704700689E
S1130E10234910F4E0601ED0B0F5807F14D0B0F503
S1130E20007F0FD0B0F5407F0AD0B0F5806F05D0B9
S1130E30B0F5A06F0CBF1B48002070471A487047DC
S1130E401A4870471A4870470868000E1328ACBF48
S1130E501848194870470868000E1328ACBF174893
S1130E60174870470D48006870471648016841F4F8
S1130E7070010160704700BF4FF4004070474FF4A9
S1130E807A707047054840687047000000800C4045
S1130E90C8770020006CDC020C800C40D86A00206B
S1130EA0FC81E00F003FAB01406F4001809FD50003
S1130EB0C0D8A70040B56400C0CF6A00804F1200BC
S1130EC040420F0088ED00E010B55B48416E45F6E6
S1130ED00E0242660023594A1268D40748BF012310
S1130EE0D40648BF43F01003540648BF43F0400300
S1130EF0540748BF43F00403D40548BF43F4807348
S1130F00036002F47053B3F5006F10D0B3F5805F43
S1130F1003D0B3F5005F05D00EE0C3681B06FCD513
S1130F20032308E0C3689B05FCD5042303E0C368DE
S1130F301B07FCD502234360D2075CBF0222026078
S1130F40C90744BF0021416610BD3D48016882685D
S1130F50C068090201F47C5102F0F0021143C0F3AD
S1130F6003100843B0F5807F0CBF012000207047B8
S1130F70F8B506463348314F0068386000F051F840
S1130F800028314909D00A68304B03EA0204304A88
S1130F9014604B6823F04605556030BF1CBF0C60DD
S1130FA04D60002E1CBFBDE8F140FFF78DBF3868CF
S1130FB040055CBFBDE8F140FFF702BFF1BDF8B5E5
S1130FC004461D481D4DC168296045F60E02416E58
S1130FD04266C9074FF42072026044BF0021416693
S1130FE000F01FF80028184909D00A68174B03EAD3
S1130FF00206174A16604B6823F04607576030BF55
S11310001CBF0E604F60002C1CBFBDE8F140FFF711
S11310105BBF286840055CBFBDE8F140FFF7D0BE68
S1131020F1BD0C48016841F0040101608DE70548F9
S1131030024900680860704720800C40487A00200C
S1131040E0FF0FE02C800C4000E100E09CF1FD008B
S113105080E100E010ED00E0890001EB401000F1B8
S113106084400260704770B50446150008461E4669
S113107019D0216821F440712160216841EA0621D8
S1131080216010B9A348FFF762FB0FF29C21895D30
S1131090A0EB85006943B0FBF1F02168890701D515
S11310A000B90120206170BD38B50446002060639A
S11310B00D46994820630121687880F0010220469A
S11310C0FFF7CAFF2B7BAA6869682046FFF7CBFFAE
S11310D02A782046BDE838400021BDE7F0B58F4AA4
S11310E08F49904201D18A6809E08E4A904208BF34
S11310F00C31F8D06FF00300F0BD05230B70836A48
S113110013F4C06F0CD09A0548BF6FF0020203D4E9
S11311105A0502D56FF001024A7009220A7021E0D3
S11311200C78082C00F2C380DFE804F00526404B5D
S1131130606D8B9ABB0013885288D40605D51A0AB1
S113114002F0060242F0F00305E003F0FE0392070A
S113115048BF43F0010301220A70436242600A78E7
S1131160092A4ED10022426391F90100012808BFE7
S11311704A7091F90100F0BD1C0664D45B0640D5A9
S1131180402303635388DC0604D502230B701278D2
S11311904262E4E79B07B0D507230B700B7902EB9F
S11311A0C3021289012A2CD10822D7E71C064AD48B
S11311B05B0626D54023036393789B079DD50323C1
S11311C09CE713885288D40643BF1B0A03F0060326
S11311D043F0F00303F0FE03520748BF43F001035A
S11311E004220A70012242604362B8E71C062AD432
S11311F05B0606D54023036393785B07DED507209F
S113120008700120F0BD0B794D8802EBC3042789D7
S1131210BD420FD300244C805B1C0B7154886507BE
S113122048BF0323CCD4E4072FD4DBB2022BFFF650
S113123066AF2AE06A1C4A806268525D42620620F8
S1131240DEE71C0605D5802202634FF0FF324A70A8
S11312501BE05B0644BF402303633FF54EAFD0E77A
S11312609B06CED50B7902EBC3042289C3694D8852
S1131270954203D26E1C4E80646863554B8893423A
S113128007D3012A04BF0822426008220A700222FE
S113129064E70424022A4460A7D3521E9342A4D1D3
S11312A082E7DA05ADD54FF48072026335E76FF05B
S11312B0040231E710B5194B194A984203D0194B6F
S11312C098420ED10C328368DB0744BF202343606D
S11312D04B889C0701D50C891CB15B0704D50B8A8C
S11312E013B96FF0030010BD002313709160012344
S11312F05370C0210023538013714160816A8906B1
S113130048BFC169044901634FF4FC614163BDE80E
S11313101040E3E640810400CFFF010000A000403C
S11313204C7A002000A400400809110872B6DFF8C6
S11313309405016811F1010F1CBF491C016000688C
S11313407047DFF88015086818B1401E086000D1A6
S113135062B670478278007800215201002814BFD9
S1131360DFF86405DFF86405805800F44022B2F524
S1131370402F12BFB2F5002F400D00F001010846C6
S113138070478178002908BF00F001B82FE010B53C
S11313900278DFF83C15BAB102690AB90122427039
S11313A0DFF8242583685361848903690868D0F8C9
S11313B0F400A34288BF234643F40021116111685D
S11313C021F0705108430EE0DFF800258368536173
S11313D009688089D1F8F41040F400201061106885
S11313E020F07050084340F00440106010BD30B548
S11313F00269017809B30AB9012304E081898B18D1
S11314005B1EB3FBF1F381784C01DFF8BC140C4490
S113141042EAC342256905F000452A4322618278E5
S1131420836801EB42125361807840010A5822F02C
S1131430705242F004420A5030BD81890AB9012336
S113144004E08A18521EB2FBF1F359438278540126
S1131450DFF87824144441EAC343256905F0604564
S11314602B43236181618178836802EB41114B61D5
S113147080784001115821F0705141F0044111501D
S113148030BD10B5DFF84824126800F00F03134490
S11314900021D43304064CBF1B781B7C2BB12820BD
S11314A05843104400F1340104E00F23184208BFEC
S11314B002F13401084610BD10B500F0CCF9040067
S11314C01CBFA078002800D1A8E1FFF72FFF94F8F3
S11314D02000A0B320780028204602D000F061FB51
S11314E001E000F097FB002084F82000636A1800F4
S11314F025D000206062DFF8D803006820308178AE
S1131500052904BF0078042814D1A078217840016B
S113151029B1DFF8B42300211150E08904E0DFF899
S1131520AC231150E0890004DFF8A8130A6822EA0A
S113153000000860226961696FF00500984770E156
S113154080B500F088F910B190F8200000B10120B6
S113155002BDDFF87C03006890F82000704708287B
S1131560DFF87413A8BF072051F8200070472DE955
S1131570F84F04461120FFF777F9042803D004211B
S11315801120FFF7CCF9002201210020FFF79AFA7D
S1131590DFF83C5300F04AFD2868F82100F0A6FD6E
S11315A02868011D01600722216841626168816227
S11315B0A168C162217B8177286800F11D0100F1D7
S11315C03403CA7000220A714A71626902630120FD
S11315D000220A701A709A609A70D881DA701A71AF
S11315E05A712068C0799881202808BF012103D04E
S11315F0402840F0AB8000212A68C2F8F410002192
S11316001961596183F8201059628008D861002259
S11316102B6821699B6A09785E8801FB00F9401CEC
S113162001FB00FA9E190020002100964FF0010EE4
S11316300FE0042E04BFDE78002E08D12E689F78B8
S113164096F81F80B84572D108F10107F7771E7824
S11316503344009EB3426BD21E78002E76D05E785F
S1131660052EE6D1401CD5F800C028264643664422
S113167006F1340C9E78F6098CF8006000270026E9
S1131680CCF808609E788CF8036006F00F080126F9
S113169006FA08F6ACF80E608CF80280DE7806F0E4
S11316A003068CF804609E88CCF81070CCF8147093
S11316B08CF82070CCF82470ACF80C60276917F80B
S11316C000B0BBF1000F41D09CF800B0BBF1000F9B
S11316D016D0F61C771006EB9776B6108CF805E05A
S11316E0491C27693F5C7E43CCF81C600EF1010E57
S11316F02E68464486F8D400DCF81C60B14412E03D
S1131700F61C4FEA660B06EB9B76B6103F5C761C24
S11317107E43CCF81C60521C2E68464486F8E400D4
S1131720DCF81C60B2449CF80260072E8FDB0DE0ED
S11317302D68AB6AEC7F1B79A34208BF03280AF12A
S1131740190603D1072938BF072A02D36FF0030013
S11317502CE0FFF7EBFD6148614C016841F00C019E
S1131760016008215F48FFF7DAF82068400840006C
S113177020604946304600F042F9C8B920614FF470
S1131780C05020615849206840F0010020602020AA
S113179008605649086056480068C0074CBF0220DC
S11317A0002000F042F8FFF7CCFD0020BDE8F28FE6
S11317B0FFF7C7FDCAE7F8B500F04AF807000BD0F9
S11317C0B5F5002FBEBFB88995FBF0F0B0F5806F7A
S11317D002DA14F0030000D092E0FFF7A7FD3846C8
S11317E0FFF7B8FD00B18EE097F8200000B18FE05C
S11317F0B87800281FBF3648006890F820000528F4
S113180000D08AE000F076F810B93870022089E040
S113181038780028FAD0FFF794FDDDE76FF0030075
S113182010BDFFF78EFD002010BD2949096811F88D
S1131830202F062808BF4A708A70087009694B680F
S1131840190018BF824202D001461046184770475B
S11318500C4615461E46C0B213E6F8B5FFF7F8FF6E
S113186007000BD0B5F5002FBEBFB88995FBF0F08B
S1131870B0F5806F02DA14F0030000D040E0FFF707
S113188055FD3846FFF766FD00B13CE097F82000AF
S113189000B13DE0B87800281FBF0D48006890F8FB
S11318A02000052800D038E000F024F818B9012001
S11318B03870012036E038780028FAD1FFF741FD6E
S11318C0DCE70000647A002000091040000B10409F
S11318D04C6A00201C081040506A002040800C40D4
S11318E0080010400723200080E200E000E100E04F
S11318F004400C4000207861BC603D61B8787047BA
S11319006FF00300F2BDFFF71CFD6FF00400F2BDA1
S1131910FFF717FD6FF00100F2BDFFF712FD6FF046
S11319200800F2BD87F820007E623846FFF729FDE3
S1131930FFF707FD0020F2BD012100F01F029140D6
S1131940DFF85C25400942F820107047DFF8541591
S1131950800140F02000086008688006FCD47047CD
S1131960DFF84415DFF844250968807802EB40105D
S11319708068084070478078DFF8341501EB401028
S1131980DFF830158068096808407047817802786C
S1131990490142B1DFF81405425822F0705242F076
S11319A0904242507047DFF80825535823F0705393
S11319B043F00043535080784001115821F0705196
S11319C041F090411150704710B5DFF8EC04DFF896
S11319D0D4440168490849000160016821F00C0100
S11319E00160206840F0010020602068C007FCD43A
S11319F0012000F0EBFA20680028FCD510BD2DE989
S1131A00F047804689460121DFF8B404DFF8B46466
S1131A10DFF8B474DFF8B444FEF74FFE0023042269
S1131A2005210520FFF7FDF80320B061FFF7CCFF87
S1131A30786820F0204040F080407860206818B139
S1131A40401E206000D162B6322000F0A8FA72B6BF
S1131A502068DFF87C2410F1010F1CBF401C2060BB
S1131A60DFF87044206840F003002060B8F1110FE3
S1131A70206840F0040020602CBF1FFA88F1102178
S1131A80206820F4C05020604FF0010C386820F02A
S1131A901E0040F022003860606820F4F06040F4DA
S1131AA000406060C1F30900F8611268136D112BE6
S1131AB038BF10239DB240EA054038624FF0010E52
S1131AC05FFA8EF000F00F05551995F8D4502DB13A
S1131AD028206843104400F1340504E00F2528420F
S1131AE016D102F134059DB16879604510D15918B9
S1131AF0EB69112B89B238BF10239DB2C1F30A0AD6
S1131B004AEA0545DFF8D0A30AEB800040F8045CFC
S1131B100EF1010EBEF1070FD2DB0CF1010CBCF18A
S1131B20070FCBDB40F2012009EB0802824234BFED
S1131B3081426FF0030032D21020FFF707FF10201C
S1131B40B860B868C006FCD4002020616061E06120
S1131B5060634FF0FF31D54A02EB4012002313605B
S1131B60401C136107289160F5DB9E46D04800EBCA
S1131B704E100EF1010E03600361BEF1070F816088
S1131B80F4DB306840F40030306003203061706171
S1131B907068C0074CBF01200220F0600020BDE83F
S1131BA0F08770B50446C14DA078BF4E05EB4010D8
S1131BB0816841F042018160306840F04200306049
S1131BC0A0784001295821F0705141F0006129505A
S1131BD02046FFF7C5FE4006FAD54021A07805EB64
S1131BE040108160306820F0400030602046FFF7EC
S1131BF0CDFE2046FFF7B4FE8007FAD500F040F88A
S1131C00306820F0020030606079FFF79FFEBDE885
S1131C107040B1E1F8B50446A54DA078A74E05EB98
S1131C20401043F69827816841F00201816000F07A
S1131C302DF800F02EF9316821F4F06141F40071BF
S1131C403160394600F019F9306940F00200306122
S1131C502046FFF79BFE00E07F1E2046FFF78BFE29
S1131C60800701D4002FF7D100F00AF8306920F082
S1131C700200306100F00AF80520BDE8F2405BE69E
S1131C80A07805EB4010022181607047306820F491
S1131C90F06040F48060306070472DE9F84F4FF0F9
S1131CA00008C14601258A48D0F800B028206843BE
S1131CB0584400F1340696F82000A8B1B078F189B0
S1131CC0327842B141EA0808784901EB4010816852
S1131CD041F0420107E041EA0909754901EB40106E
S1131CE0816841F0020181606D1C042DDBDB734FC0
S1131CF01FFA88F0A8B1F8686C4A40F04200F86016
S1131D001FFA88F4012500F0A8F807D0B078400144
S1131D10115821F0705141F0006111506D1C042DD7
S1131D20F1DB1FFA89F088B100F0DAF800F0B1F8BD
S1131D30396821F4F06141F40071396043F6982167
S1131D4000F09BF8386940F0020038611FFA88F00F
S1131D5008B31FFA88F443F6982A012500F07DF8A9
S1131D600BD03046FFF7FCFD400606D500F070F8B6
S1131D7040218160F0898443A4B26D1C042DEDDB05
S1131D80AAF1010A002C18BFBAF1000FE5D1F868D6
S1131D9020F04000F860012500F067F896F8200074
S1131DA010B13046FFF7F2FD6D1C042DF4DB1FFA71
S1131DB088FA1FFA89FB43F69824012500F055F8A8
S1131DC0307898B1F1891AEA010F23D03046FFF731
S1131DD0C7FD800708D500F03BF802218160F08937
S1131DE02AEA00001FFA80FA307898B9F1891BEAD0
S1131DF0010F0FD03046FFF7BEFD80070AD5B1783A
S1131E002B4800EB411002218160F0892BEA00008D
S1131E101FFA80FB6D1C042DD0DB641E5BEA0A00F4
S1131E2018BF002CC9D11FFA88F030B1F86820F02F
S1131E300200F8601020FFF789FD1FFA89F028B12D
S1131E40386920F00200386100F04AF8BDE8F18FEB
S1131E50B178164800EB4110704728206843584475
S1131E6000F13406F1890C427047194800682821B2
S1131E706943084400F13406704700E0491E0268D3
S1131E80120601D40029F9D1416821F08001416092
S1131E9070471248416841F080014160704700007A
S1131EA080E200E0100010401008104000091040CB
S1131EB0000B104014081040000E1040040810409D
S1131EC000D2040000400C4008001040647A002056
S1131ED04C6A002000081040040110401400104017
S1131EE0386820F4F06040F4806038607047000087
S1131EF0F8B5044614F10B0F18BFFFF7CEFE012509
S1131F00104E11480168282068430844343090F882
S1131F10202062B3002280F82020436A1A0026D0D1
S1131F200022426220318A78052A04BF09780429F4
S1131F3019D181780278490152B1044F00227A50B4
S1131F40C1890CE01C0810404C6A002000091040B4
S1131F50004F01E0000B10407A50C1890904326837
S1131F6022EA0101316002694169204698476D1CEB
S1131F70042DC6DBBDE8F2400520DDE4010081B09C
S1131F800BD04C490A6892B20B68ADF80030BDF82A
S1131F9000309B1A9BB28342F6D301B0704738B528
S1131FA045490968A0FB014508E044F62060FFF7B5
S1131FB0E5FF42484FF0FF3124184D4100218D4286
S1131FC044F62160F1D88442EFD22BE038B53A4987
S1131FD04A68A0FB0245002200239D4208BF9442A8
S1131FE019D10A22B0FBF2F08A68A0FB02459D4297
S1131FF008BF9C420FD1C9680A22B0FBF2F0A0FBD3
S1132000014508E04EF66020FFF7B8FF2C484FF07A
S1132010FF3124184D4100218D424EF66120F1D844
S11320208442EFD2A0B2BDE83240A7E710B588B031
S113203003A80FF2A801234C102200F06BF86846A5
S11320400021002200230EC01F48FEF780FB1A491E
S113205000F5FA724FF47A73B2FBF3F20A601B4B89
S11320601B4A1218B2FBF3F24A6000F543425032A5
S1132070184BB2FBF3F28A6000F59850883042F2B4
S11320801072B0FBF2F0C860012102208DF8060046
S11320901148FEF712FB4FF6FF70E0616A4600211B
S11320A0204600F0AAF803A9204600F05EF808B024
S11320B010BD00002404014010710020E0B1FFFFB6
S11320C0A015FFFF000401404081040040420F00BE
S11320D020A10700A08601000062040001000000A6
S11320E0000000000000000000000000002200F0DA
S11320F0B5B8000062B38B0708D0521E11F8013B3B
S113210000F8013B00F024808B07F6D1830740F0F0
S1132110208000BF103A07D330B4B1E83810103A29
S1132120A0E83810F9D230BC530724BFB1E8081036
S1132130A0E8081044BF51F8043B40F8043BD20720
S113214024BF31F8022B20F8022B44BF0B78037014
S11321507047083A07D3B1E80810083A40F8043B3E
S113216040F804CBF7D25307E4E72DE9F0430A78AB
S1132170130004BF02234360002343624B7803B17E
S113218040234C7A04B180248D7A05B12025CE7A7F
S113219006B1102691F8049091F805C091F80CE06E
S11321A0CF7891F80280B9F1000F18BF4FF40059AD
S11321B0BCF1000F18BF4FF0805CBEF1000F18BFD8
S11321C04FF0080E3F0447EA08688F7948EA8728E9
S11321D0CF79097A48EA0727394319432143294328
S11321E0314349EA01014CEA01014EEA010101606F
S11321F00AB101214160BDE8F083F0B5D3790BB198
S11322004FF40013147A0CB14FF48014557A05B1CD
S11322101025967A06B1042692F801C017784FEA81
S11322200C6C4CEA876792F802C047EA0C4792F8B4
S113223003C047EA0C3792F804C047EA8C2792F8A7
S113224005C0927947EA0C273A431A4322432A43AA
S113225000EB011032430263F0BD000000B500BF83
S1132260130096469446103928BFA0E80C50FAD8BB
S11322705FEA417C28BF0CC048BF40F8042BC90763
S113228028BF20F8022B48BF00F8012B00BD000036
S113229070B511B1002180F8201081780478DFF83E
S11322A04C354A01C18994B1DFF84445A55825F05D
S11322B070552E041DD4DFF83C65354086893543BE
S11322C00679407945EA864545EA80500FE0DFF813
S11322D02845A558090425F070552E0409D4DFF8C3
S11322E01C65354086890079354345EA80401843AA
S11322F001E045F08050A050DFF804050268114366
S1132300016070BDDFF8FC140A6822F4FE6242EA40
S113231000100860704770B504460125DFF8E864D2
S1132320306828226A43104421463430FFF7B0FF56
S11323306D1C042DF4DB70BD10B5DFF8CC241268DD
S113234000F00F0313440021D43304064CBF1B7860
S11323501B7C2BB128205843104400F1340104E0C5
S11323600F23184208BF02F13401084610BD0000D3
S113237070B50546286B81682E68080004D0304685
S1132380884710F1030F26D13278C2F341124FF07F
S1132390FF31002A08461ED17278DFF870440B2AF8
S11323A019D8DFE802F0060A930E931233933758D4
S11323B05C7B2846BDE8704004E12846BDE87040D7
S11323C085E02846BDE87040CDE12C68A288002A4B
S11323D004BFE288002A79D16288802A76DA2378D9
S11323E01F26334272D195F82000032802D13AB156
S11323F0042003E004284FD112B90320FFF715FA93
S11324006088C0B2FFF77EFF002145E02846BDE8A2
S11324107040A3E02A689388002B01BFD388012B66
S11324205388002B52D11378DA094FD01F2213425C
S11324304CD195F82000042805D1002020700023F9
S11324400122214625E0052826D10023012205F199
S11324501C0100201DE02846BDE8704024E12A68E4
S1132460EE7F9388B34231D2D388012B04BF5388C3
S1132470002B2BD11378DA0928D003F01F02012A8C
S113248024D195F82000052806D1002020700023CF
S11324902146FFF7E2F90146084670BD2968EB7F43
S11324A08A889A4212D2CA88002A04BF4A88002A1B
S11324B00CD195F82020052A02BF097801F01F01EC
S11324C0012903D10020FFF726FF002070BD70B55D
S11324D000F0A6F9E8BB307810F01F0002D0022803
S11324E013D036E0B088002804BF7088012830D1AA
S11324F095F82000042818BF05282AD1A86AC079B5
S1132500800626D50020687722E000F024F800B386
S113251081780A001DD07288002A04BF95F8202013
S1132520052A16D100784901002814BFB048B248E2
S1132530425822F0705202F44023B3F5402F18BFE2
S1132540B3F5002F05D122F4001242F0805242501C
S11325500024204670BDB088C0B2EDE670B50022FC
S113256000241F2601464FF0FF300B681D783542CA
S113257027D1ED0925D05D8805F0FF062D0A012D30
S113258004D011D3032D08D003D30DE0CEB94C6A87
S113259009E0B6B98C6A628806E08A7F964210DA4E
S11325A0C96A51F82640227811000AD02146D888F9
S11325B0BDE87040824228BF024600230020FFF796
S11325C04CB970BD70B506464FF0FF353168488888
S11325D0002804BFC888022864D10A78D00961D0D1
S11325E012F01F00894C03D0022831D01FD359E0C8
S11325F08888002856D196F82000042818BF05289A
S113260050D100202080707F08B102202080306BE0
S1132610C068010003D0804700283CD003E0B06AC2
S1132620C079400637D5208840F001000EE096F8C6
S11326302000042803D18888002833D105E0052828
S113264030D18888F17F88422CD20020208022E07B
S11326508888FFF781FF28B396F82010042902D157
S11326608178F9B901E005291CD181780078490104
S1132670002814BF5E486048405800F44021B1F57A
S1132680402F18BFB1F5002F04D1400D00F0010018
S11326902080002535B90023022221460020FFF7BF
S11326A0DCF80546284670BD70B503689A88002A90
S11326B004BFDA88002A4FF0FF3152D15C88220A25
S11326C002BF1A781F252A424BD190F82020042AF1
S11326D011D1826A25001CBF5679B44241D10477D6
S11326E05888517988423BD10120FFF714FE052018
S11326F0FFF79BF834E0052A33D122001EBF856A18
S11327006D79AC422DD10477588830BB0420FFF793
S11327108CF801203A493C4A1268282343431A445E
S1132720343292F8203083B9937814785B0124B161
S11327302F4D0024EC50D28903E02F4DEC50D28968
S113274012040B6823EA02020A60401C0428E2DB3C
S11327506FF00800FFF7CCFB02E00020FFF7DBFD81
S11327600021084670BD70B500F05AF8D8BB307827
S113277010F01F0002D0022811D034E0B0880028E5
S113278001BF7088012895F8200005282BD1A86A7C
S1132790C079800627D501206877002423E0FFF75D
S11327A0DAFE00B381780A001DD07288002A04BFC3
S11327B095F82020052A16D10278490142B10C4A25
S11327C000F026F80CD0002B06D543F0804303E03C
S11327D0094A00F01DF803D043F4001353500024B9
S11327E0002180F82010204670BD000000800018F1
S11327F00009104000F813FC000B104000F8D3FF50
S11328001C081040000810404C6A002098700020FA
S1132810535823F0705303F44025B5F5802F7047C7
S113282005464FF0FF342E68F08870478849021D32
S11328304A610A68D0F8F40022F07052104340F064
S113284000400860704710B5827800784FF0FF317F
S1132850520140B17F4800F010F80CD0002B06D58F
S113286043F0804303E07A4800F007F803D043F4D0
S1132870001181500021084610BD835823F0705385
S113288003F44024B4F5802F7047734909688289A2
S1132890D1F8F41003783BB103696E48934288BFC2
S11328A0134643F4002202E0694842F40022026124
S11328B0026822F07052114341F0044101607047F4
S11328C02DE9F041654DAF68804608F1540608F1E2
S11328D034043078042827D8DFE800F00355387929
S11328E07900002020616070A86028704046FFF7DE
S11328F03FFD10F1010F08D100F079F8002000F03D
S113290077F84046BDE8F04190E73078022812BFDE
S113291001287068A8603078022864D0206968B102
S1132920D8F80010C98888425DD2A189B0FBF1F2C1
S113293001FB1200002856D1012037E000F055F8C1
S113294000206860607800284AD115E02069E0B969
S113295077B161690022B8470021A96040B100F055
S113296046F8002000F044F800F03FF800202CE086
S113297000F03BF800203070002300220021FEF715
S11329806CFF032021E0206918B12046BDE8F04126
S11329907BE7607801280BD1606968600023002020
S11329A0307000220021FEF758FF022060701AE008
S11329B008B960696860002030700023002200219B
S11329C0FEF7F9FE01202870042030700BE028780F
S11329D008B100F00AF81FB1696800220020B84766
S11329E0002030702070BDE8F08140461EE70120D1
S11329F02070204627E700210206174A126800F0DB
S1132A000F031A444EBF92F8D420D432127C2AB158
S1132A101148006828215143084404E00F22104261
S1132A2003D10D48006800F1340191F82000012819
S1132A3018BF02280AD1002081F820004B6A180030
S1132A4004D000200A6948624969184770470000A9
S1132A50000B1040000910404C6A00209C700020BC
S1132A60DFF80416086818B1401E086000D162B689
S1132A707047DFF8F81500224A604FF0FF320A6011
S1132A80006BDFF8EC25006908B1DFF8E8254A603F
S1132A907047DFF8E4150A6822F4F06242F48072A9
S1132AA00A60DFF8D8150A680DE0002180F83410B8
S1132AB04FF0C042DFF8C4150A61021D02604A618A
S1132AC00A68D0F8F40022F07052104340F0044039
S1132AD00860704710B5DFF8A825126800F00F03EE
S1132AE013440021D43304064CBF1B781B7C2BB148
S1132AF028205843104400F1340104E00F23184205
S1132B0008BF02F13401084610BD2DE9F84372B63E
S1132B10DFF85405DFF86C65016811F1010F1CBF83
S1132B20491C0160307870B1DFF85C05C168490761
S1132B3004D496F8641001F014010160202141606E
S1132B40C1680904FCD54FF0FF38DFF84055DFF8C1
S1132B504045A86838B32868800324D5A868C0070E
S1132B600FD5012028616868C0070AD500F0FCF978
S1132B7020B10020A0604FF4C050A0600220FEF7F6
S1132B8054FEA86880070ED5022028616868C00733
S1132B9009D4307810B9A060C4F8048000F079F941
S1132BA00020FEF742FE6068A16811EA000700F009
S1132BB0B180380215D530784FF4000900F0B1F82F
S1132BC008B1C4F804906868C00758BF00F061F900
S1132BD06868C0074CBF03200020FEF726FE27F4D8
S1132BE00007002FDFF8985413D530784FF00049D0
S1132BF000F097F830B1C4F804902868FFF755FF47
S1132C0000F08BF8286890F82100FEF70EFE27F0FC
S1132C10004738051DD54FF4006060606FF009006F
S1132C20FFF766F9FEF795FC10B90220FEF7FDFDEB
S1132C30FEF78FFC022818BF032803D0042818BF0E
S1132C40052804D100F025F90620FEF7EEFD27F44F
S1132C5000673807DFF83C640CD5082060602868FA
S1132C60006B0169080003D0B0688002800C8847BB
S1132C7027F00807B8040BD500F076F900F04DF8FA
S1132C802868002180F8541027F40057FFF7F1FE5C
S1132C90F80435D57068DFF800140840706020200F
S1132CA0206020688006FCD40020DFF8F01300F0D8
S1132CB03CF8FADB0020DFF8C41300F036F8FADB46
S1132CC04FF00110F061092070610120306130681B
S1132CD020F4FE6030602868FFF7E7FE2868FFF7FD
S1132CE0C8FE2868006B0068010018BF80470320F5
S1132CF0FEF79BFD6FF00A00FFF7FAF827F4805700
S1132D00780303D500F018F827F48027380348BF68
S1132D1000F054F8BDE8F143A2E62868D0F8F400C6
S1132D20B7E608B9C4F804901EE101EB4011401C59
S1132D300728C1F8088070472DE9F843D84CDFF81C
S1132D404083A068E168DFF8549301EA0005ADB25E
S1132D50002601273D422BD046F08000C0B2FFF789
S1132D60B9FE2168827809EB421292681140C907C2
S1132D701ED509EB461101228A60026976B983895E
S1132D804169934239BFD21A59185118002241613E
S1132D900261D8F80000FFF793FD09E00969C1F367
S1132DA01201511A4161511A0161C078FFF723FEE3
S1132DB0761C7F00072ECDDBBDE8F1832DE9F84FAB
S1132DC0B84CB94D6068A168DFF8B492DFF8ACA2E2
S1132DD008404FEA10480026012718EA070F52D08E
S1132DE0F0B2FFF777FE81780AEB41118968226817
S1132DF002EA010B5FEACB7123D50AEB46120121EB
S1132E009160837801691A000ED1838942698B42EB
S1132E1039BFC91A9A188A18002142610161D9F888
S1132E200000FFF74DFD0CE082690AEB43131B69B8
S1132E30C3F31203D21A891A42610161C078FFF701
S1132E40DAFD5FEA0B701ED5D9F80000296849063F
S1132E5004D540212960E968083909E0A968C1F36B
S1132E604171032908BF0221494200EBC101143119
S1132E700160A96841F0C041A960011DE960082111
S1132E802960FFF71DFD761C7F00072EA5DBBDE83A
S1132E90F18FF0B57B480178002963D101210170DD
S1132EA082498A6942600A6882608A68C260CA6824
S1132EB002614A6A42618A6A8261764A1368C3611E
S1132EC053680362D3694362136983625369C362BB
S1132ED0774B1C6804630024694D2D6828266643DB
S1132EE0354405F15C0600EB8405B7783678002E8E
S1132EF014BF6A4E614E06EB4716641C37686F6355
S1132F00032C37692F647669EE64E5DB0024694D90
S1132F1055F8245000EB8406641C032CB565F6DBDD
S1132F20146824F07C4444F080541460146844F021
S1132F3008041460604A8A61196841F00401196048
S1132F40196841F008011960196841F0010119601C
S1132F505A498A684266402008608868C003FCD5E4
S1132F600120F0BD0020F0BD2DE9F843454C207848
S1132F70002876D00020207004211120FDF7CFFC1A
S1132F8094F86400C00702D43F490220086048480E
S1132F90464A0168484E3F4B4908490001600168B0
S1132FA021F00C010160216A5569354203D141F0D9
S1132FB001055D60596025693E4FD560E5691D6076
S1132FC0002504EB8506B66D47F825606D1C032DBE
S1132FD0F7DB00252A4E366828276F433E4406F166
S1132FE05C0704EB8506D6F834E097F802C02EF0AF
S1132FF070585FEACE394CBF48F0005848F080580A
S11330005FEA8E3E3F784CBF48F0006E48F0806E19
S1133010002F14BF214F194F07EB4C176D1CC7F835
S113302000E0032DD6F840C0C7F810C0F66C7E61EE
S1133030D0DB256B0560E06A5861A06A1861606A9C
S1133040D8615960A069906260695062E0689060DC
S1133050A068106060689061586840F4006058602F
S11330600120BDE8F2830000647A002014001040BF
S113307000380C8008380C8004081040000B104005
S11330804C6A0020A870002020800C4000400C40B6
S113309010001040000810407EF8FFFF00091040A7
S11330A01008104014081040080B10400000104095
S11330B0000E1040040110400000808024800C4069
S11330C06149086818B1401E086000D162B67047B3
S11330D0F8B5012206235D495D4CE65C551C3009B8
S11330E00A28D2B2B4BF3027372701EB420238187E
S11330F050806A1C06F00F000A28EDB2B4BF3020DD
S1133100372006F00F0601EB450580195B1E688029
S1133110E3D5E07900F00F030A2BB4BF3023372343
S113312000F00F041B194B8000090A28D2B2B4BF67
S11331303023372301EB420118184880BDE8F240E0
S11331400FF21810FEF713BA00F09DB800F0D6B8CD
S1133150404800214162016270473E48016A406A6A
S1133160081A401E8041C00F70473A48016A406AFD
S1133170491C01F0070181420CBF01200020704767
S113318038B504460D46FFF7E8FF70B93148324AB6
S1133190416A52F82120226050F821202A60491CFB
S11331A001F007014162012032BD002032BD2DE94A
S11331B0F84380460D46274EDFF89C9015E02C46D8
S11331C0412CA8BF4024FFF7D0FF90B9376A59F8C3
S11331D0270022464146FEF78DFF46F82740781C1B
S11331E000F007003062A0442D1B012DE7DA012016
S11331F000E00020BDE8F28338B50D00044601D19B
S1133200012032BD72B61048016811F1010F1CBFD4
S1133210491C0160FEF79DF9052803D0FFF750FF14
S1133220002032BD29462046FFF7C1FF0446812015
S1133230FEF786F918B90022002100F0A0F8FFF784
S11332403FFF204632BD0000647A0020906A0020CF
S1133250747B002020730020706A0020A8FD000009
S1133260BCFD000088FE00000400000098FE000081
S1133270FCFE00000000000080B5FFF769FFBDE818
S1133280014000F0ABB802466FF00200137803F07F
S11332907F01212900D0704710B554784649202C6D
S11332A013D02AD3222C21D027D25488002C01BF3A
S11332B09488002CD288072A1FD1DA091DD0002354
S11332C007220020FEF7C9FA16E05488002C01BF3B
S11332D09488002CD288072A0FD1DA090DD10FF275
S11332E0F10307220020FEF766FA05E09188002921
S11332F004BFD188002900D1002010BD80B5052964
S113330012D1FFF72AFF18B90022002100F037F884
S11333102A480FF2310300210160011DBDE800506D
S113332040220120FEF747BA052818BF062907D115
S11333308120FEF7C1F8BDE802400120FEF7BCB8C9
S113334001BD000070B50C46B8B91C4D1C4E286870
S113335056F82000FFF750FF286856F82000214651
S113336000F047F82868174B80F0010028604022DD
S113337056F820100120FEF71EFA002070BD1CB57F
S1133380C0B972B6104C206810F1010F1CBF401C6C
S11333902060694601A8FFF7F3FE28B1009A01995D
S11333A00A4B8120FEF759FA206818B1401E2060AC
S11333B000D162B6002016BDB46A0020E874002073
S11333C0BC6A002045330000647A00207F3300008B
S11333D000280CBF07294FF0FF30704780B5C82183
S11333E06048FEF783FE604800210160416081600F
S11333F001BDF0B55C4A9668536814688E199660EE
S11334001C190025574E12E0475D6D1C04F1010C98
S1133410BCF1C80F02DB0023136000243755641C81
S1133420491E5B1C0A2F12BF0D2F146000230129B3
S1133430EADA5360F0BD10B504460FF23C110120E6
S113344000F011F9A179A068FFF7D6FE0028BDE8C5
S1133450104014BF0FF230110FF234114EE010B5CA
S113346082B06946002000F064FB04460FF2281184
S1133470012000F0F8F89DF80020012321460120E6
S113348000F001F935A1012000F0EDF89DF80010DD
S11334902046FFF7B1FE002814BF0FF2EC010FF233
S11334A0F001012000F0E5F813BD38B5002000F06C
S11334B03EFB0446012000F03AFB002C054648BFC1
S11334C0002402D4C82CA8BFC724012DB8BF0125ED
S11334D02819C828A8BFC4F1C7052B4622460FF2F5
S11334E0C401012000F0BFF81E4801190123AAB24B
S11334F0012000F0C8F8BDE8344019A1012000F013
S1133500B8B870B5FEF725F8FEF729F802460FF2B1
S1133510AC01154C154E00F02BF822880FF2B001C7
S113352000F026F8A2880FF2BC0100F021F82289ED
S11335300FF2C40100F01CF82168656809480144D1
S11335402A463046FEF7D6FD32460020705501204B
S1133550BDE870400FF2B40100F08BB87D3A200052
S11335607D00000048730020107400201C740020AB
S1133570012000F07EB800004F75747075742074DB
S11335806F205553423A20005472756500000000C4
S113359046616C73650000007573623A204461747F
S11335A061207B007573623A207278446174615BB8
S11335B025645D2C2564207B200000002020202031
S11335C020205553422073746174653A202570009D
S11335D02075736252784C696E6553746172743AE3
S11335E02025640020202075736252784C696E6532
S11335F04C656E3A202564002020202020757362DB
S11336005278436F756E743A202564002020202080
S113361020202020757362446174613A2025730070
S11336202D4908804FF6FF71884205D0010A05D163
S113363028490978084002D00120704700207047CB
S113364070B50C4615461E46FFF7EAFF50B13246E8
S11336502946032000F0EBFB24B1BDE870400320B1
S113366000F0C7BB70BD0CB480B50A4602AB0021A4
S113367004E00CB480B50A4602AB0121FFF7E0FF79
S113368001BC5DF80CFB2DE9F041002B04460D460E
S1133690904614BF0DA70EA7FFF7C2FFA0B10026E6
S11336A010E0AA5D39462046FFF7DDFFF01006EB77
S11336B010700011A6EB0010062804BF204600F08D
S11336C00DF8761C4645ECDBBDE8F081257820003A
S11336D025780000F76C0020C279002080B5FFF740
S11336E09FFF20B1BDE80240032000F09BBB01BD59
S11336F080B50021002000F039F838B1BDE8084059
S11337000FF210628BA1032000F074BB01BDDFF83F
S1133710E80500210170002200F165014A730A7076
S11337200A738A73FF22CA7300220A74826770477D
S11337306128A8BF572107DA4128A8BF372103DA37
S11337403A28B4BF30210021401AC0B27047DFF8D4
S1133750A8150844653041780078ABE1DFF8981586
S1133760084490F865000844401C70472DE9F84F60
S1133770DFF8847580468946002607F1710402E06B
S1133780DFF878150870B8F1000F09D169460320F5
S113379000F023FB80B1262818BF012049D102E0A4
S11337A05FFA89F010B93046BDE8F28F18F8010BC2
S11337B08DF80000A9F10109DFF840054078C00741
S11337C004D59DF80010032000F00EFBDFF82C1543
S11337D009789DF800000D2908BF0A28D0D0DFF829
S11337E01C250D28107005D101260025222809D199
S11337F0012108E00A2818BF3B28F5D0002620281C
S1133800F3D1012500213A78042ABCD8DFE802F07C
S113381004171F234A00B6E716B100F08DF8B2E78B
S1133820002DB0D131B1022038706578642D4FD1AC
S1133830062034E07B2814BF01200320F4E755EA76
S11338400600F2D020780B2836D1032027E0002987
S1133850F8D11EBBE9E794F803A0BAF1FF0F14BF37
S11338604FF0010B4FF0000B7D2803D1BBF1000F8B
S113387014D1E7E79DF80000FFF75AFF10280BDA90
S1133880BBF1000F06D000EB0A108DF80000FF20FA
S1133890E070CAE7E07076E7002DFCD10520A07047
S11338A004203870002EF6D0A078010018BF00F074
S11338B0DAF9FFF72CFF66E7401C2070C0B261788C
S11338C0384480F865100020002E3870F3D0A4E747
S11338D03878012805D19DF8000000F018F88DF81B
S11338E0000079199DF8000048706078401C6070F1
S11338F049E782684068030008BF0A6003D0127871
S11339006E2A02D108600120704700207047A0F1A0
S113391041011A293CBF2030C0B27047DFF8D813E8
S113392091F875201018C0B2084490F86500084456
S11339304078704725703E002DE9FE4FDFF8C00344
S1133940DFF8C053019000242878002842D0019E5B
S113395060B2FFF703FF8346E0B2FFF7F8FE4FF0D3
S11339600008029000270DE019F8010BFFF7CFFFC4
S113397000901AF8010BFFF7CAFF0099C9B28142FF
S113398006D01036D6F800A0BAF1000F17D0D946E9
S11339900299A9EB0B0088429AF800000CBF0121A0
S11339A00021421E924111EAD27F0CD151EAD27019
S11339B0DAD0B8F1000F0CBFB0460127E1E7002FC1
S11339C014BF00264646019646B90220A870A8787E
S11339D000F049F9FFF79BFEBDE8F78F2879DFF87F
S11339E01813401C28718E6701A90198FFF781FF05
S11339F0641C20B12978E0B28842A8D351E0019830
S1133A00806800783F284ED00026B0460FE007209B
S1133A10A87001988068304440782A28A8781CBF90
S1133A20761CF6B200283ED1641C08F101082978FE
S1133A30E0B28842019880682CD2875D5FFA88F0F2
S1133A40FFF76CFF27B3B7F162011BD0113902D025
S1133A50891E0229DBD8752F08BFFF2709D0762FCE
S1133A6008BF4FF6FF7704D0732F0CBF7F274FF0AA
S1133A70FF3701215FFA88F000F01FF88742C8D2AF
S1133A800420C5E7222818BF7B28C2D00520BFE741
S1133A900320BDE7815D00291EBF801940782A28D4
S1133AA001D0032092E7A878002890D101984068BB
S1133AB080478FE7081AC0B270472DE9F04788465F
S1133AC08D4901F173050024AA781018C0B20A18B0
S1133AD04FF00A0992F8652011444E1CFFF737FE97
S1133AE08246002707E0A4B9012F18BF022F10D186
S1133AF04FF010097F1C574516DAF05D5FEA0801A4
S1133B0003D0002F08BF2D28F4D0782818BF5828D8
S1133B10E9D0FFF70DFE4845B8BF09FB0404E9DB13
S1133B2005202870002000E02046BDE8F087002131
S1133B30C3E770B50C46704991F875100D18C6436B
S1133B402CB1E8B2FFF703FEA0EBD670207068B288
S1133B50FFF704FE00EBD67070BDF8B50D460446C1
S1133B60AE682A685CA100F0D1F868685BA718B950
S1133B705BA100F067F82EE01CB92CE000F062F8BD
S1133B80761C3078010022D0752808BF0FF28C1102
S1133B90F4D0762808BF0FF29011EFD0772808BF31
S1133BA00FF29011EAD0732808BF0FF29411E5D0F8
S1133BB0622808BF0FF29411E0D06E2808BF0FF2FC
S1133BC09811DBD02A280CBF46A147A1D6E7394675
S1133BD0032000F018F9E86838B1032000F022F956
S1133BE0EA680FF27C1100F091F83946032000F0E6
S1133BF00AF9BDE8F24022E010B5044682B021463D
S1133C000120FFF7AAFF69462046FFF772FE50B96C
S1133C1013BD36A100F016F800990020FFF79DFFB0
S1133C20009810300090009800680028F1D113BD6E
S1133C3080B50FF2341100F005F8BDE8024003200E
S1133C4000F0F0B8032000F0D5B810B5FFF7F0FF8E
S1133C502B4C04E021460020FFF77FFF103420683E
S1133C600028F7D110BD2DE9F8432749224C51F81B
S1133C7020200FF2341100F049F8A06F002804BF8F
S1133C80BDE8F143FFF7E1BFFFF7D2FF002718A516
S1133C900FF2600910E0F6B2494618F8062000F069
S1133CA035F8761C3846FFF752FDF1B28142F2D363
S1133CB02946FFF7C7FF7F1C94F87500FFB2401E2A
S1133CC0874205DA78B2FFF749FD80460026E9E726
S1133CD0A06FBDE8F2438FE72570000000000000EC
S1133CE02E2E2E00202A0000203F0000202000005D
S1133CF02000000025630000F07A00206E7F002081
S1133D0074080100617B0020906C0020032000F007
S1133D1071B8000053656E736F720000203C7569C2
S1133D206E74385F743E0000203C75696E743136E1
S1133D305F743E00203C75696E7433325F743E00DC
S1133D40203C696E74385F743E000000203C73743C
S1133D5072696E673E000000202E2E2E00000000C7
S1133D60202D20257000000055736167653A0D0A07
S1133D703C696E743E3A20313233206F72203078C1
S1133D80314142430D0A3C737472696E673E3A20B6
S1133D9022666F6F22206F72207B304120314220D7
S1133DA032437D0D0A0D0A0025700D0A0000000043
S1133DB010B504460120032C88B009D168460FF2DF
S1133DC0A8012022FEF7A6F96946032000F03CF979
S1133DD0C0B208B010BD00F078B980B500F080F929
S1133DE0C0B202BD00F0AAB980B500F0CFF9C0B2EC
S1133DF002BD18A10CB480B502AA00F0D2F902BC2D
S1133E00C0B25DF80CFB0CB438B5044604AA00F04B
S1133E10C8F905460FA1204600F0D4F9E8B232BC37
S1133E205DF80CFB80B500F04BFAC0B202BD80B562
S1133E3000F0B7F9C0B202BD0CB410B50A46014691
S1133E4002AB054800F07BFA00B90124E0B210BCD3
S1133E505DF80CFB0D0A0000AD42000003280CBF06
S1133E60002001207047000000C8004000C201008B
S1133E700100001000000000000106010500000020
S1133E800000000000000000012100F01F0291402A
S1133E90DFF84424400942F82010704772B6DFF876
S1133EA03C04016811F1010F1CBF491C016000684A
S1133EB07047DFF82814086818B1401E086000D164
S1133EC062B6704780B5DFF81804016829B101684B
S1133ED0DFF810241160002101601220FFF7D4FFE5
S1133EE0DFF804144FF480200860DFF80004016850
S1133EF041F00401016001BD80B5DFF8F403042141
S1133F000160416821F0040141601220FFF7BCFF09
S1133F10DFF8E0134FF480200860DFF8C80300687E
S1133F2010B1DFF8BC13086001BDDFF8CC2352F8F0
S1133F302000426892884089401A8242B4BF01201E
S1133F40002070473EB50446012C1CBF022C032CF4
S1133F5015D1DFF8A453FFF7A1FF55F82400C0687A
S1133F6001AB6A4602A900F0F2FD55F8240002896B
S1133F700099006889B200F003F8FFF79AFF37BD93
S1133F8070B504460D461646FFF788FFE088A84240
S1133F900CD22188091A691891FBF6F206FB12115A
S1133FA02180A1886918081AA080E580BDE87040C6
S1133FB07FE72DE9F843044615461E460027DFF83F
S1133FC03C83DFF8349359F82700C168A14210D12B
S1133FD002890068B1B2FFF7D3FF59F827000268DD
S1133FE00021D18043460189C0684A08294600F06F
S1133FF007FE7F1C042FE6DBBDE8F1832DE9F843BF
S113400080461D460026DFF8F09259F82600C06865
S1134010404514D1FFF742FFF7B259F82700416831
S11340204A884389ACB2A21892FBF3FC03FB1C221E
S11340304A8040688188091B8180FFF73AFF761C1B
S1134040042EE2DBBDE8F18370B5032821D1DFF84B
S1134050A82202EB800401282268236A136018BF97
S11340600328236953600FF2A42333F8103013811B
S11340700FF2902333F81030538124D1E06CD060D8
S1134080206B8861206CC861E06C00F077FC10B193
S113409070BD012070BD2068DFF86052018900689E
S11340A04A0800F10801E06C2B4600F0A9FD2168E4
S11340B008680E8900EB560000F10801E06C2B46FD
S11340C0720800F09DFD002070BD10B50446FFF796
S11340D039FFDFF8240250F824000068808810BDFE
S11340E070B50646032E0C460AD1FFF72BFFDFF806
S11340F0085255F826000068808818B9262070BD3B
S1134100012070BDFFF7CAFE55F8260000684188FB
S11341100844007A207055F8260001684A8803890B
S1134120521C92FBF3F403FB14224A80006881883A
S1134130491E8180FFF7BDFE002070BD38B5040024
S11341406D4D06D128684068808800B10120C0B256
S113415032BD012C1CBF022C032C15D155F82400B0
S11341604168898871B9C06800F008FD50B955F8F4
S11341702400C06800680069400900F0010080F074
S1134180010032BD012032BD002032BD02B503283A
S113419002D10122694601E0012002BD00F01EF8AF
S11341A002BD10B503280BD113460A4603210FF2B2
S11341B02D0000F0C4F8002400B90124204610BDED
S11341C0012010BD0CB480B5032803D102AAFFF767
S11341D0E8FF00E0012002BC5DF80CFB2DE9FC4780
S11341E00328894618BF012047D1434CDFF810A1AA
S11341F0032654F8260000F045F80025002729E09E
S113420000210320FFF791FE0028F9D0FFF746FEB6
S113421054F826004068028819F8011B10447F1CDA
S1134220017254F8260000F033F854F82600406870
S1134230008878B9FFB23D4654F82600C06853465A
S11342402A4600F01CF80028F6D154F826004068ED
S113425000F108089DF80010F8B28842D0D38D42CE
S11342600ADA9DF80000421B54F82600C068534641
S113427000F005F80028F4D10020BDE8F687414697
S113428000F0EABC40680188084400F1080870475F
S113429041680A884389521C92FBF3FC03FB1C22ED
S11342A00A8040688188491C818002E6032805D180
S11342B0114B53F82000C06800F072BC0120704715
S11342C010B50446032C01D0012010BD2046FFF791
S11342D035FF0028FAD110BD80E200E0647A0020A6
S11342E00C300C40B479002000E100E04CC80040E0
S11342F048C8004080E100E0E06B0020B33F0000CC
S1134300FD3F0000800080008000800040004000ED
S11343104000400070B51346104402E0A4192C700C
S11343205B1EDCB24CB101F00F060909451E0A2ED2
S11343302846B4BF30243724F0E7104470BD2DE97B
S1134340F04F804693B001A8894616469B4601ADBE
S113435000248DF800001BE05BF804AB04224FEA54
S11343601A412846FFF7D6FF04221FFA8AF1FFF705
S1134370D1FF054611A8854209D39DF800002F1AE4
S113438000F096F8002831D13C19E4B201AD761C56
S11343909DF800002F1A3078010007D0252802D09C
S11343A005F8010BE6E716F8010F002876D025285A
S11343B0F6D0322818BF34285FD0582857D0632845
S11343C00CD0642818BF6C2825D0702818BF732817
S11343D007D075281FD0782849D0CBE75BF8040BA9
S11343E0DEE75BF804AB00F063F800285CD13C190D
S11343F0E4B201AD002700E07F1CFFB21AF8070009
S11344000028F9D13A4651464846C04700284BD1C6
S11344103C19E4B2AEE75BF8040B0021002803D595
S11344202D212970404201214FF0000C00220FF28F
S1134430880757F82270002301E0C01B5B1CB842B8
S1134440FBD2DFB2002F08BFBCF1000F05D0C9B208
S113445030336B54491C4FF0010C521C092AE6DB23
S1134460C9B230306854481CC0B22D1882E75BF8DA
S1134470041B0222C9B2284679E716F8010F7828EE
S11344801CBF5828761EF1D116F8010C32287FF48F
S113449063AF5BF8040B81B20422ECE700F008F888
S11344A010B93819C0B200E0002013B0BDE8F08F95
S11344B0FAB201A94846404700CA9A3B00E1F50513
S11344C08096980040420F00A0860100102700004B
S11344D0E8030000640000000A000000012202FA60
S11344E001F12423DFF8B827584310444161704791
S11344F0012202FA01F12423DFF8A42758431044CF
S11345000161704772B6DFF89C07016811F1010F71
S11345101CBF491C016000687047DFF888170868F1
S113452018B1401E086000D162B67047427CDFF8C3
S11345307017807C24235A4311441C31800000EB03
S1134540411000F184400068C0B2704738B50021C2
S1134550DFF8542702EB81025468A27C824203D024
S1134560491C0429F4D30024207C022815D12046B8
S113457004F13005FFF7DAFF2870687802280CD1BF
S11345802046FFF7D3FF08B1E87818B10020E8709F
S1134590042000E008202168C86031BD80B500F126
S11345A0100200F130031178022910D1587801006B
S11345B003D0012806D0187820B91179D078FFF7F4
S11345C08DFF11E01179D078FFF792FF0CE00129FB
S11345D00AD1197800290CBF112113218DF800107C
S11345E00122694600F0DCFA002002BDF8B5044659
S11345F00E461546FFF786FFA088E188884206D359
S113460000202860FFF789FFDFF8A006F2BD2088AC
S1134610142778432044142231460830FDF76AFDFC
S1134620208807FB00F1214408312960401CE188FF
S113463090FBF1F201FB12002080A088401CA080B6
S1134640FFF76BFF0020F2BD38B504460D46FFF7B7
S113465059FFA088010002D10020286022E061886F
S113466014224A43224408322A60491CE28891FBFE
S1134670F2F302FB1311401E6180A0800EE038B5F6
S113468005460C46FFF73EFFA88808B9206009E0FC
S1134690688814214843284408302060FFF73DFF10
S11346A0002032BDFFF739FFDFF8040632BD006891
S11346B00121C1600169C907FCD5416D41F00101C7
S11346C0416570470068416D490849004165022110
S11346D0C160704700B585B0012280F84420049081
S11346E00FF2510200F01EF8026802F11C030A687E
S11346F0C16A406A00F083FB05B000BD00B585B017
S1134700012280F8452004900FF2C50200F00AF857
S11347100B68016801F13402816A006A00F069FBE8
S113472005B000BD0392002202924A680192012260
S11347300092704770B5144604F1300582B0E86801
S113474000F074F82068016C890507D50099DFF83A
S1134750640500F037F84FF4007009E0006CC00500
S113476009D50099DFF8500500F02CF84FF480705B
S11347702168886401E000F053F8FFF7C3FE009855
S1134780C668300009D00098009940688968431AC7
S11347900098026801692046B047E8686946FFF757
S11347A053FFE868818821B100F040F800F044FA32
S11347B007E0012000F044FA002028752046FFF7A6
S11347C081FF29E00861009800994068886070477B
S11347D070B5144604F1400582B0286800F026F84C
S11347E000F01EF8FFF78EFE0098C668300005D072
S11347F000984368026800212046B047286869464B
S1134800FFF722FF2868818821B100F00FF800F03B
S113481037FA01E000206871FFF77FFE012076BDC2
S1134820009900200861009988607047694626E76E
S113483010B9DFF888047047002918BF002A02D095
S1134840B2F5806F02D9DFF8780470470020704712
S113485038B50A460446DFF86C342168207A994258
S113486004F1340530D1002844D0012825D1032097
S1134870A87000210123E9702870002AE978A8783B
S11348806B705BD001230422FCF7CBF9697828789C
S113489000230122FCF7C5F9207C022868D1A17C01
S11348A0607C00230122FCF7BCF9217DE07C00231D
S11348B00422FCF7B6F9012053E002281AD10320A0
S11348C0A87007210623D6E7DFF8FC33994206D106
S11348D080B101280ED1A87003210423CBE7DFF8AF
S11348E0EC33994212D128B1012808BF0420BFD06B
S11348F0022804D1FF20A870FF21FF23BBE703286F
S1134900F8D10220A8700E210F23B4E7DFF8C033DA
S1134910994210D120B90220A8700C210D23AAE7D6
S1134920012818BF0228E5D00328E3D10420A87089
S1134930022103239FE7DFF8880332BD0023FCF73D
S113494070F96978287800F015F8207C02280FD1D6
S1134950A17C607C00F00EF8217DE07C00F00AF878
S11349600020009001230122A17C607CFCF72DF93A
S1134970002032BD00230022FCF753B970B586B085
S113498004460D4668460FF280311822FDF7C2FB3B
S1134990002C7BD0002D00F0A38048212046FDF799
S11349A0A5FBDFF80403017841B9002200EB810381
S11349B0491C04295A60F9D301210170002100EB3C
S11349C081025368002B18BFA3425CD1546004F1E8
S11349D030062868DFF8EC1288425AD1DFF8F40276
S11349E0B060DFF8F402A0624FF45020E0622022AD
S11349F029462046FDF77EFBA869F060002101806E
S1134A000020F1684880F168888030750021E869E9
S1134A103061018000203169488031698880707577
S1134A20F0700121686802906889ADF81000A889C7
S1134A30ADF80E00A87B8DF80C00E87B8DF8120011
S1134A4005208DF80D00DFF89402FBF736FE0121F6
S1134A50DFF88C02FBF731FEB0680121FBF72DFE75
S1134A6000208DF800006946286800F065FB287A6C
S1134A702968000240F00300486501212046FFF741
S1134A80E7FE80B361E0491C042998D3DFF82C02C7
S1134A905BE0DFF83412884208D1DFF84802B060E6
S1134AA0DFF84402A0624FF460209FE7DFF81C1295
S1134AB0884208D1DFF83402B060DFF83402A06223
S1134AC04FF4301092E7DFF80812884208D1DFF87B
S1134AD02402B060DFF82002A0624FF4341085E7AE
S1134AE0DFF8DC0131E0FFF70DFD00F0A8FBA87C46
S1134AF0DFF8081200F0B1FB0020B0703070022023
S1134B0070702046FFF74AFD28684FF0FF3181643A
S1134B10042100F00AFB29684FF44060C86000F0EB
S1134B203EF9002104F1200000F00EF928B900211B
S1134B3004F1240000F008F920B1FFF7EEFCDFF8DF
S1134B40C00102E0FFF7E9FC002006B070BDF0B53B
S1134B50044683B0E06B0D46818816461F4649B172
S1134B6001A9FFF78CFD606A694600F063F900F063
S1134B700DF802E000203860306003E0006C8088AB
S1134B80C0B27047286020680069FEBD0198009992
S1134B904068401A30600098386001980068704797
S1134BA070B506460C461546FFF742FE38BB306C1E
S1134BB080880028FBD13068016911F002010FD10F
S1134BC00422C26002699207FCD5426D42F00202DF
S1134BD0426505E002695206FCD514F8012B4263D4
S1134BE02A46551E002AF5D102699206FCD529B938
S1134BF0416D21F0020141650821C160002070BDB2
S1134C00F0B587B000F03FF878B900F01DF80497CC
S1134C1000F00DF848B9287D30B92046FFF747FD6C
S1134C2000F00AF800F00BF8002007B0F0BD6A4667
S1134C30E86801A9FFF7DABC009920464AE500209C
S1134C4028702046FFF7AABC019504F130052D48D1
S1134C500590029603967047F0B587B000F013F8FC
S1134C6060B900F015F804976A462868FFF7E1FF79
S1134C7020B9687908B900F003F8002007B0F0BD46
S1134C80009920463AE504460D4616461F46CFE5F0
S1134C90019504F140051B48059002960396704760
S1134CA000600040647A0020D07A00200A7000F08E
S1134CB00B7000F00D7000F00C7000F0027000F04A
S1134CC0037000F000C4004000C8004000E0004051
S1134CD000E400400012040001000D0040810400C3
S1134CE000D204000022040001000E00003204007F
S1134CF001002C000042040001002D004D4500007D
S1134D000E7000F0017000F00500000000000000CB
S1134D1000C20100000500000010000000000000B7
S1134D2072B6DFF84003016811F1010F1CBF491C82
S1134D30016000687047DFF82C13086818B1401E42
S1134D40086000D162B6704738B500F023F810B996
S1134D50DFF8140332BD14B9DFF8100332BDFFF7D6
S1134D60DFFF0020DFF80813142242438B181D7C58
S1134D7045B920600120187400208850FFF7DBFF3C
S1134D80002032BD401C0428EEDBFFF7D4FFDFF81F
S1134D90E40232BD0446DFF8E0020078704700B553
S1134DA083B0FFF7BDFFDFF8D002017821B1FFF730
S1134DB0C2FFDFF8C8020EBD01210170FFF7BBFF7F
S1134DC00020DFF8AC120022142343430B44401CA0
S1134DD004281A74F8DBDFF8A812802008708DF814
S1134DE00020DFF8A0020190684600F05EFB00207E
S1134DF00EBD10B588B000F012F8002104E010B523
S1134E0088B000F00CF801210B9C049400200A9C4B
S1134E1003940024029400F06BF808B010BD0E9CBB
S1134E200794019300920B460D9C069402460C9C39
S1134E3005947047F8B50546FFF7ADFF0C4600B979
S1134E4024E0052D00D204B922E000F016F800B9E0
S1134E5020E0FFF765FF8B4800EB05108068C0F386
S1134E60091600F010F826B9EF40F80748BF0020F3
S1134E7000D4701C20600020F2BD14217C486943DA
S1134E800844007C70478148076854E77648F2BDBF
S1134E907648F2BD7C48F2BD1422754942438B1812
S1134EA0196829B199685A68491C99601B681847A0
S1134EB070473EB514236E4A4343D5180C462A68FE
S1134EC001214AB1A9686A682B68491CA9609847FE
S1134ED000F0010080F0010102910023E868401E07
S1134EE00190002200200090214600F0F8FA37BD1E
S1134EF02DE9F04F044660488846017889B016468B
S1134F0009B95948AAE0052E11D2129F002F1CBFDF
S1134F10139D002D0BD0DDF85890B9F5806F06DC99
S1134F20DDF850A0012C08BFBAF1000F01D14F48A1
S1134F3094E014224E49724311440091097C09B94A
S1134F4051488BE00C217143084421000CBF5049A7
S1134F5050494160002181608DF81810DDF860B07F
S1134F60BBF1000F01D1012C03D101218DF81910DF
S1134F7001E08DF819B0001D0890079306A930468A
S1134F8000F059FA179815995FEA080312D151B144
S1134F90010008BF002107D0012808BF8DF81100C7
S1134FA004D0022100E003218DF8111003218DF8B3
S1134FB0101011E051B1010008BF002107D00128F1
S1134FC008BF8DF8100004D0022100E003218DF801
S1134FD0101003218DF811108DF8120004AA00207E
S1134FE08DF813008DF814000121304600F043FAC7
S1134FF0012C04D104AA0021304600F03CFA0098A8
S1135000C0F800B0009919984860002000998860A1
S113501000982149C0F80C900120B0400860A9F123
S1135020010044B9019000953B460022012130461D
S113503000F0CFF911E0B8F1000F0390CDF808A00B
S113504003D1019700902B4602E00195009053464E
S11350503A460021304600F0CFF9002009B0BDE8FF
S1135060F08F0000647A0020028000F0018000F0DC
S1135070F8790020048000F0C4790020038000F057
S113508000E400E0006D0020078000F000300C40D8
S1135090994E0000B34E000008300C4070B5044631
S11350A0080015461E4604BF5848FBF750FB310064
S11350B006D0202E18D0402E18D0602E18D070BDE7
S11350C01021226822F06002226069432268324380
S11350D022604A0802EB8000B0FBF1F0001F4C494B
S11350E001EA8010606170BD0821EAE70621E8E763
S11350F00421E6E770B50446154619B94348FBF7A1
S113510026FB01464A000023681E0021101859415D
S11351102A4600F04FFA66693E49800140386FF331
S1135120941608403043606170BDCA43520002F0D7
S11351300A02C260C160704738B504460D4600F0EB
S113514049F8A87C18B1206840F080402060E87CD1
S113515018B1287D40F01000A065687BB5F91010E7
S11351600843B5F90E10084360602B7BAA68696890
S11351702046FFF793FF2AE038B504460D4600F0B9
S113518029F8A87B08B14FF480602168B5F9102094
S1135190104340F0010008432060287D08B14FF01F
S11351A00050216808432060A87C18B1E87C40F0D6
S11351B01000A065287B40F480506060AA6869688C
S11351C02046FFF797FF687B08B11020E06028783D
S11351D0E06031BD40F6AA61C1600021016041F286
S11351E005014160002181604161C16441F6F971AA
S11351F081640021416581650749884219BF0749D7
S113520088420021C165704700000000408104000D
S1135210C0FF1F0000FF1F0000C4004000C8004082
S1135220012100F01F029140244A04E0012100F012
S11352301F029140224A400942F82010704780B56D
S11352400B20FFF7F3FF0B20FFF7EAFF0120FFF726
S1135250EDFFBDE802400120E2E710B572B6194A3D
S1135260194C136813F1010F08BF44F8201004D03F
S11352705B1C136044F8201004D01068401E1060BA
S113528000D162B610BD38B504460F4D0CE094FA57
S1135290A4F0B0FA80F0012181408C4355F820102D
S11352A00A001CBFC0B28847002CF0D131BD0749A9
S11352B008684A68104045F2555212E000E100E0E7
S11352C080E200E0647A00206C7A002010610040E3
S11352D0004901E01061004008684A6810404AF63D
S11352E0AA221040C860CEE7890001EB401000F10B
S11352F0844002607047F0B5DFF88442266806EB0C
S11353000016170012BF3546676807EB0015F668EC
S113531006B13272069F079E57B1D5F808C0CCF388
S1135320816CBCF1030F1CBF06FA0CFC67442F60B0
S1135330059F57B1D5F808C04FEA9C7CBCF1030F18
S11353401CBF06FA0CFC67446F60012707FA00F0E3
S1135350002B14BF20616061002A14BFE062A062C8
S1135360A86800F0EFF80843A860F0BD2DE9F04705
S1135370844C2068E16811EA000800D5FEE7DFF8F4
S11353800092D9F830A00AEA08050226002718E09E
S1135390E80714D5D9F800000121B94000EB071043
S11353A0A160C06858B1017A81F0010202720368F9
S11353B01A0004D001B101214268384698476D08AB
S11353C07F1C002DE4D1761E28EA0A05DED1BDE853
S11353D0F08710B584B004460798029000931346F2
S11353E0069801900A46012100F004F800F01EF826
S11353F01FBD032120467EE7FEB504460B980290AC
S11354000D460A9801901646099800901F462B46AF
S11354100022FFF7EEFF08980290019700962B46B2
S11354200122FFF7E6FF00F001F8F7BD012056491D
S1135430A0400860704710B5514A13688C6803EBAC
S11354400013DC60012303FA00F40B78002B14BF73
S1135450146354634A684D4B43F8202049784C4BFD
S113546000291DBF4B490C6001220022BDE81040F9
S11354700146184638E730B5414B1478002914BF6B
S11354801968596893781D0745EA8474557844EA85
S1135490856444EA03631479D27843EA844301EBD4
S11354A0001043EA8232826030BD10B50446012107
S11354B03948FBF702F900F04AF83849012008603E
S11354C0374908604FF00040314908603548616849
S11354D041602178490141F00101016010BDF0B53E
S11354E0079C274D059F069E002C14BF012403240E
S11354F0002914BF2968696801EB001157B1D1F87C
S113550008C0CCF3816CBCF1030F1CBF06FA0CFC81
S113551067440F604BB18F684FEA977CBCF1030F6F
S11355201CBF06FA0CF7FB184B60012303FA00F0CA
S1135530002A14BF28616861886800F003F82043DA
S11355408860F0BD184A104040EA061070471749B9
S11355500120086000211348016040F6FF71816159
S11355600162816201638163012181640021094830
S113557041600F49016030210448FCF7B7BD0000C9
S113558008200C4000300C4028200C4000310C4016
S11355900C300C4008300C400003020080E200E0B4
S11355A000E100E004200C4008C0FFFF80E100E0BF
S11355B0FF0F00801B4213D1094236D12AB1844621
S11355C0B0FBF2F002FB10C2704700F06BB8FCD3E2
S11355D00022002370470B000200002100207047C6
S11355E0904271EB030CF6D370B5B1FA81F4B3FABF
S11355F083F52C1BA340C4F1200532FA05F633438E
S1135600A2405FF00046E64002E05B085FEA320237
S1135610841A71EB030524BF204629467641F4D34E
S113562002000B003000002170BD012ACFD970B5F3
S1135630140C20D0B1FA81F4B2FA82F5C4F120043A
S11356406419B4F12006D6D3B2405FF00044F440AC
S1135650002502E052085FEA3303C61A71EB020E1A
S113566024BF3046714664416D41F3D302000B0000
S11356702000290070BD0C46B1FBF2F102FB11457C
S11356802D0445EA1045B5FBF2F402FB145580B233
S113569040EA0545B5FBF2F002FB105240EA044033
S11356A070BD0000704700007CB504460722FF214E
S11356B0684600F084F81A4E2E22FF21304600F08E
S11356C07EF80725002017490A5C012A1CBF26F82A
S11356D010505519401C0728F6DB0FF24C054FF407
S11356E0E04000F03BF918B1CA21284600F00AFE58
S11356F04FF4804000F032F918B1CC21284600F074
S113570001FE4FF4805000F029F918B1CE2128464B
S113571000F0F8FD6946204600F04DF976BD000022
S1135720807700208402010073696D2D65657072B5
S11357306F6D2E6300000000814233D21044114487
S1135740401E491E10E011F8013900F80139121FFA
S113575011F8013900F8013911F8013900F801395B
S113576011F8013900F8013992B2042AEBDA93B244
S1135770002B1EBF11F8013900F80139521EF6D171
S1135780704711F8013B00F8013B121F11F8013B6F
S113579000F8013B11F8013B00F8013B11F8013B13
S11357A000F8013B92B2042AEBDA93B2002B1EBF3D
S11357B011F8013B00F8013B521EF6D1704713006B
S11357C003D00A46194600F08DBE704710B500E0BC
S11357D0521E93B223B100F005F8F9D0181B10BD86
S11357E0002010BD10F8013B11F8014BA342704793
S11357F010B5DFF8984ADFF8983A2488001B06E0D1
S113580010B5DFF8904ADFF8883A24681B1B03EBD5
S11358104000002304E030F8134021F813405B1CDF
S11358209342F8DB002010BD2DE9F04182B004461C
S11358300D4616460027DFF8588A01E0B81CC7B2A7
S1135840B74217DA7819795D4078DFF8403A1B8857
S113585001EB0020ADF80000012207EBD77004EB48
S11358606000C01A00F09BFB0028E7D001F054F858
S1135870002000E00120BDE8F681F8B504460E469C
S1135880154600270DE000F019F8BDF8000004EB00
S11358904701000A4870761CBDF8000004F81700A0
S11358A07F1CB7EB550FEEDBE80706D500F006F8D2
S11358B0BDF80000291901F8010CF1BD012200A96D
S11358C0B0B295E7DFF8C429DFF8C4191288801A4A
S11358D001EB4001022001F05FB9DFF8BC19DFF8E9
S11358E0BC29415C825CDFF8B839C05C10B102F5B8
S11358F0997292B241EAC21080B2704710B5DFF8D3
S1135900A439DFF8944903EB4002005D012801D17A
S1135910104610BD1088081803EB400010BD38B5C0
S11359200C46DFF884190D782A462146FFF760FFFC
S1135930208800281CBF4FF6FF7188420AD001203E
S113594000E0401CC0B2A84206D234F810102288ED
S11359509142F6D0002032BD012032BDF0B5DFF80F
S1135960341987B008600C2200A90020FFF748FF13
S113597000A90025C88A8A890346040A01204FF633
S1135980FF7631F81570BDF800C0BC4503D1B742AD
S113599018BF002F00D100206D1C062DF1DBB21AB8
S11359A0944518BF0020DBB2C4F1FF018B4218BF3D
S11359B0002007B0F0BD2DE9F24F0446DFF8EC6893
S11359C00020307070809CB0DFF8E4080088ADF8E7
S11359D0020007A9FFF7A3FF83460120707009A9FD
S11359E0DFF8D0080588DFF8D008B0F80080DFF8C9
S11359F09C08BDF802A007883846FFF790FFB8B1AD
S1135A00BBF1000F3CD0BDF81C10BDF824004FF6CC
S1135A10FE72914202D1012804D10CE0012908BF91
S1135A2090422DD00846BDF82410884228D202E0C6
S1135A30BBF1000F23D000207070029750460695EA
S1135A40CDF810800122DFF8601891F800804044FE
S1135A50ADF8060000A9BDF80600FFF7C9FEDFF89F
S1135A605C08008805904FF6FF79BDF80000000B34
S1135A70404518BF0F2800D10CB3002516E00124BF
S1135A8070780028D9D03846CDF808A0CDF8188011
S1135A900495D7E7059805FB00F4E01900F01CFC19
S1135AA0BDF80200201800F017FC6D1C4545F1DB21
S1135AB0012030704D2000F02FFF0025FEE0BDF8DE
S1135AC00650012201A92846FFF792FEBDF8040002
S1135AD0C043C0B2ADF804006F1CDFF8E4070588CA
S1135AE0BDF80400A84218BF01244FF0000A20E0CA
S1135AF0401CC1B2A94218D2C0B2DFF8C817BDF821
S1135B000E20834631F81B109142F1D1FFF7E5FED8
S1135B104FF680710840BDF80C104FF680721140AA
S1135B20884204BF1C980BF800A00AF101001FFA78
S1135B3080FABDF80400824507DA022203A9B8B24C
S1135B40FFF756FEBF1C0020D3E7002001E0401CF5
S1135B5080B2A84217DA1C99415C8142F7D0012433
S1135B6011E02AF81070BDF8060000EB4300401C59
S1135B7000F0D2FABDF80200C0F3C710401C00EBDD
S1135B80D07007EB60070498DFF818A7BFB287420C
S1135B9011DA012200A93846FFF72AFEBDF80000F9
S1135BA0484508D0030A00F07F01BDF804007F1CBB
S1135BB0834202DB012400252FE0002001E0401C89
S1135BC080B2A842CFDA1C9A825C9A42F7D1C0B262
S1135BD0FF28C8D0DFF8C026825C7F290CBF4FF0B5
S1135BE0000C8C4694450BDABDF800C0DFF8B0E633
S1135BF010F80EE04FEA0C6C4FEADC7CF44501D05F
S1135C000124B0E7012AACD07F293AF8100008BF7C
S1135C1000210818A5E76D1CADB2DFF8AC060088BA
S1135C20854204DA3AF815004845F4D10124778016
S1135C300498BDB285420ADA012200A92846FFF77A
S1135C40D7FDBDF800006F1C4845F1D032E7002CA9
S1135C50FCD1029801220BA980B2FFF7C9FDBDF85F
S1135C602C0048450DD105E0401C80B2202813DBF0
S1135C702034A4B20699029A891A8C4205DB0120C9
S1135C80307000201DB0BDE8F08FA51820220BA9AC
S1135C90A8B2FFF7ADFD00200BA931F8101049455B
S1135CA0E2D0A8B2FFF70EFE203CA4B2E0E70298CF
S1135CB0059905FB010000F00FFB6D1C4545F6DB63
S1135CC001203070494600F043F818B100F02DF976
S1135CD00028D6D10120D5E72DE9F84504460F4622
S1135CE01646984631463846FFF708FEDFF8D015C9
