S00E00006D6963726F53442E73333735
S1130000E861002035DC0000A5DB0000A9DB00006E
S1130010A70B0000000000000000FFFF54000000D8
S113002004220A000000000000000000000000009C
S113003000000000000000000000000000000000BC
S1130040000000000000000000000000D7000000D5
S113005000000000E861002035DC0000A5DB0000A2
S1130060A9DB0000A70A08010001000004220AAC71
S11300705010D70000000000000000000000000045
S1130080000000000000000000000000000000006C
S1130090000000000000000000000000FFFFFFFF60
S11300A0FFFFFFFFFFFFFFFF00E003000000000071
S11300B000000000FFFFFFFFFFFFFFFFFFFFFFFF48
S11300C0FFFFFFFFFFFFFFFFFFFFFFFFFFFFFFFF3C
S11300D0FFFFFFFF0000000000000000F67E00208C
S11300E0F67E0020E861002060E90000B2DD000037
S11300F088580020A00F0020000004000000000029
S1130100E861002035DC0000A5DB0000A9DB00006D
S1130110B1DB0000ADDB0000B5DB000031DC00002A
S113012031DC000031DC000031DC000031DC000097
S1130130B9DB000031DC000031DC000031DC000000
S1130140F95900003B5900006518000031DC00003B
S113015031DC000031DC000031DC000031DC000067
S113016031DC000031DC000031DC00005D590000AE
S113017031DC000031DC0000EDB8000031DC0000AF
S113018031DC000031DC000031DC000031DC000037
S113019031DC000031DC000031DC000031DC000027
S11301A031DC000031DC000031DC000031DC000017
S11301B031DC000031DC00006F47000031DC00005E
S11301C031DC000031DC000031DC000031DC0000F7
S11301D031DC000031DC000031DC0000DFF800F02D
S11301E0654900002DE9F0410D460026002D044626
S11301F045D0DFF8AC816B4FA2B9FFF7EFFF0020C9
S1130200A8423CD254F8041BF960401C0821396010
S1130210414601E089B3491E3A69D207FAD400295C
S1130220EED12AE0FFF7DAFF002072B65E490A68D1
S113023012F1010F11D0521C0A600EE03A6902F06B
S11302401902102A08BF3A603A691207F6D554F821
S1130250042BFA60401C10223A60A842F4D30868C8
S113026018B1401E086000D162B6414601E021B1D8
S1130270491E3869C007FAD409B96FF0020630463E
S1130280BDE8F0812DE9F047484F9A463B68814626
S113029043F0010300203B6094080025884602E0F7
S11302A0751908EB8608A5422DD23D4801E020B11E
S11302B0401E7969C907FAD410B96FF0020026E02C
S11302C009EB8500B86001217960796911F0060FA6
S11302D009D04A0702D54FF0FF3018E0890702D54C
S11302E06FF0010013E0C0F30A00C0F50060860857
S11302F0601BB04238BF0646524631464046FFF7BF
S113030071FF0100CCD03968490849003960BDE863
S1130310F0872649224A0B6843F001030B6088608A
S1130320012048604869400706D508684008400035
S113033008604FF0FF3070474869800706D50868A9
S11303404008400008606FF00100704702204860D8
S113035001E022B1521E4869C007FAD432B90868D4
S11303604008400008606FF00200704708684008C9
S11303704000086000207047002383E70B480168B1
S113038041F00101016046F21A31C1644FF48071F9
S113039041604169C907FCD40021C1640020704751
S11303A0809698000C000C40786D002008000C40EA
S11303B07CB504460722FF21684600F084F81A4EF3
S11303C02E22FF21304600F07EF807250020174931
S11303D00A5C012A1CBF26F810505519401C072836
S11303E0F6DB0FF24C054FF4E04000F03BF918B196
S11303F0CA21284600F00AFE4FF4804000F032F98A
S113040018B1CC21284600F001FE4FF4805000F0D2
S113041029F918B1CE21284600F0F8FD6946204696
S113042000F04DF976BD0000B46A002028E1000018
S113043073696D2D656570726F6D2E630000000029
S1130440814233D210441144401E491E10E011F879
S1130450013900F80139121F11F8013900F8013986
S113046011F8013900F8013911F8013900F801399E
S113047092B2042AEBDA93B2002B1EBF11F80139B1
S113048000F80139521EF6D1704711F8013B00F80B
S1130490013B121F11F8013B00F8013B11F8013B2D
S11304A000F8013B11F8013B00F8013B92B2042A29
S11304B0EBDA93B2002B1EBF11F8013B00F8013BAD
S11304C0521EF6D17047130003D00A46194600F0B5
S11304D08DBE704710B500E0521E93B223B100F0F8
S11304E005F8F9D0181B10BD002010BD10F8013B11
S11304F011F8014BA342704710B5DFF8984ADFF8B2
S1130500983A2488001B06E010B5DFF8904ADFF81B
S1130510883A24681B1B03EB4000002304E030F8F6
S1130520134021F813405B1C9342F8DB002010BDFC
S11305302DE9F04182B004460D4616460027DFF847
S1130540588A01E0B81CC7B2B74217DA7819795D46
S11305504078DFF8403A1B8801EB0020ADF800003A
S1130560012207EBD77004EB6000C01A00F09BFB7C
S11305700028E7D000F06EFE002000E00120BDE876
S1130580F681F8B504460E46154600270DE000F046
S113059019F8BDF8000004EB4701000A4870761C06
S11305A0BDF8000004F817007F1CB7EB550FEEDB15
S11305B0E80706D500F006F8BDF80000291901F88F
S11305C0010CF1BD012200A9B0B295E7DFF8C429FE
S11305D0DFF8C4191288801A01EB4001022000F0F0
S11305E0CDBEDFF8BC19DFF8BC29415C825CDFF8C2
S11305F0B839C05C10B102F5997292B241EAC210E6
S113060080B2704710B5DFF8A439DFF8944903EBE2
S11306104002005D012801D1104610BD1088081861
S113062003EB400010BD38B50C46DFF884190D7893
S11306302A462146FFF760FF208800281CBF4FF69A
S1130640FF7188420AD0012000E0401CC0B2A842D9
S113065006D234F8101022889142F6D0002032BD20
S1130660012032BDF0B5DFF8341987B008600C22E0
S113067000A90020FFF748FF00A90025C88A8A893D
S11306800346040A01204FF6FF7631F81570BDF8D1
S113069000C0BC4503D1B74218BF002F00D10020D1
S11306A06D1C062DF1DBB21A944518BF0020DBB295
S11306B0C4F1FF018B4218BF002007B0F0BD2DE943
S11306C0F24F0446DFF8EC680020307070809CB074
S11306D0DFF8E4080088ADF8020007A9FFF7A3FFDC
S11306E083460120707009A9DFF8D0080588DFF877
S11306F0D008B0F80080DFF89C08BDF802A0078895
S11307003846FFF790FFB8B1BBF1000F3CD0BDF8FD
S11307101C10BDF824004FF6FE72914202D101284C
S113072004D10CE0012908BF90422DD00846BDF841
S11307302410884228D202E0BBF1000F23D000200D
S11307407070029750460695CDF810800122DFF8AC
S1130750601891F800804044ADF8060000A9BDF887
S11307600600FFF7C9FEDFF85C08008805904FF625
S1130770FF79BDF80000000B404518BF0F2800D1D9
S11307800CB3002516E0012470780028D9D038462F
S1130790CDF808A0CDF818800495D7E7059805FB97
S11307A000F4E01900F01CFCBDF80200201800F071
S11307B017FC6D1C4545F1DB012030704D2000F025
S11307C049FD0025FEE0BDF80650012201A9284696
S11307D0FFF792FEBDF80400C043C0B2ADF80400B8
S11307E06F1CDFF8E4070588BDF80400A84218BFB1
S11307F001244FF0000A20E0401CC1B2A94218D2E3
S1130800C0B2DFF8C817BDF80E20834631F81B10BC
S11308109142F1D1FFF7E5FE4FF680710840BDF833
S11308200C104FF680721140884204BF1C980BF8DC
S113083000A00AF101001FFA80FABDF80400824505
S113084007DA022203A9B8B2FFF756FEBF1C002044
S1130850D3E7002001E0401C80B2A84217DA1C99BB
S1130860415C8142F7D0012411E02AF81070BDF8F0
S1130870060000EB4300401C00F0D2FABDF8020071
S1130880C0F3C710401C00EBD07007EB600704985E
S1130890DFF818A7BFB2874211DA012200A938464F
S11308A0FFF72AFEBDF80000484508D0030A00F00F
S11308B07F01BDF804007F1C834202DB0124002574
S11308C02FE0002001E0401C80B2A842CFDA1C9A3D
S11308D0825C9A42F7D1C0B2FF28C8D0DFF8C026A4
S11308E0825C7F290CBF4FF0000C8C4694450BDAD8
S11308F0BDF800C0DFF8B0E610F80EE04FEA0C6C6B
S11309004FEADC7CF44501D00124B0E7012AACD0E5
S11309107F293AF8100008BF00210818A5E76D1CCC
S1130920ADB2DFF8AC060088854204DA3AF8150067
S11309304845F4D1012477800498BDB285420ADA8F
S1130940012200A92846FFF7D7FDBDF800006F1C5F
S11309504845F1D032E7002CFCD1029801220BA9C2
S113096080B2FFF7C9FDBDF82C0048450DD105E064
S1130970401C80B2202813DB2034A4B20699029ACA
S1130980891A8C4205DB0120307000201DB0BDE8BF
S1130990F08FA51820220BA9A8B2FFF7ADFD002007
S11309A00BA931F810104945E2D0A8B2FFF70EFEAA
S11309B0203CA4B2E0E70298059905FB010000F091
S11309C00FFB6D1C4545F6DB01203070494600F0F5
S11309D043F818B100F02DF90028D6D10120D5E74D
S11309E02DE9F84504460F461646984631463846E2
S11309F0FFF708FEDFF8D015B0F800A00988DFF88B
S1130A00A4558F420AD2DFF89805385C7F2E08BFC0
S1130A100026864202DA785D804503D040F2DB414D
S1130A2000F0FAF9DFF88005385C68B151463846C1
S1130A3000F020FA795D012908BF20700AD002294C
S1130A4014BF2060208005E0424651462046BDE8A0
S1130A50F84596E5BDE8F1852DE9F34FDFF8340557
S1130A60DFF84C150488DFF84C050978407883B02A
S1130A7000281ABFDFF84005008820460D18DFF86B
S1130A8048050088ADF80800ADB2C043C0B200EB21
S1130A90013000F55060ADF802002B1BDFF8F804BC
S1130AA000F0C4F96E1C0028B6B238D10025DFF876
S1130AB01C7514E0E8B2FFF794FDADF80400331B95
S1130AC037F81500ADF806000222DFF8CC0400F078
S1130AD0ABF8002823D1B61C6D1CB6B2ADB2BDF87C
S1130AE008008542E6DB002501E06D1CADB2BDF8CF
S1130AF00800854280F293804FF0000A1CE0012236
S1130B000DF102011FFA89F0FFF7F6FCBB19DFF8BB
S1130B1088041B1B09F1010900F088F9002878D129
S1130B207F1CFFB2B7EB1B6FE9DBDFF8A804285C7E
S1130B308619B6B20AF1010ADFF8640415F800B0A8
S1130B405FFA8AFADA45D0D25146E8B2FFF75AFD85
S1130B508046DFF85404B8F800902F5CF80140EAAE
S1130B600520ADF80000BBF1010FBDF800000CBF7B
S1130B7040F07F004AEA0000ADF80000311BDFF8C6
S1130B80180400EB4100711C89B201914FF6FF710A
S1130B9089451EBFBDF80010BDF81020914218D140
S1130BA09DF80C100029C5D0012200A900F023FCF7
S1130BB0019E70BBDFF8EC03A8F800602A5CDFF844
S1130BC0180450F82510B0B2FFF7B2FC0028ACD1DD
S1130BD022E0DFF8D013695C491C01EBD1714FEAC4
S1130BE0C15B012200A900F006FC019E88B9002F18
S1130BF0A8F8006095D04946E8B200F03BF90190AE
S1130C00331BDFF894034FEA1B6200F00DF8002851
S1130C108BD000F01FFB002005B0BDE8F08FDFF89B
S1130C20940346800120F7E701A900EB430000F09C
S1130C30E2BB2DE9F041DFF88003DFF87853068842
S1130C40DFF8500304886878002882B012BF204679
S1130C5030462646012200A9FFF74EFCBDF80000ED
S1130C60DFF8348301280CBF4FF6FE70401EADF848
S1130C700000CF4807783846471E58B1BFB2B819AC
S1130C80001B012200F00FF80028F4D000F0E2FA73
S1130C90002006E0687880F0010068700020287069
S1130CA00120BDE8F68100A908EB400000F0A3BBD9
S1130CB02DE9FE4F0D46174604461E464FF0000927
S1130CC04FF001083946FFF79DFCBF4909880190A0
S1130CD08C420AD2B248205C7F2F08BF002787428B
S1130CE003DAB048205C864203D040F2FE5100F0A3
S1130CF093F8B04F787820B1B048B0F800A0A54878
S1130D0003E0AF48B0F800A0AB483978008849B98F
S1130D107988081AB14909888842B4BF432044201D
S1130D2000F098FA019801889F48205CF8B12046A9
S1130D3000F0A0F8012E08BF297803D0022E0CBFC2
S1130D4029882968814265D001980088401E00F0F6
S1130D5067F8A048265C7888AAF10101891B8142C2
S1130D6001DB002835D1387858BB452044E0029196
S1130D70CB4620E002980BEBDB7300EB630000F042
S1130D8032F90BEB05001BF80510407801EB00204D
S1130D90711E8B4580B205D1BDF80010C9B2C0B236
S1130DA0ADF80010BDF8001088420BF1020018BF26
S1130DB0C8465FFA80FBB345DCDBB8F1000FC3D053
S1130DC028E0BDF802100020FFF746FE10B34FF0F4
S1130DD0010978887349401C788080B2625C294696
S1130DE0FFF7A6FBB0B16B4C7B8824886A485B1E76
S1130DF01B1B00F01BF810B100F02CFA0AE0B9F14B
S1130E00000F02D0FFF715FF20B101997888088000
S1130E1030187880BDE8F78F0FF2D41000F0F6B8E0
S1130E2001220DF1020180B2FFF766BB01220DF130
S1130E30020100EB430000F0DEBA70B582B0044654
S1130E4000250026012200A9A0B2FFF755FBBDF83A
S1130E500000641C20B14FF6FF71884205D006E003
S1130E60B61C6D1CF6B2322EECDB68B276BDE843DC
S1130E7040B276BD38B50C46002100914949455C25
S1130E802A46214600A8FFF77CFB681C00EBD070C3
S1130E9004EB600080B2FFF7D0FF002848BFC043D6
S1130EA0009940B2401832BDF0B54749098804465C
S1130EB03E4883B0264630F816508C4202D23A4857
S1130EC0305C18B940F23971FFF7A6FF3548365C3B
S1130ED0701C00EBD07005EB6007B8B2FFF7ADFFF4
S1130EE019280FD2BFB2C0192A4F2B4B3F880021BB
S1130EF0ADF80410C01B012201A903EB400000F06F
S1130F007AFA60B129462046FFF7B4FF00903346D1
S1130F10401C00907F2200A92046FFF7C9FEF7BDC0
S1130F20F8B5244C20780027002830D119480588CA
S1130F30607800281ABF204806882E461C48077887
S1130F403846471E02281BDBFFB2B81900F04BF8E5
S1130F50BDF800000028F3D01A48008807FB0060A1
S1130F6000F03EF80020ADF80000BB190A485B1BF6
S1130F70012200A9FFF759FE48B100F06BF906E021
S1130F803046FFF723FBFFB20FB90120207038462B
S1130F90F2BD0000B8DD000000E00300F07A00209C
S1130FA028E1000020E1000018E10000B46A0020FC
S1130FB0B4DD0000DC7E0020BCDD0000BADD0000F2
S1130FC0BEDD0000B6DD0000C2DD000008E1000067
S1130FD0C4DD0000C8DD000064E10000C0DD0000E5
S1130FE080B2FFF7F3BA012200A980B2FFF784BAF6
S1130FF073696D2D656570726F6D2D696E746572A0
S11310006E616C2E6300000042DE704738B5044602
S11310100D4600F036FA00F055FA2B4622460FF240
S1131020B811022000F093FA29462046BDE8344066
S1131030EAE761482DE9F84F604D0168DFF880A1C7
S1131040DFF88081DFF880912E1D4FF420647165F4
S1131050016AB1655D490A68F26549683166416AA9
S11310607166816AB166C16AF166016B3167806B32
S1131070706796F8340040074CBFF76BB76B00F00D
S113108003FB0022F2648742014605F1900224BF6B
S1131090AAF12003BB42BB46316500921AD3B8695A
S11310A03064FA697264726DC2F30802062A15D1BB
S11310B0484513D3404511D200884DF64262904210
S11310C00CD1009A3068506040F20174009A706844
S11310D0906003E000223264726483463C4881429B
S11310E002D2014600E0091D0846504503D20A68B1
S11310F0B2F1CD3FF7D03749081AB064182105F191
S11311007C0000F0E5FA002003E0C0B205EB8002A9
S1131110D167D34523D25AF8041D4945F9D3414533
S1131120F7D2CA07F5D5002205EB8203DB6F8B42A9
S113113002D0521C062AF7DB062AEAD1020014BFA9
S1131140401E0520E1E7B16F002205EB8203521C2B
S1131150D3F88070DF67052AF7DB009A1160014637
S1131160481EC9B20029EED1706DC0F308000328EF
S113117008D0042809D005280AD006280BD00C284A
S11311800FD011E040F6012413E040F6022410E0F1
S113119040F603240DE0B4F5206F0AD140F6042490
S11311A007E040F6052404E018B1312838BF40F6C2
S11311B007242046BDE8F28F04ED00E00000002083
S11311C0E8610020B2DD0000B003000000E300E0AD
S11311D09C000020E86100200D0A5B4153534552F6
S11311E0543A25703A25645D0D0A000062F30F221B
S11311F062F31F42401810F0030308D0C91A1FD32A
S1131200DB0748BF00F8012D28BF20F8022D13008A
S113121030B414461546103928BF20E93C00FAD8EA
S1131220490728BF20E90C0048BF40F8042D890075
S113123028BF20F8022D48BF00F8012D30BC7047AC
S1131240C91818BF00F8012DCB0728BF00F8012DDD
S11312507047000070477047704770477047F8B593
S1131260304C31490622201D00F046FA00F079FA8C
S113127000F050FB04F62C21002001F0ECF900F002
S11312805AF804F608050FF2D006022200F057F8C7
S1131290207020B10A2200F052F800F04CF800212E
S11312A0284601F063FC00F046F804F206430622E7
S11312B0211D284601F025FB2070002802BF04F2FE
S11312C004477888062800F031F8207800B1FEE75A
S11312D0012200F034F800F02EF80021284601F035
S11312E045FC00F028F84FF4816021183B460622A3
S11312F0284601F06AFA2070002804BF38880628BE
S113130000F014F8207800B1FEE72118221891F9B2
S1131310041092F90824914200D0FEE7401C0628EC
S1131320F3DBFEE7806E0020A865002000D0FEE716
S1131330284601F005BC207000B1FEE77047314635
S1131340284601F09FB9704770477047704770474F
S11313507047704770470000746573742E74787416
S113136000000000DFF800F089630020DFF800F0DF
S11313701F630020DFF800F08563002038B50446C1
S11313800D4601F0A1FC012C02D1FFF7EBFF02E0B6
S11313902846FFF7EBFF18B101F0C1FC012032BD74
S11313A001F0BDFC002032BD10B5C20782B01CD4D0
S11313B002884FF6FF739A4218BF002915D184089A
S11313C0A4008007226847BF90B240EA0140100C95
S11313D041EA0040009001F077FC042200A9204675
S11313E0FFF7C8FF18B101F09AFC012016BD01F007
S11313F096FC002016BD70B504460D46164604E062
S113140001F08DFC241D2D1DB61EB6B1012E01D098
S1131410A00706D535F8021B2046FFF7C5FFA41C1C
S1131420761E022EF1D301F04FFC042229462046F9
S1131430FFF7A0FF0028E3D001E0002070BD01F019
S11314406EFC012070BD000010B584B00121184865
S113145001F0E1FD01220121052001F0E1FF0FF27D
S113146058011CC968461CC000208DF807000820DC
S11314708DF80800012002F044F8684602F058F89C
S11314801FBD02F048B8A52800D0704780B500F011
S113149007F820B1BDE80240002002F032B801BDD7
S11314A00448006810F0010018BF012070470000D4
S11314B0004302000080084001000000000000001A
S11314C00F000000EFF31180602181F31188704751
S11314D010B504460120032C88B009D168460FF2E8
S11314E0A001202200F008F96946032002F03AF92D
S11314F0C0B208B010BD02F076B980B502F07EF932
S1131500C0B202BD02F0A8B980B502F0CDF9C0B2F4
S113151002BD16A10CB480B502AA02F0D0F902BC37
S1131520C0B25DF80CFB0CB438B5044604AA02F052
S1131530C6F905460DA1204602F0D2F9E8B232BC44
S11315405DF80CFB80B502F049FAC0B202BD0CB4E0
S113155010B50A46014602AB054802F07EFA00B90E
S11315600124E0B210BC5DF80CFB00000D0A000081
S1131570C939000003280CBF002001207047000077
S113158000C8004000C2010001000010000000007B
S1131590000106010500000000000000000000003A
S11315A010B50446FFF78EFF200A00283B4808BF09
S11315B024024FF20F0104804180BFF35F8FBFF319
S11315C04F8F3748374A016801F4E06111430160E5
S11315D0BFF34F8FFEE780B5002000F009F830B963
S11315E0BDE80440BE210FF2D400FFF70FBD01BDDA
S11315F02DE9F0442C4C21680D1A15F01F0105D07B
S1131600002852BF6D1A681A00F120052748A5F179
S11316102006A84224BF2648864203D3EFF308805D
S1131620854201D300202DE0FFF74CFF824621487C
S1131630006810F0010718BF02F00BFB2068014698
S11316408D4206D2A84224BFCD2100F80119F9D257
S113165006E02038002201E000F8012B8842FBD389
S11316602560304602F0FCFAE22001E006F8010BA6
S1131670AE42FBD30FB102F0C9FA504602F004FBAC
S113168020682038BDE8F0840748006870470648A1
S113169000682038704708487047000000000020A8
S11316A00CED00E00400FA05D46500208858002001
S11316B0A00F002094ED00E0000000206D6963722B
S11316C06F2D696E7465726E616C2E63000000008C
S11316D0002202F0DDBA000062B38B0708D0521E6C
S11316E011F8013B00F8013B00F024808B07F6D190
S11316F0830740F0208000BF103A07D330B4B1E82C
S11317003810103AA0E83810F9D230BC530724BF7F
S1131710B1E80810A0E8081044BF51F8043B40F8B1
S1131720043BD20724BF31F8022B20F8022B44BF1C
S11317300B7803707047083A07D3B1E80810083AE9
S113174040F8043B40F804CBF7D25307E4E7000029
S1131750012100F01F029140504A400942F8201034
S1131760704730B587B003A80FF268114C4C4D4D4B
S11317701022FFF7C1FF68460021002200230EC09B
S113178002208DF806000121474801F044FC4FF681
S1131790FF70E0616A460021204602F0DAFA002078
S11317A08DF80E0003A9204602F08BFA3F4801F0A1
S11317B07CFC9DF80E1001228A40491C8DF80E1005
S11317C0B0FBF2F0C9B20B29686002D238498842F2
S11317D0E8D2384801F069FC37496A68B1FBF0F394
S11317E036480021E3FB0201354A002302F0E2FA05
S11317F0A86000202870E06820F01000E06002205B
S1131800FFF7A6FF2F490420086007B0002030BD71
S113181038B500F01BF804460D4605E04FF6E850D5
S113182000F02AF800F00CF800218D424FF6E95040
S1131830F4D88442F2D2A0B200F01EF8002032BDE7
S113184021484FF0FF3124184D41704715491B4A78
S113185049680023E0FB012310461946184A002377
S113186002F0A8BA19480168C90604D5102181609C
S113187001200C4908707047010081B00BD0144955
S11318800A6892B20B68ADF80030BDF800309B1ABC
S11318909BB28342F6D301B07047000080E200E0BF
S11318A000000140F86D0020005204004081040053
S11318B081841E005000020000B0710B20A10700BB
S11318C040420F0000E100E01802FFFF1000014059
S11318D0240001400100000000000000000000009E
S11318E000000000012202FA01F124239C4A58431B
S11318F010444161704710B59A4840684FF4FA713A
S113190001FB00F4FF2000F04CF8FF2801D0641E16
S1131910F8D110BD10B586B068460FF26021924C24
S11319201822FFF7E9FE0121904801F074FB012120
S11319308F4801F070FB8B493220486069468D481E
S1131940029001208DF80E0000208DF812008DF811
S11319501400204602F014FB4FF48070606540F2DE
S11319600B11606D084360650023606D20F0040076
S11319706065042200F011F801230222042100F022
S11319800DF801230422062100F008F800230422A4
S1131990052100F003F806B010BD0321012002F078
S11319A092BB70490A680AB1521E0A6001466E4829
S11319B002F03ABB704940200860FF20F1E780B58F
S11319C000F0BFF8FFF797FFFF2803D0FFF7F2FFFF
S11319D0002002BD012002BD0121FFE7634801F0A0
S11319E01ABBF8B55F4D06460C466868642101FBD6
S11319F000F700F060F8FF2802D17F1EF9D101E062
S1131A00FE2801D00020F2BD5748416802684368AF
S1131A101B091B0143F00D034360A71C036843F03B
S1131A20805303604FF44063C3602B68BB4226BFFE
S1131A301B1B9B1E00232B604FF6FF73C363C36302
S1131A4005692D06FCD5456A26F8025BA41EF6D16D
S1131A5003691B06FCD5436A416002600120F2BDA4
S1131A6070B504460D46FFF746FFFF284FF4007695
S1131A701DD12846FFF795FFFD2D1AD02078FFF7DA
S1131A8090FF6078FFF78DFFA078FFF78AFFE0787A
S1131A90FFF787FF241D361FF0D100F00CF800F08B
S1131AA00AF800F008F800F01F00052801D0002013
S1131AB070BD012070BDFF2073E770B50446200699
S1131AC00D460AD500213720FFF7F7FF064600F040
S1131AD038F8022E04F07F0431DAFFF76BFFFFF7CA
S1131AE06EFF08B9FF2070BD44F04000FFF759FFB6
S1131AF0280EFFF756FF2802000EFFF752FF2804B6
S1131B00000EFFF74EFFE8B2FFF74BFF0120250060
S1131B1008BF952002D0082C08BF8720FFF741FF9B
S1131B200C2C04BFFF20FFF73CFF0A24FFF7C3FF80
S1131B300646300601D5641EF8D100F002F830469E
S1131B4070BD06210120CDE680B50A4A00F004F8F4
S1131B5004493220486001BD0348002102F0CEB997
S1131B6000600040E87A002000C800400022040021
S1131B7000D20400801A0600346000400500000012
S1131B800000000040420F000501000000000000BA
S1131B900000000003E011F8013B00F8013B13468C
S1131BA05A1E9BB2002BF6D17047130003D00A468D
S1131BB01946FFF71BBB7047F8B504460D46266B64
S1131BC0AE4220D0207990B100F01FF8C0B9207146
S1131BD0216A606A0818864209D2E77804E0206A1C
S1131BE0861900F012F87F1EFFB2022FF7DA55B102
S1131BF0607801232A4604F1340102F0C0FA08B1E6
S1131C000120F2BD25630020F2BD60780123324635
S1131C1004F1340102F0E8BA70B504460021FFF77C
S1131C20CBFF050047D1207803283DD160790028F7
S1131C303AD00020206304F1340600F03EF84FF45B
S1131C4006702044552181760123AA21C1765221B0
S1131C50317071706121B1704121F1707221017094
S1131C604170412181706121C17021690171216933
S1131C700904090E41712169090C81712169090E58
S1131C80C171E1680172E1680904090E4172E168F9
S1131C90090C8172E168090EC1726269607831468B
S1131CA002F0A2FA0020607100226078002102F0A4
S1131CB0D9FA00B10125284670BD4FF40072002105
S1131CC0304672E7C269891E921E91422FBF0020DE
S1131CD08278C06A02FB01007047F8B50D46022DF8
S1131CE0044602D3E069854201D30120F2BD207885
S1131CF0012804D045D303282ED01DD341E0A8B237
S1131D0005EB500700F0BBF800283AD1C7F30800F0
S1131D1020447F1C90F8346000F0B1F888BBC7F30E
S1131D200800204490F8340046EA0026E8074CBF37
S1131D303009C6F30B00F2BD606A00EB152100F018
S1131D409CF8F0B96800C0F30800204434304178AE
S1131D50007840EA0120F2BD606A00EBD51100F082
S1131D608CF870B9A800C0F308002044343000F0A7
S1131D700BF84278007841EA0221084320F07040D1
S1131D80F2BD4FF0FF30F2BD8278C178120442EA0E
S1131D9001617047F8B50E46022E0446154602D37B
S1131DA0E069864201D30220F2BD2078012804D0E4
S1131DB05FD3032843D031D35BE0B0B206EB5007C6
S1131DC000F05DF8010055D1C7F30800204400F18C
S1131DD0340116F001061DBF087800F00F0040EA38
S1131DE00510284608707F1C01202071BFB2606A6C
S1131DF000EB572100F041F801003BD1C7F3080183
S1131E00214434310EB12A0906E00A782B0A02F083
S1131E10F00203F00F031A430A702BE0606A00EB30
S1131E20162100F02AF8010024D17100C1F3080141
S1131E30214401F8345F2D042A0E4A701AE0606AC6
S1131E4000EBD61100F019F8010013D1B100C1F371
S1131E50080121443431CA78120602F07042154355
S1131E602A04120E4A700D702A0C8A702A0ECA7047
S1131E7000E0022001212171F2BD20469CE6606A47
S1131E80BFB200EB5721204696E6F8B50E46022E67
S1131E9004460BD3E069864208D200253146204629
S1131EA0FFF71BFF070019D0012F01D1022515E010
S1131EB017F1010F01D1012510E0002200F010F804
S1131EC005000BD1206910F1010F03D0401C2061E3
S1131ED0012060713E46E0698642DFD32846F2BDA8
S1131EE03146204656E7F8B50E00044606D1E768A9
S1131EF017B1E06987420BD3012709E0FFF7EDFE34
S1131F00022801D20120F2BDE169884231D337466B
S1131F103D46E0696D1C854202D30225022F20D381
S1131F2029462046FFF7D9FEA0B96FF07042294632
S1131F30FFF7D7FF18B91EB12A46FFF7D1FF90B9B2
S1131F402069E56010F1010F12D0401E20610120CC
S1131F5060710DE010F1010F18BF012809D0BD42D6
S1131F60D7D10020F2BD01280CBF4FF0FF35012569
S1131F702846F2BD70B504460D46A168E5800129E6
S1131F8026D02068C269914222D219B90178032966
S1131F9001D1816A31B90021E1600289954217D2E9
S1131FA0806A1AE08078060100E0AD1BADB22068BB
S1131FB0B5420FDBFFF791FE014611F1010F01D18C
S1131FC0012070BD022903D32068C0698142ECD38B
S1131FD0022070BDE160FFF775FE00EB1510206173
S1131FE000F06FF870BDF8B504460F46E088451C54
S1131FF0ADB2002D1CBF206900281DD015F00F0FB5
S11320005BD1401C2061E168206819B900898542D0
S113201053DB11E08278521E12EA151F4DD1FFF7EF
S11320205CFE0646022E12D316F1010F39D0206849
S1132030C1698E423BD30FB90420F2BDE168FFF7BA
S113204052FF060001D10720F2BD012E01D102206A
S1132050F2BD16F1010F24D020680021FFF7ACFD7A
S1132060F8B920684FF4007200213430FFF79DFD69
S113207020683146FFF726FE21680863002704E044
S11320802068016B491C01637F1C20688278F9B2C7
S1132090914208D201210171002100F047F8002883
S11320A0EED00120F2BD016BFFB2C91B0163E660F3
S11320B031462068FFF706FE2061E58000F001F854
S11320C0F2BD6901206801F4F071084434306061A4
S11320D00020704770B504460021FFF74BFF050050
S11320E00FD100F022F805000BD160690078E528D3
S11320F018BF002807D001212046FFF774FF050010
S1132100EFD028000FD100F010F805000BD166695C
S11321102022FFF7D4FDA1690B223046FFF73AFDD8
S1132120216801200871284670BD2169206843E5B3
S11321302DE9F8430D462E6800E0761C31782F29EE
S113214018BF5C29F9D084690B2220212046FFF7AF
S11321502CFD31780022002008232E294FF000089E
S11321601DD104E003287CDA92B2A154521C315CE4
S1132170401C2E2980B2F5D02F2918BF5C2901D02C
S113218021296EDA301828602129B4BF24202020A8
S1132190E0727DE0082B64D108220B23B84680B29C
S11321A04FEA8807315C401C2129FFB280B203DB6F
S11321B02F2918BF5C2906D1301821292860B4BF03
S11321C0042100214BE02E29E4D092B294469C4590
S11321D047DA8029A8BF48F00308521CA1F18107FF
S11321E01F2F24BFA1F1E0071D2F14D216F800E021
S11321F0401CAEF140073F2F24BFAEF180077D2F76
S11322002FD25F1EBC452CDA04F80C1092B204F8ED
S113221002E0521CC3E70FF2800700E07F1C97F82E
S11322200090B9F1000F18BF8945F7D15FEA09079B
S113223017D1A1F141071A2F04D248F002075FFA1F
S113224087F809E0A1F161071A2F05D248F00107C8
S113225020395FFA87F8C9B204F80C109FE792B2EC
S11322600AB9062015E02078E52804BF052020706F
S1132270082B08BFB84608F00300012808BF41F046
S1132280100108F00C00042808BF41F00801E172B5
S11322900020BDE8F2830000222A2B2C3A3B3C3D6F
S11322A03E3F5B5D7C7F000073B5044608782F28B1
S11322B018BF5C2803D1481C0190002001E020686D
S11322C08069A06001980078202806DA00F0F2FC0A
S11322D00021616176BD00F0E1FC01A92046FFF711
S11322E027FF002837D100F0E5FC01001DD1FFF7DE
S11322F01CFF010019D161690A780AB9042014E0AD
S1132300CA7A12070DD4A3690B2200251646721E41
S1132310B6B22EB111F8015B13F8016BAD1BF5D009
S11323201DB100F019F80100E1D0A169C97A01F0EA
S1132330040250B104280ED1890604D50020A060FF
S1132340606142B9C9E732B904E022B96069C17A6F
S1132350C906C0D4052076BD0021204643E610B549
S113236004460A466078012304F1340101F007FFB2
S113237008B1032010BD04F232204178007840EA0D
S113238001204AF65521884201D0022010BD04F1F3
S11323906A00DFF8C017437882781B0243EA0242DE
S11323A003781A438A4208D0437F827F007F1B024E
S11323B043EA02421043884201D1002010BD0120AB
S11323C010BD2DE9F84316460268DFF88C471378F0
S11323D0303B9BB20A2B05DA55783A2D02D1921C78
S11323E0026000E023780BB10B2015E165680D60F5
S11323F00DB90C2010E1287848B1687801F0B9FED5
S1132400C10704D40EB140070DD4002004E100201C
S11324102870687001F09AFEC10748BF032003D4F6
S11324201EB1400701D50A20F6E000212846FFF737
S113243096FF0646012E4FF000080DD14FF4FB70B5
S11324402844017841B100F0E9F840EA0108414626
S11324502846FFF784FF0646032E08BF0120E3D079
S1132460002E1ED105F13407387BF97A41EA0020A9
S1132470B0F5007F15D1F87DB97D51EA002105F151
S1132480540008D18279C179FFF780FC427941EA8E
S113249002210279114329623A7CEA70012A18BFA9
S11324A0022A67D151437A7BAA70002A62D0531E54
S11324B01A425FD1BA7C7B7C43EA02220F231A4280
S11324C02A8157D13B7DFE7C56EA032E0AD18678B9
S11324D0C378360446EA0363467843EA062306785B
S11324E046EA030EFB7BBE7B56EA032342D0CE189A
S11324F006EB121CE6453DD3AE78AEEB0C0EBEFBEC
S1132500F6FEBEF1000F35D0012640F6F679CE4531
S113251028BF02264FF6F679CE4528BF03260EF1D2
S1132520020EC444C5F81CE0C5F82CC04344032E75
S11325306B620CD1F2B9827BC17BFFF727FC427B33
S113254041EA0221027B1143EA6992000BE08AB15D
S1132550EA691944022E0FBF520002EB420302F053
S1132560010202EB5302A96202F2FF12296AB1EBE3
S1132570522F01D20D204FE04FF0FF31296100218D
S1132580032EE9603FD169710123417C007C40EA5C
S1132590012000EB08026A613946687801F0EFFD1A
S11325A0002830D14FF406702844C17E827E42EA6E
S11325B001214AF65522914225D1BA78F978FFF7DC
S11325C0E5FB7A7841EA02213A781143DFF88C2559
S11325D0914218D1FFF7D8FB427841EA02210278F0
S11325E01143DFF87C2591420DD1827AC17AFFF73D
S11325F0CDFB427A41EA0221027A1143E96000F0FC
S11326000DF8084328612E706088401C6080E880C3
S1132610002028632871A861BDE8F2838279C1791A
S1132620120442EA01614279007941EA02217047C9
S113263080B500281CBF0278002A02D0C2888A42D2
S113264001D0092002BD407801F093FDC0074CBFC2
S11326500320002002BD38B50C4608B10B2032BD62
S1132660DFF8F454686808B10021017014B1002047
S1132670207004E000220821507801F0F3FD6C6022
S1132680002032BD2DE9F24304468AB000202060C8
S113269002F01F0505F0FE0200F064FA060007A828
S11326A0069004D10A996846FFF7FEFD0646059F89
S11326B0300004BF002F06261C20054271D03000D4
S11326C067D0042E03D16846FFF704FD0646059F34
S11326D0300045F0080533D1280737D502F00BF850
S11326E0B8730104090EF973010C000E787439747F
S11326F00020F87238777877B877F877397D787D65
S113270000F05CF841EA00480020B876F8763875A5
S1132710787501200099B8F1000F087112D0009863
S1132720D0F830904146FFF7B0FB060008D100997D
S1132730A8F10100C86049460098FFF73DFA064633
S1132740300022D1280748BF45F020050098006BCF
S1132750E0612762A571787D397D00F02FF841EAA8
S113276000402061B97FF87F090441EA0060797F65
S113277040EA0120397F0843E0600020A060A061A6
S1132780009820600098C088A08030460BB0BDE857
S1132790F083F87A112108420ED168079CD50826E7
S11327A0F3E73000CCD1F87AC10648BF0426ECD454
S11327B0A907C7D5C007C5D50726E6E7BA7E41EA0B
S11327C00020F97E42EA012170472DE9F04E0646C9
S11327D09B4600208946ABF800001446B188306857
S11327E0FFF726FF01004FD1B07901064BD4C00793
S11327F058BF072048D5F068B168401AA0421FD2DC
S113280004461DE0C6F818A0B068C0F30801C1F57D
S11328100075ADB2C0F30800AC423044B8BF2546E1
S113282000F124012A464846FFF7B4F9B068281895
S1132830B060A944BBF800002818ABF80000641B82
S1132840A0B200285BD0B168C805A4B2DCD130685E
S113285083785B1E03EA5125EDB25DB900290EBFF2
S113286030697169FFF739FA022808D310F1010FB2
S113287043D0706171693068FFF724FA28B9B079E0
S113288040F08000B071022039E0670A05EB000ACD
S113289020D03068817840787A199142BCBF4F1BB0
S11328A0BFB2FBB25246494601F069FC28BBB0797D
S11328B040060CD5B069A0EB0A00B84207D24FF429
S11328C0007206F1240109EB4020FFF763F97D0251
S11328D0ADB2ABE7B269524594D0B079400605D5A4
S11328E0306800F0D6F840B900F0C9F80123306828
S11328F0407800F0C9F8002884D000F0BAF8BDE8A8
S1132900F08E2DE9F04D0646984600208B46A8F837
S113291000001746B1883068FFF78AFE010017D11E
S1132920B079010601D5022012E0800758BF0720C4
S11329300ED5F068391881422DD2F068B16888420A
S113294038BF0846F060B07940F02000B071002034
S1132950BDE8F08DC6F818A0B068C0F30801C1F551
S11329600074A4B2A742C0F30800B8BF3C46304488
S1132970224659462430FFF70DF9B07940F0400063
S1132980B071A344B0682018B0603F1BB8F80000D1
S11329902018A8F80000B8B20028CED0B168C80545
S11329A0BFB2D9D1306883785B1E03EA5124E4B204
S11329B09CB931B9316941B9FFF795FA01463161E2
S11329C003E07169FFF78FFA01460029B5D00129A8
S11329D013D011F1010F49D07161B079400607D5C8
S11329E03068B26900F055F800283FD100F047F88C
S11329F071693068FFF766F920B9B07940F080005A
S1132A00B07190E77D0A04EB000A1FD0306881782A
S1132A1040782A199142BCBF0D1BADB2EBB25246AD
S1132A20594601F0E1FB08BBB069A0EB0A00A842DB
S1132A3009D20BEB40214FF4007206F12400FFF79A
S1132A40A9F800F01CF86C02A4B29AE7B0695045EA
S1132A500AD0B068F1688842BFF47CAF306840782F
S1132A60012300F011F800283FF474AF00F001F8DE
S1132A706EE7B07940F08000B07101207047B07902
S1132A8000F0BF00B0717047524606F1240101F016
S1132A9076BB4078012306F1240101F0A5BB38B5CB
S1132AA00446A1882068FFF7C3FD010047D1A1793E
S1132AB08A0644D548060AD52068A26900F0E8F8D9
S1132AC008B1012032BDA07900F0BF00A071E16916
S1132AD0FFF72CFB010032D1256AE87A40F0200090
S1132AE0E872E0682877E0680004000E6877E06820
S1132AF0000CA877E068000EE8772069A8762069C2
S1132B000004000EE8762069000C28752069000E88
S1132B10687501F0F0FD0104A875090EE975010C52
S1132B20000E68762976A07900F0DF00A0710120FC
S1132B30216808712068BDE83240FFF76DB832BDE6
S1132B4010B50446FFF7ABFF010004BF002121606C
S1132B5010BD000046415400E07A00205252614109
S1132B607272416169460AA8FFF72BBC2DE9F04156
S1132B7000F0A4F85FEA000840F08780A07901061D
S1132B8055D4E168A94202D2800758BF0D46A16816
S1132B900027002DA7604ED020688278560271B1BC
S1132BA0491E6B1EB1FBF6F2B3FBF6F3934206D358
S1132BB0701E21EA00006169A0602D1A0BE02169F2
S1132BC041B9FFF790F9014601292CD011F1010F09
S1132BD04BD02161616189B92DE0FFF77EF8014690
S1132BE011F1010F41D002291DD32068C06981422F
S1132BF019D2A06861613018A060AD1BAE4208D242
S1132C00A27920689207E8D5FFF76DF90100E7D1B2
S1132C103546A0682818A060E8050CD02068FFF7A6
S1132C2051F8070005D1A07940F08000A07102207E
S1132C302CE000EB5527A068C0051CBFA269974291
S1132C401AD0A079400607D5206800F021F860B9B1
S1132C50A07900F0BF00A0710123206840783A46B3
S1132C6004F1240101F08BFA28B1A07940F080002E
S1132C70A07101200AE0A761A068E168814204D242
S1132C80E060A07940F02000A0714046BDE8F081EA
S1132C904078012304F1240101F0A6BA417D027DAC
S1132CA042EA0121C27E807E40EA022040EA0140DD
S1132CB0A060704700212046FFF75CB904460D462A
S1132CC0A1882068B4E4000010B5194C41F67130B5
S1132CD06063206840084000206001F043FE4FF428
S1132CE0602000F0E2F9134A13499042A26C04D325
S1132CF011400B2200F009F805E01140372200F0E2
S1132D0004F840F48030A06410BD50430A22B0FBA4
S1132D10F2F00A4AB0FBF2F0401C08437047044842
S1132D2001684908490001600021416370470000BF
S1132D3008000C40C1CF6A00C0FFFEFF40420F00F4
S1132D40890001EB401000F1844002607047890063
S1132D5001EB401000F1844000687047DFF81C0765
S1132D60006810F4E06018D0B0F5807F12D0B0F5A0
S1132D70007F0CD0B0F5407F06D0B0F5C06F12D004
S1132D80B0F5E06F0CD011E0DFF8F4067047DFF81F
S1132D90F4067047DFF8F0067047DFF8F006704776
S1132DA0DFF8EC067047DFF8EC0670470020704748
S1132DB010B5DFF8E4168A6B02B1012241F67133D3
S1132DC08B630B6803F00703012B01D91B1F01D18F
S1132DD0002300E00123DFF8C446A04204D3002B03
S1132DE00CBF042005200FE0DFF8B4462018DFF8FC
S1132DF0B446A04204D2002B0CBF0120032003E000
S1132E00002B14BF022000200B68DB0840EAC3003B
S1132E100860D2B20AB10020886310BD38B50546F7
S1132E20002400F0CFF9DFF88036DFF880169D42E9
S1132E3007D0DFF87C369D4204BF886AC0F3810066
S1132E4002E0886A00F00300032829D8DFE800F0D4
S1132E501602050801F0E1FD21E001F0E5FD1EE0A8
S1132E604868C00502D40868400003D501F07AFD23
S1132E70840815E001F076FD440811E0DFF8280627
S1132E80854202D1886A102105E0DFF824068542D4
S1132E9006D1886A1421C84002D001F0C2FD04465C
S1132EA0204632BDDFF80C164A68D20702D40A68FD
S1132EB00242FCD170470E21DFF8FC0547E7000011
S1132EC070B50D46011101F00F010129DFF800462C
S1132ED0DFF8D86508D0042912D0052917D00729AE
S1132EE037D0082963D070BD01F04EFDFFF760FFB5
S1132EF0306820F4E030691E40EA8130306027E019
S1132F00B5FA85F0616800F07AF8606070BD01F090
S1132F103BFDFFF74DFF112000F0C7F8B0FBF5F0C3
S1132F20DFF8B015884206D200221E213046FFF792
S1132F3007FF002202E000F068FA0122082120467F
S1132F40FFF7FEFEB5FA85F0216800F058F820601E
S1132F5060E2DFF86815884208D0DFF8641588421B
S1132F6010D0DFF86015884218D070BD0420FFF738
S1132F7099FF00F04BF821F0F001C0F11F0041EA85
S1132F80001012E00420FFF78DFF00F03FF821F459
S1132F907061C0F11F0041EA002006E00420FFF741
S1132FA081FF00F033F800F024F8606670BDDFF8AC
S1132FB01815884204D0DFF8141588420AD070BD71
S1132FC04020FFF76FFFB5FA85F0E16EC0B200F064
S1132FD010F80CE04020FFF765FFB5FA85F0E16ECC
S1132FE0C0B221F03001C0F11F0041EA0010E066D8
S1132FF070BD8908C0F11F0040EA81007047C0B26B
S11330000909C0F11F0040EA01107047B5FA85F0C4
S1133010616EC0B270472DE9F041064630120025BA
S113302000F00F0001288846DFF8A4742DD0022890
S11330302DD0032806D006282CD007282ED00A2805
S113304030D020E0DFF8900400F02FF8DFF884148B
S1133050884207F13C040AD301221E21DFF84C0404
S1133060FFF76EFE012208213846FFF769FEC6F31A
S1133070043615B12846FFF715FF4246314620466F
S1133080BDE8F0415CE6BDE8F0813C1DEFE707F1E7
S11330904004ECE707F154040125E8E707F15C0478
S11330A01025E4E707F17404E1E710B5024612F4D1
S11330B07812DFF8F403DFF8F813DFF8F0435AD09E
S11330C0B2F5003F27D0B2F5802F1ED0B2F5402FC5
S11330D049D0B2F5602F53D0B2F5801F1FD0B2F59E
S11330E0901F22D0B2F5A01F2ED0B2F5B01F32D05F
S11330F0B2F5C01F25D0B2F5D01F21D0B2F5001F04
S113310041D0B2F5201F17D053E001F03FFC00F08E
S113311052F8A1680DE0BDE8104001F023BCFFF7B0
S11331207DFEA16EC1F303111BE0FFF777FEA16ED4
S1133130090A01F00F0114E0FFF770FEA16E07E029
S11331400846BDE8104069E60846FFF767FE216FB0
S113315001F0030105E00846FFF760FE216FC1F3AB
S11331600111C84010BDDFF8740300F02BF80728E4
S113317006D008281DD101F009FC00F01CF810BD90
S1133180BDE81040EAE5DFF8580300F01BF8022818
S11331900BD0032805D008280BD1BDE8104001F05E
S11331A0F5BBBDE8104001F038BCBDE8104001F0AB
S11331B03BBC002010BD2168C1F38231491CB0FB27
S11331C0F1F070470146012001F00F010129DFF8F9
S11331D0DC2208D0022917D0032921D006292FD0B8
S11331E0072935D047E0D06A00F47050B0F5006F7D
S11331F006D0B0F5805F3CD0B0F5005F37D001E079
S11332000420704705207047916A01F003010129E9
S11332102FD002D303290CD029D3916AC9030CE01F
S1133220916A01F00C01042923D008291FD00C292C
S113323001D106207047916AC9021DD50920704743
S11332401168072001F08051B1F1805F14D10CE0C6
S1133250D16A01F46031B1F5004F06D0B1F5803F79
S113326005D0B1F5003F04D0704708207047022014
S1133270704703207047002070472DE9F84F00F095
S11332800F070324012FA2464FF00009DFF8405234
S1133290DFF84082DFF84CB2DFF8106209D0022F69
S11332A018BF032F42D0062F77D0072F00F083805A
S11332B01BE0022906D0032919D004291AD00529B4
S11332C032D012E00424CA4601220121504600F003
S11332D0A7F801F059FBFFF76BFD2C6201F079FCB4
S11332E001F040FBBDE8F24F62E5BDE8F18F4FF01D
S11332F0010AE9E701F088FB0224404530684FF0F9
S1133300020A0BD340F0804040F060003060DBF8EC
S11333100000C006D8D500F073F8D5E720F06000AF
S113332040F020003060CFE70124CDE7012908D028
S1133330022911D0032913D0062915D0092921D037
S1133340D3E70024022F686A20D16749084020434C
S113335040EA09406862C8E700F04EF80224F1E749
S113336000F046F80124EDE7012204215846FFF756
S1133370E7FC01F0F7FA4045E4D300F046F800F02A
S11333803FF8DFE700244FF00109DBE75749084025
S113339040EA840040EA0950DCE7072902D0082902
S11333A005D0A2E7306820F0805030609DE7306897
S11333B040F08050F9E7022904D003290AD00829F3
S11333C010D092E700F018F840202862A86AC003E1
S11333D0FCD58AE700F00CF860202862A86A800314
S11333E0FCD582E720202862A86A0004FCD57CE78B
S11333F001220121012013E00122012100200FE01C
S1133400012208212846FFF79BBC01221E213046D9
S1133410FFF796BC01F0A6FABDE87040FFF7C8BC00
S1133420052800D9704738B5DFE800F01C181003F0
S113343014270120022301242D4DC9B12860C2B1F3
S11334402146FFF739FD0028FAD012E004200823B2
S11334500324F1E7102020230524EDE740208023F6
S11334600724E9E74FF480704FF400730924E3E77D
S11334702B60BDE8314001F0ACBB31BD14800C4081
S113348040420F00C0CF6A00C0D8A700809FD5007B
S1133490406F4001003FAB0104000C400148E801CB
S11334A0FFDB0BFF0024F4000200180000800C4036
S11334B003001A0050800C402C800C407016100041
S11334C0702612007006280080071400801716006A
S11334D004800C4001366E015000020006000C000E
S11334E00723200040800C40FCFFFEFFF3FFEFFFAA
S11334F020800C40890001EB401000F18440026000
S113350070470100264B02D19968C907FCD40246D2
S113351000211846EEE722480168C90707D58168EB
S1133520890704D48168C907FCD40121416070472C
S113353010B5017843780A460BB142F00202837851
S11335400BB142F00402C3780BB142F008020379D4
S11335500BB142F0200243790BB142F04002047AED
S1133560C379240244EA03331A430D4B9C68E407ED
S1133570FCD41A60807950B100291CBFBDE810400A
S113358000F006B8BDE8104001220421C1E710BDD7
S113359003488168C907FCD401220421AAE700007A
S11335A000800840012100F01F029140DFF844240C
S11335B0400942F82010704772B6DFF83C040168F5
S11335C011F1010F1CBF491C016000687047DFF84E
S11335D02814086818B1401E086000D162B670470C
S11335E080B5DFF81804016829B10168DFF81024F8
S11335F01160002101601220FFF7D4FFDFF80414EA
S11336004FF480200860DFF80004016841F00401F1
S1133610016001BD80B5DFF8F40304210160416855
S113362021F0040141601220FFF7BCFFDFF8E01332
S11336304FF480200860DFF8C803006810B1DFF899
S1133640BC13086001BDDFF8CC2352F820004268A7
S113365092884089401A8242B4BF012000207047FA
S11336603EB50446012C1CBF022C032C15D1DFF8F7
S1133670A453FFF7A1FF55F82400C06801AB6A46C4
S113368002A901F0F4FD55F82400028900990068AC
S113369089B200F003F8FFF79AFF37BD70B504460E
S11336A00D461646FFF788FFE088A8420CD2218811
S11336B0091A691891FBF6F206FB12112180A18800
S11336C06918081AA080E580BDE870407FE72DE9FD
S11336D0F843044615461E460027DFF83C83DFF80E
S11336E0349359F82700C168A14210D102890068B7
S11336F0B1B2FFF7D3FF59F8270002680021D18047
S113370043460189C0684A08294601F009FE7F1C26
S1133710042FE6DBBDE8F1832DE9F84380461D461E
S11337200026DFF8F09259F82600C068404514D10D
S1133730FFF742FFF7B259F8270041684A884389E6
S1133740ACB2A21892FBF3FC03FB1C224A80406833
S11337508188091B8180FFF73AFF761C042EE2DB87
S1133760BDE8F18370B5032821D1DFF8A82202EB6C
S1133770800401282268236A136018BF0328236980
S113378053600FF2A42333F8103013810FF2902307
S113379033F81030538124D1E06CD060206B886101
S11337A0206CC861E06C01F079FC10B170BD01209F
S11337B070BD2068DFF86052018900684A0800F192
S11337C00801E06C2B4601F0ABFD216808680E8906
S11337D000EB560000F10801E06C2B46720801F082
S11337E09FFD002070BD10B50446FFF739FFDFF8D8
S11337F0240250F824000068808810BD70B5064685
S1133800032E0C460AD1FFF72BFFDFF8085255F8B8
S113381026000068808818B9262070BD012070BD7C
S1133820FFF7CAFE55F82600006841880844007A6C
S1133830207055F8260001684A880389521C92FBBF
S1133840F3F403FB14224A8000688188491E8180B6
S1133850FFF7BDFE002070BD38B504006D4D06D1E4
S113386028684068808800B10120C0B232BD012CB4
S11338701CBF022C032C15D155F8240041688988FB
S113388071B9C06801F00AFD50B955F82400C06848
S113389000680069400900F0010080F0010032BDB9
S11338A0012032BD002032BD02B5032802D101221D
S11338B0694601E0012002BD00F01EF802BD10B50A
S11338C003280BD113460A4603210FF22D0000F002
S11338D0C4F8002400B90124204610BD012010BD05
S11338E00CB480B5032803D102AAFFF7E8FF00E077
S11338F0012002BC5DF80CFB2DE9FC470328894636
S113390018BF012047D1434CDFF810A1032654F817
S1133910260000F045F80025002729E000210320B7
S1133920FFF791FE0028F9D0FFF746FE54F8260071
S11339304068028819F8011B10447F1C017254F876
S1133940260000F033F854F826004068008878B95F
S1133950FFB23D4654F82600C06853462A4600F09C
S11339601CF80028F6D154F82600406800F1080835
S11339709DF80010F8B28842D0D38D420ADA9DF83F
S11339800000421B54F82600C068534600F005F8B6
S11339900028F4D10020BDE8F687414601F0ECBCD4
S11339A040680188084400F10808704741680A88A3
S11339B04389521C92FBF3FC03FB1C220A804068DF
S11339C08188491C818002E6032805D1114B53F8F4
S11339D02000C06801F074BC0120704710B5044693
S11339E0032C01D0012010BD2046FFF735FF00282D
S11339F0FAD110BD80E200E0786D00200C300C405C
S1133A00E06C002000E100E04CC8004048C80040E1
S1133A1080E100E0D8640020CF36000019370000B0
S1133A208000800080008000400040004000400092
S1133A3070B51346104402E0A4192C705B1EDCB26E
S1133A404CB101F00F060909451E0A2E2846B4BFE1
S1133A5030243724F0E7104470BD2DE9F04F804640
S1133A6093B001A8894616469B4601AD00248DF803
S1133A7000001BE05BF804AB04224FEA1A4128461D
S1133A80FFF7D6FF04221FFA8AF1FFF7D1FF05469C
S1133A9011A8854209D39DF800002F1A00F096F86A
S1133AA0002831D13C19E4B201AD761C9DF8000028
S1133AB02F1A3078010007D0252802D005F8010B11
S1133AC0E6E716F8010F002876D02528F6D032282C
S1133AD018BF34285FD0582857D063280CD06428E6
S1133AE018BF6C2825D0702818BF732807D07528F4
S1133AF01FD0782849D0CBE75BF8040BDEE75BF8EE
S1133B0004AB00F063F800285CD13C19E4B201ADC9
S1133B10002700E07F1CFFB21AF807000028F9D143
S1133B203A4651464846C04700284BD13C19E4B2B6
S1133B30AEE75BF8040B0021002803D52D21297082
S1133B40404201214FF0000C00220FF2880757F881
S1133B502270002301E0C01B5B1CB842FBD2DFB221
S1133B60002F08BFBCF1000F05D0C9B230336B542D
S1133B70491C4FF0010C521C092AE6DBC9B2303053
S1133B806854481CC0B22D1882E75BF8041B02225B
S1133B90C9B2284679E716F8010F78281CBF5828BF
S1133BA0761EF1D116F8010C32287FF463AF5BF86E
S1133BB0040B81B20422ECE700F008F810B93819BC
S1133BC0C0B200E0002013B0BDE8F08FFAB201A942
S1133BD04846404700CA9A3B00E1F50580969800A4
S1133BE040420F00A086010010270000E8030000F7
S1133BF0640000000A0000000D48016821F48031CF
S1133C000160016F490849000167704710B5FDF76D
S1133C1059FC0446FFF7F0FF064800F00DF804488D
S1133C2005210167016841F480310160204627E0E5
S1133C3024ED00E03865002038B50446052520460B
S1133C4001F0FEFB10346D1EF9D1BDE8314001F0E6
S1133C501FBC80B5FFF7D0FFBDE8014001F018BCE0
S1133C6010B50446FDF72EFC6209014902E000BFCD
S1133C7078650020520142F014024A6000220A7062
S1133C80BDE8104000F000B880F3118870470000D0
S1133C9000B500BF130096469446103928BFA0E82B
S1133CA00C50FAD85FEA417C28BF0CC048BF40F8EA
S1133CB0042BC90728BF20F8022B48BF00F8012BAA
S1133CC000BD2DE9F0430A78130004BF02234360CA
S1133CD0002343624B7803B140234C7A04B180241F
S1133CE08D7A05B12025CE7A06B1102691F804907C
S1133CF091F805C091F80CE0CF7891F80280B9F101
S1133D00000F18BF4FF40059BCF1000F18BF4FF05B
S1133D10805CBEF1000F18BF4FF0080E3F0447EA65
S1133D2008688F7948EA8728CF79097A48EA07270B
S1133D303943194321432943314349EA01014CEAF8
S1133D4001014EEA010101600AB101214160BDE8AF
S1133D50F083F0B5D3790BB14FF40013147A0CB19E
S1133D604FF48014557A05B11025967A06B10426CD
S1133D7092F801C017784FEA0C6C4CEA876792F806
S1133D8002C047EA0C4792F803C047EA0C3792F89E
S1133D9004C047EA8C2792F805C0927947EA0C27B9
S1133DA03A431A4322432A4300EB0110324302638D
S1133DB0F0BD00001B4213D1094236D12AB184461A
S1133DC0B0FBF2F002FB10C2704701F069BBFCD3F8
S1133DD00022002370470B000200002100207047DE
S1133DE0904271EB030CF6D370B5B1FA81F4B3FAD7
S1133DF083F52C1BA340C4F1200532FA05F63343A6
S1133E00A2405FF00046E64002E05B085FEA32024F
S1133E10841A71EB030524BF204629467641F4D366
S1133E2002000B003000002170BD012ACFD970B50B
S1133E30140C20D0B1FA81F4B2FA82F5C4F1200452
S1133E406419B4F12006D6D3B2405FF00044F440C4
S1133E50002502E052085FEA3303C61A71EB020E32
S1133E6024BF3046714664416D41F3D302000B0018
S1133E702000290070BD0C46B1FBF2F102FB114594
S1133E802D0445EA1045B5FBF2F402FB145580B24B
S1133E9040EA0545B5FBF2F002FB105240EA04404B
S1133EA070BD000070B50446080015461E4604BFE8
S1133EB05848FFF7FAF8310006D0202E18D0402ECB
S1133EC018D0602E18D070BD1021226822F0600234
S1133ED0226069432268324322604A0802EB800070
S1133EE0B0FBF1F0001F4C4901EA8010606170BD25
S1133EF00821EAE70621E8E70421E6E770B504466D
S1133F00154619B94348FFF7D0F801464A00002383
S1133F10681E0021101859412A46FFF74BFF6669B5
S1133F203E49800140386FF3941608403043606185
S1133F3070BDCA43520002F00A02C260C1607047F9
S1133F4038B504460D4600F049F8A87C18B120683D
S1133F5040F080402060E87C18B1287D40F01000DB
S1133F60A065687BB5F910100843B5F90E10084335
S1133F7060602B7BAA6869682046FFF793FF2AE0FC
S1133F8038B504460D4600F029F8A87B08B14FF473
S1133F9080602168B5F91020104340F00100084307
S1133FA02060287D08B14FF000502168084320604C
S1133FB0A87C18B1E87C40F01000A065287B40F490
S1133FC080506060AA6869682046FFF797FF687BA5
S1133FD008B11020E0602878E06031BD40F6AA61A5
S1133FE0C1600021016041F205014160002181604E
S1133FF04161C16441F6F9718164002141658165C3
S11340000749884219BF074988420021C1657047A2
S11340100000000040810400C0FF1F0000FF1F00DB
S113402000C4004000C8004002695206FCD5416348
S113403001698906FCD5C069C0B27047890001EBEB
S1134040401000F1844002607047012202FA01F13D
S11340502423394A5843104441617047012202FA2B
S113406001F12423344A5843104401617047F8B5E0
S11340701D460F230C46082C304905D2A6000F68B4
S113408000F01BF8086006E0A4F10806B6004F68CB
S113409000F013F8486021462948FFF7CFFF2A466D
S11340A021462848FFF7CAFF27480121A140C160E3
S11340B02146069ABDE8F840C0E7B34027EA030367
S11340C0B04018437047F8B50446164630000D4614
S11340D01F4607D0002F204602D0FFF7BFFF01E0A4
S11340E0FFF7B3FF24210F2213486143082D08442E
S11340F009D2AB0041689A4021EA020206FA03F1B0
S1134100114341600AE0A5F108039B0081689A40CD
S113411021EA020206FA03F11143816056B9002F25
S1134120294620461CBFBDE8F440FFF797BFBDE811
S1134130F4408AE7F1BD00000060004000610040E7
S1134140086100400C6100401061004080B508B176
S1134150012002BD994800788107FAD4FDF73CFCA0
S1134160FDF7F2FC964940200860FF20FDF719FC9A
S1134170FBE7002812BF012090480078704738B54B
S11341800C461D4608B9280001D1042032BD8B48D5
S11341900078C00701D5032032BD5102012D08D19A
S11341A01120FDF78AFCB0B900F019F898B1002588
S11341B011E01220FDF781FC68B900F010F830B16D
S11341C04FF4007004446D1EE8B20028F5D10021BC
S11341D00C20FDF772FCFDF7EDFBE8B23EE04FF476
S11341E000712046FDF7FDBB38B50D4611461C464F
S11341F008B9200001D1042032BD70480078C207FC
S113420001D5032032BD400701D5022032BD490249
S1134210012C0AD11820FDF750FCE0B9FE212846F4
S1134220FDF71EFCB8B1002415E01920FDF745FC8C
S113423088B9FC212846FDF713FC30B14FF4007017
S11342400544641EE0B20028F3D1FD210020FDF7EF
S113425007FC00B90124FDF7ADFBE0B200B1012079
S113426032BD00007FB5144608B10420A3E05348D2
S11342700278D20748BF0320F8D401260E2900F2A1
S11342809680DFE801F00811474B949494940F94BE
S1134290676A6D778500FDF792FB00280FD0FDF764
S11342A089FB82E0067080E000210920FDF705FC0F
S11342B000287DD110216846FDF793FB002877D0B4
S11342C09DF800209DF808109DF809009209012A24
S11342D004D100EB0120401C800239E09DF8072046
S11342E09DF80A30890901EB82019DF806204000FF
S11342F002F0030200F0060001EB82219DF8052084
S113430002F00F0202EBD3128018491CC01F01FAFD
S113431000F01DE04FF40070208046E000210920E9
S1134320FDF7CBFB002843D110216846FDF759FB6C
S113433000283DD09DF80B009DF80A10C20002F041
S11343401802C1F3840102EB5010491C401C48437D
S113435020602AE00020207027E00021092001E0ED
S113436000210A20FDF7A9FB10BB10212046FDF710
S113437038FB19E000213A20FDF79FFBC0B9002566
S1134380FF20FDF70EFB60556D1C042DF8DB0CE0DF
S113439000218D20FDF791FB50B9FF20FDF701FBB3
S11343A040212046FDF75CFB10B1002600E0042606
S11343B0FDF700FB304604B070BD0000F765002037
S11343C034600040012100F01F029140DFF84425D1
S11343D0400942F82010704772B6DFF83C050168C6
S11343E011F1010F1CBF491C016000687047DFF820
S11343F02815086818B1401E086000D162B67047DD
S113440070B50546FFF7E8FF002600242820DFF8F2
S11344100C1500FB06F20A44927F12B1761C042E9E
S1134420F7DB042E08BFDFF8F84408D02DB1704341
S11344300844012282772E6001E0DFF8E844FFF7A8
S1134440D6FF204670BD38B5DFF8E044A0780028D8
S11344503DD10120A0700121DFF8D404DFF8D45449
S1134460FEF7D9FD0221DFF8D004FEF706FF08218C
S11344702846FEF725FD01212846FEF7CCFD0FF264
S1134480E040DFF8B85401F021F86868C008C000C3
S113449068600720286001F029F81E20FFF792FFCA
S11344A0DFF89C144FF080400860A021686840F059
S11344B001006860DFF86404FDF70AF90020207049
S11344C06070A060E0602061032001F01EF800200D
S11344D032BD2DE9F04F0646042E83B08B4690463C
S11344E099464FF0000A28BFDFF858040CD2FFF7B2
S11344F073FF2821DFF8240471434518A87F20B9ED
S1134500FFF775FFDFF8400496E00C9CB8F1000F4C
S113451006D1B9F1000F02D021463046C84788E0E1
S11345204FEAC830DFF824744FEA584110F57A6036
S113453041F100013E6800F081F8C5F81890C5E922
S11345400201BBF1010F10D14FF47A7202FB08F2A1
S1134550CDE9002A0246F420A0FB0289DDE900012E
S1134560A0EB080028617A206861D5E90201401CAB
S113457061F1FF31C5E900010120287785F81FB0FA
S11345802C62DFF8A8432078002852D1A06810F1EB
S1134590010F02D0A068401CA0606078B8B926F072
S11345A07F40606002207861D5E900015145DFF861
S11345B0782301D8904200D31046801900F0CAF93C
S11345C0B86940F00200B861012060702CE0A06876
S11345D0012829D185F81CA0B86920F00200B8612F
S11345E06FF07F416068301A20F07F40884208BF36
S11345F0002000F0F5F800F03DF9BAF1000F04BF17
S113460001202877304600F048F93E686068301A87
S113461000F0E1F861780AF1010A29B16168401AF1
S113462020F07F404045D7D3A06810B1A068401E59
S1134630A060FFF7DCFE0020BDE8FE8F4FF4FA52C5
S11346400023FFF7B7BB10B50446042C00D312E0D7
S1134650FFF7C2FE00F009F821B9FFF7C8FEDFF842
S1134660E80210BD0021017707E02821AB4861432F
S11346700844817F7047B34810BDFFF7B8FE00209F
S113468010BD70B50446042C0D4601D3AD4870BD71
S11346900DB9A44870BDFFF79FFE00F0F9F8907FB4
S11346A018B9FFF7A4FEA84870BD107F18B9FFF72A
S11346B09EFEA74870BDD2E90041A4489B4900680A
S11346C04968461AFFF793FE26F07F40844203D2DE
S11346D04FF48040002108E0201A4FF4FA51A1FB66
S11346E0000110F5804041F10001C00B40EA414057
S11346F02860002070BD80B500F006F88B490A6977
S113470000F01AF8801802BD8848904AC1681268FF
S1134710C0688142F8D102EB0160704710B50023F4
S113472082488A49C4680A68C0688442F8D112EB96
S1134730046043EB142110BD002110F5006041F129
S11347400001000B40EA0150704730B54FF4FA52B3
S113475000F004F8C00B40EA414030BDA2FB004524
S113476002FB015514F5804045F1000170472DE925
S1134770F041FFF731FE754C6C4EE568A80720D573
S1134780012030702768A06920F00200A0617068E1
S1134790381A20F07F4000F023F800F06BF8384618
S11347A000F07BF827687068381A00F014F8717804
S11347B029B17168401A20F07F404045E3D30020BE
S11347C03070E80704D501206061F068401CF06097
S11347D0BDE8F0410BE620F07F48002000F062BE07
S11347E0F0B50022002128244C4B544323441C7F61
S11347F05977002C3AD0D3E90045A94207D828BFFD
S1134800A04204D2241A8D41C3E900452EE0DC7F86
S11348100CB91C7726E0D3E90267D3E90045361AC0
S11348208F41A4197D41C3E900451C691D69012C10
S11348305C6909DB2C19F42C5C6113D3D3E90045C2
S1134840641C65F1FF3508E0641BF42C5C6109D33A
S1134850D3E90045641E65F10005C3E900455C69C0
S1134860F43C5C619C690CB101245C77521C042A01
S1134870B9DBF0BD10B5002400F00AF8507F18B180
S1134880116A926920469047641C042CF4DB10BD25
S113489028212248614342187047F8B54FF0FF328F
S11348A0134600211D4C28254D436619367F46B119
S11348B02544D5E900679F4203D82EBF964232466D
S11348C03B46491C0429EEDB184C4FF0FF3600210F
S11348D0B34208BFB242617019D00027BB42124EE6
S11348E001D8B24200D332462178144D00290CBFBE
S11348F020F07F410146616010180221296000F018
S113490029F801206070686840F002006860F1BD19
S11349100000000080E200E0786D002000680020C4
S1134920011000F0041000F09BFFFF00C06D002098
S1134930004302007016100002001800180008401E
S113494000E100E0021000F0031000F00400084051
S1134950051000F020F07F41002000F0AEBD000003
S11349600100000080B500F011F83149314B0A68AC
S11349704968C2F38232521CB0FBF2F001F00F011D
S1134980C8401860186802BD2B4870472B482C4952
S1134990026A02F47052B2F5006F08D0B2F5805F7B
S11349A004D0B2F5005F04D14868704736E0086867
S11349B070470068234910F4E0601ED0B0F5807F92
S11349C014D0B0F5007F0FD0B0F5407F0AD0B0F519
S11349D0806F05D0B0F5A06F0CBF1B480020704756
S11349E01A4870471A4870471A4870470868000EFA
S11349F01328ACBF1848194870470868000E1328DC
S1134A00ACBF1748174870470D48006870471648F0
S1134A10016841F470010160704700BF4FF4004029
S1134A2070474FF47A70704705484068704700003B
S1134A3000800C40F46A0020006CDC020C800C4006
S1134A40D0630020FC81E00F003FAB01406F4001C8
S1134A50809FD500C0D8A70040B56400C0CF6A00CD
S1134A60804F120040420F0088ED00E010B55B4813
S1134A70416E45F60E0242660023594A1268D40775
S1134A8048BF0123D40648BF43F01003540648BF6F
S1134A9043F04003540748BF43F00403D40548BF20
S1134AA043F48073036002F47053B3F5006F10D0C5
S1134AB0B3F5805F03D0B3F5005F05D00EE0C368A3
S1134AC01B06FCD5032308E0C3689B05FCD504231F
S1134AD003E0C3681B07FCD502234360D2075CBF15
S1134AE002220260C90744BF0021416610BD3D484F
S1134AF001688268C068090201F47C5102F0F00286
S1134B001143C0F303100843B0F5807F0CBF0120AC
S1134B1000207047F8B506463348314F00683860C6
S1134B2000F051F80028314909D00A68304B03EAF3
S1134B300204304A14604B6823F04605556030BFC8
S1134B401CBF0C604D60002E1CBFBDE8F140FFF798
S1134B508DBF386840055CBFBDE8F140FFF702BF78
S1134B60F1BDF8B504461D481D4DC168296045F6E0
S1134B700E02416E4266C9074FF42072026044BFC0
S1134B800021416600F01FF80028184909D00A687E
S1134B90174B03EA0206174A16604B6823F04607D0
S1134BA0576030BF1CBF0E604F60002C1CBFBDE8B7
S1134BB0F140FFF75BBF286840055CBFBDE8F140EA
S1134BC0FFF7D0BEF1BD0C48016841F0040101605B
S1134BD08DE70548024900680860704720800C4052
S1134BE0746D0020E0FF0FE02C800C4000E100E039
S1134BF09CF1FD0080E100E010ED00E0012202FAEA
S1134C0001F12423DFF8B827584310444161704769
S1134C10012202FA01F12423DFF8A42758431044A7
S1134C200161704772B6DFF89C07016811F1010F4A
S1134C301CBF491C016000687047DFF888170868CA
S1134C4018B1401E086000D162B67047427CDFF89C
S1134C507017807C24235A4311441C31800000EBDC
S1134C60411000F184400068C0B2704738B500219B
S1134C70DFF8542702EB81025468A27C824203D0FD
S1134C80491C0429F4D30024207C022815D1204691
S1134C9004F13005FFF7DAFF2870687802280CD198
S1134CA02046FFF7D3FF08B1E87818B10020E87078
S1134CB0042000E008202168C86031BD80B500F1FF
S1134CC0100200F130031178022910D15878010044
S1134CD003D0012806D0187820B91179D078FFF7CD
S1134CE08DFF11E01179D078FFF792FF0CE00129D4
S1134CF00AD1197800290CBF112113218DF8001055
S1134D000122694600F0DCFA002002BDF8B5044631
S1134D100E461546FFF786FFA088E188884206D331
S1134D2000202860FFF789FFDFF8A006F2BD208885
S1134D30142778432044142231460830FCF7CCFC75
S1134D40208807FB00F1214408312960401CE188D8
S1134D5090FBF1F201FB12002080A088401CA0808F
S1134D60FFF76BFF0020F2BD38B504460D46FFF790
S1134D7059FFA088010002D10020286022E0618848
S1134D8014224A43224408322A60491CE28891FBD7
S1134D90F2F302FB1311401E6180A0800EE038B5CF
S1134DA005460C46FFF73EFFA88808B9206009E0D5
S1134DB0688814214843284408302060FFF73DFFE9
S1134DC0002032BDFFF739FFDFF8040632BD00686A
S1134DD00121C1600169C907FCD5416D41F00101A0
S1134DE0416570470068416D4908490041650221E9
S1134DF0C160704700B585B0012280F8442004905A
S1134E000FF2510200F01EF8026802F11C030A6856
S1134E10C16A406A00F0FBFB05B000BD00B585B077
S1134E20012280F8452004900FF2C50200F00AF830
S1134E300B68016801F13402816A006A00F0E1FB49
S1134E4005B000BD0392002202924A680192012239
S1134E500092704770B5144604F1300582B0E868DA
S1134E6000F074F82068016C890507D50099DFF813
S1134E70640500F037F84FF4007009E0006CC005D9
S1134E8009D50099DFF8500500F02CF84FF4807034
S1134E902168886401E000F053F8FFF7C3FE00982E
S1134EA0C668300009D00098009940688968431AA0
S1134EB00098026801692046B047E8686946FFF730
S1134EC053FFE868818821B100F040F800F044FA0B
S1134ED007E0012000F044FA002028752046FFF77F
S1134EE081FF29E008610098009940688860704754
S1134EF070B5144604F1400582B0286800F026F825
S1134F0000F01EF8FFF78EFE0098C668300005D04A
S1134F1000984368026800212046B0472868694623
S1134F20FFF722FF2868818821B100F00FF800F014
S1134F3037FA01E000206871FFF77FFE012076BD9B
S1134F40009900200861009988607047694626E747
S1134F5010B9DFF888047047002918BF002A02D06E
S1134F60B2F5806F02D9DFF87804704700207047EB
S1134F7038B50A460446DFF86C342168207A994231
S1134F8004F1340530D1002844D0012825D1032070
S1134F90A87000210123E9702870002AE978A87814
S1134FA06B705BD001230422FFF78DF869782878B1
S1134FB000230122FFF787F8207C022868D1A17C16
S1134FC0607C00230122FFF77EF8217DE07C002332
S1134FD00422FFF778F8012053E002281AD10320B5
S1134FE0A87007210623D6E7DFF8FC33994206D1DF
S1134FF080B101280ED1A87003210423CBE7DFF888
S1135000EC33994212D128B1012808BF0420BFD043
S1135010022804D1FF20A870FF21FF23BBE7032847
S1135020F8D10220A8700E210F23B4E7DFF8C033B3
S1135030994210D120B90220A8700C210D23AAE7AF
S1135040012818BF0228E5D00328E3D10420A87062
S1135050022103239FE7DFF8880332BD0023FFF713
S113506032F86978287800F015F8207C02280FD1EE
S1135070A17C607C00F00EF8217DE07C00F00AF851
S11350800020009001230122A17C607CFEF7EFFF49
S1135090002032BD00230022FFF715B870B586B09A
S11350A004460D4668460FF280311822FCF724FBB3
S11350B0002C7BD0002D00F0A38048212046FCF773
S11350C007FBDFF80403017841B9002200EB8103F8
S11350D0491C04295A60F9D301210170002100EB15
S11350E081025368002B18BFA3425CD1546004F1C1
S11350F030062868DFF8EC1288425AD1DFF8F4024F
S1135100B060DFF8F402A0624FF45020E062202285
S113511029462046FCF7E0FAA869F06000210180E6
S11351200020F1684880F168888030750021E869C2
S11351303061018000203169488031698880707550
S1135140F0700121686802906889ADF81000A889A0
S1135150ADF80E00A87B8DF80C00E87B8DF81200EA
S113516005208DF80D00DFF89402FDF754FF0121AE
S1135170DFF88C02FDF74FFFB0680121FDF74BFF0C
S113518000208DF8000069462868FEF7D9FE287AC9
S11351902968000240F00300486501212046FFF71A
S11351A0E7FE80B361E0491C042998D3DFF82C02A0
S11351B05BE0DFF83412884208D1DFF84802B060BF
S11351C0DFF84402A0624FF460209FE7DFF81C126E
S11351D0884208D1DFF83402B060DFF83402A062FC
S11351E04FF4301092E7DFF80812884208D1DFF854
S11351F02402B060DFF82002A0624FF4341085E787
S1135200DFF8DC0131E0FFF70DFD00F05EFBA87C68
S1135210DFF8081200F067FB0020B0703070022045
S113522070702046FFF74AFD28684FF0FF31816413
S11352300421FEF77EFE29684FF44060C86000F048
S1135240B6F9002104F1200000F086F928B9002104
S113525004F1240000F080F920B1FFF7EEFCDFF840
S1135260C00102E0FFF7E9FC002006B070BDF0B514
S1135270044683B0E06B0D46818816461F4649B14B
S113528001A9FFF78CFD606A694600F0DBF900F0C4
S11352900DF802E000203860306003E0006C808884
S11352A0C0B27047286020680069FEBD019800996B
S11352B04068401A30600098386001980068704770
S11352C070B506460C461546FFF742FE38BB306CF7
S11352D080880028FBD13068016911F002010FD1E8
S11352E00422C26002699207FCD5426D42F00202B8
S11352F0426505E002695206FCD514F8012B4263AD
S11353002A46551E002AF5D102699206FCD529B910
S1135310416D21F0020141650821C160002070BD8A
S1135320F0B587B000F03FF878B900F01DF80497A5
S113533000F00DF848B9287D30B92046FFF747FD45
S113534000F00AF800F00BF8002007B0F0BD6A4640
S1135350E86801A9FFF7DABC009920464AE5002075
S113536028702046FFF7AABC019504F130052D48AA
S11353700590029603967047F0B587B000F013F8D5
S113538060B900F015F804976A462868FFF7E1FF52
S113539020B9687908B900F003F8002007B0F0BD1F
S11353A0009920463AE504460D4616461F46CFE5C9
S11353B0019504F140051B48059002960396704739
S11353C000600040786D0020E46D00200A7000F059
S11353D00B7000F00D7000F00C7000F0027000F023
S11353E0037000F000C4004000C8004000E000402A
S11353F000E400400012040001000D00408104009C
S113540000D204000022040001000E000032040057
S113541001002C000042040001002D006D4C00002E
S11354200E7000F0017000F00500000000000000A4
S113543000C2010000050000001000000000000090
S113544012490A6842788A600278DAB14268CA600E
S1135450437A827A1B0643EA0272C37B42EAC3425E
S1135460C37A42EA8342037B42EA4342437B42EAF1
S11354700342837B007A42EA032242EA400040F07E
S1135480010001E00020C8600861704790ED00E071
S1135490BFF35F8FBFF34F8FBFF36F8F7047000071
S11354A0704700000F4910B1012802D003E00868DA
S11354B0704748687047002070470A4A10B10128B5
S11354C002D0704711607047121DFBE701784278E3
S11354D00AB141F00201807808B141F004010248A8
S11354E00160704708000840000008404FF0864003
S11354F0002101600121016070470000890001EB77
S1135500401000F18440026070470749014411F8DB
S1135510012C521C022801F8012C01D1012200E0C7
S1135520704701210148E9E7D86D002000600C4074
S113553072B6DFF84003016811F1010F1CBF491C6A
S1135540016000687047DFF82C13086818B1401E2A
S1135550086000D162B6704738B500F023F810B97E
S1135560DFF8140332BD14B9DFF8100332BDFFF7BE
S1135570DFFF0020DFF80813142242438B181D7C40
S113558045B920600120187400208850FFF7DBFF24
S1135590002032BD401C0428EEDBFFF7D4FFDFF807
S11355A0E40232BD0446DFF8E0020078704700B53B
S11355B083B0FFF7BDFFDFF8D002017821B1FFF718
S11355C0C2FFDFF8C8020EBD01210170FFF7BBFF67
S11355D00020DFF8AC120022142343430B44401C88
S11355E004281A74F8DBDFF8A812802008708DF8FC
S11355F00020DFF8A0020190684600F09CFA002029
S11356000EBD10B588B000F012F8002104E010B50A
S113561088B000F00CF801210B9C049400200A9C33
S113562003940024029400F06BF808B010BD0E9CA3
S11356300794019300920B460D9C069402460C9C21
S113564005947047F8B50546FFF7ADFF0C4600B961
S113565024E0052D00D204B922E000F016F800B9C8
S113566020E0FFF765FF8B4800EB05108068C0F36E
S1135670091600F010F826B9EF40F80748BF0020DB
S113568000D4701C20600020F2BD14217C486943C2
S11356900844007C70478148076854E77648F2BDA7
S11356A07648F2BD7C48F2BD1422754942438B18FA
S11356B0196829B199685A68491C99601B68184788
S11356C070473EB514236E4A4343D5180C462A68E6
S11356D001214AB1A9686A682B68491CA9609847E6
S11356E000F0010080F0010102910023E868401EEF
S11356F00190002200200090214600F036FA37BDC8
S11357002DE9F04F044660488846017889B0164672
S113571009B95948AAE0052E11D2129F002F1CBFC7
S1135720139D002D0BD0DDF85890B9F5806F06DC81
S1135730DDF850A0012C08BFBAF1000F01D14F4889
S113574094E014224E49724311440091097C09B932
S113575051488BE00C217143084421000CBF50498F
S113576050494160002181608DF81810DDF860B067
S1135770BBF1000F01D1012C03D101218DF81910C7
S113578001E08DF819B0001D0890079306A9304672
S113579000F097F9179815995FEA080312D151B1EF
S11357A0010008BF002107D0012808BF8DF81100AF
S11357B004D0022100E003218DF8111003218DF89B
S11357C0101011E051B1010008BF002107D00128D9
S11357D008BF8DF8100004D0022100E003218DF8E9
S11357E0101003218DF811108DF8120004AA002066
S11357F08DF813008DF814000121304600F081F972
S1135800012C04D104AA0021304600F07AF9009852
S1135810C0F800B000991998486000200099886089
S113582000982149C0F80C900120B0400860A9F10B
S1135830010044B9019000953B4600220121304605
S113584000F00DF911E0B8F1000F0390CDF808A0B5
S113585003D1019700902B4602E001950090534636
S11358603A460021304600F00DF9002009B0BDE8A9
S1135870F08F0000786D0020028000F0018000F0BD
S1135880246D0020048000F0F06C0020038000F000
S113589000E400E000660020078000F000300C40C7
S11358A0A9560000C356000008300C40012100F046
S11358B01F029140244A04E0012100F01F0291409C
S11358C0224A400942F82010704780B50B20FFF7A8
S11358D0F3FF0B20FFF7EAFF0120FFF7EDFFBDE820
S11358E002400120E2E710B572B6194A194C136858
S11358F013F1010F08BF44F8201004D05B1C13609F
S113590044F8201004D01068401E106000D162B624
S113591010BD38B504460F4D0CE094FAA4F0B0FA6B
S113592080F0012181408C4355F820100A001CBFEF
S1135930C0B28847002CF0D131BD074908684A68D5
S1135940104045F2555212E000E100E080E200E030
S1135950786D0020806D002010610040004901E056
S11359601061004008684A6810404AF6AA221040B4
S1135970C860CEE7890001EB401000F1844002606A
S11359807047F0B5DFF88442266806EB001617006E
S113599012BF3546676807EB0015F66806B1327228
S11359A0069F079E57B1D5F808C0CCF3816CBCF1B3
S11359B0030F1CBF06FA0CFC67442F60059F57B108
S11359C0D5F808C04FEA9C7CBCF1030F1CBF06FA53
S11359D00CFC67446F60012707FA00F0002B14BF2A
S11359E020616061002A14BFE062A062A86800F030
S11359F0EFF80843A860F0BD2DE9F047844C206817
S1135A00E16811EA000800D5FEE7DFF80092D9F852
S1135A1030A00AEA08050226002718E0E80714D592
S1135A20D9F800000121B94000EB0710A160C0685B
S1135A3058B1017A81F00102027203681A0004D09D
S1135A4001B101214268384698476D087F1C002D3A
S1135A50E4D1761E28EA0A05DED1BDE8F08710B548
S1135A6084B0044607980290009313460698019068
S1135A700A46012100F004F800F01EF81FBD0321BE
S1135A8020467EE7FEB504460B9802900D460A9820
S1135A9001901646099800901F462B460022FFF7F6
S1135AA0EEFF08980290019700962B460122FFF71B
S1135AB0E6FF00F001F8F7BD01205649A040086058
S1135AC0704710B5514A13688C6803EB0013DC600F
S1135AD0012303FA00F40B78002B14BF14635463FE
S1135AE04A684D4B43F8202049784C4B00291DBF90
S1135AF04B490C6001220022BDE8104001461846C3
S1135B0038E730B5414B1478002914BF1968596837
S1135B1093781D0745EA8474557844EA856444EA19
S1135B2003631479D27843EA844301EB001043EA17
S1135B308232826030BD10B5044601213948FDF738
S1135B406AFA00F04AF838490120086037490860C9
S1135B504FF0004031490860354861684160217860
S1135B60490141F00101016010BDF0B5079C274DCA
S1135B70059F069E002C14BF01240324002914BF92
S1135B802968696801EB001157B1D1F808C0CCF35A
S1135B90816CBCF1030F1CBF06FA0CFC67440F6058
S1135BA04BB18F684FEA977CBCF1030F1CBF06FA18
S1135BB00CF7FB184B60012303FA00F0002A14BF12
S1135BC028616861886800F003F820438860F0BDAC
S1135BD0184A104040EA061070471749012008602F
S1135BE000211348016040F6FF7181610162816206
S1135BF001638163012181640021094841600F49E7
S1135C00016030210448FBF763BD000008200C400C
S1135C1000300C4028200C4000310C400C300C406B
S1135C2008300C400003020080E200E000E100E0E4
S1135C3004200C4008C0FFFF80E100E0FF0F00805B
S1135C40184A19481178002912BF0078408880004A
S1135C500102101D00F049B838B500F03CF90446C3
S1135C60104D0020287100F01FFA60B10F48007831
S1135C70032818BF042806D1EC60FFF7E1FFBDE854
S1135C80314000F08DBA31BD80B500F00DFA40B15D
S1135C9006480078032812BF0428BDE80140FFF736
S1135CA0CFBF01BDE46A0020E2650020E07E002051
S1135CB038B544784568FBF705FC7C4A0C21614300
S1135CC08B585B1BB3F1004F98BF8D50BDE8324039
S1135CD0FDF7DABF10B5044600F0FDF8606004205B
S1135CE020702046BDE81040E2E738B504460D4672
