S00F000074696D6553796E632E73333799
S1130000A86D00206DD40000DDD30000E1D3000012
S1130010A70B0000000000000000FFFF54000000D8
S113002004220A000000000000000000000000009C
S113003000000000000000000000000000000000BC
S1130040000000000000000000000000D7000000D5
S113005000000000A86D00206DD40000DDD3000076
S1130060E1D30000A70A08010001000004220AAC41
S11300705010D70000000000000000000000000045
S1130080000000000000000000000000000000006C
S1130090000000000000000000000000FFFFFFFF60
S11300A0FFFFFFFFFFFFFFFF00E003000000000071
S11300B000000000FFFFFFFFFFFFFFFFFFFFFFFF48
S11300C0FFFFFFFFFFFFFFFFFFFFFFFFFFFFFFFF3C
S11300D0FFFFFFFF00000000000000000C7F002075
S11300E00C7F0020A86D002090E10000EAD50000FC
S11300F048640020A00F002000000400000000005D
S1130100A86D00206DD40000DDD30000E1D3000011
S1130110E9D30000E5D30000EDD3000069D400006A
S113012069D4000069D4000069D4000069D40000D7
S1130130F1D3000069D4000069D4000069D4000040
S1130140B9460000D3420000755D000069D4000088
S113015069D4000069D4000069D4000069D40000A7
S113016069D4000069D4000069D40000F54200009D
S113017069D4000069D4000029B2000069D40000E9
S113018069D4000069D4000069D4000069D4000077
S113019069D4000069D4000069D4000069D4000067
S11301A069D4000069D4000069D4000069D4000057
S11301B069D4000069D400006B5A00009724000041
S11301C069D4000069D4000069D4000069D4000037
S11301D069D4000069D4000069D40000DFF800F09D
S11301E0112E00002DE9F0410D460026002D044695
S11301F045D0DFF8AC816B4FA2B9FFF7EFFF0020C9
S1130200A8423CD254F8041BF960401C0821396010
S1130210414601E089B3491E3A69D207FAD400295C
S1130220EED12AE0FFF7DAFF002072B65E490A68D1
S113023012F1010F11D0521C0A600EE03A6902F06B
S11302401902102A08BF3A603A691207F6D554F821
S1130250042BFA60401C10223A60A842F4D30868C8
S113026018B1401E086000D162B6414601E021B1D8
S1130270491E3869C007FAD409B96FF0020630463E
S1130280BDE8F0812DE9F047484F9A463B68814626
S113029043F0010300203B6094080025884602E0F7
S11302A0751908EB8608A5422DD23D4801E020B11E
S11302B0401E7969C907FAD410B96FF0020026E02C
S11302C009EB8500B86001217960796911F0060FA6
S11302D009D04A0702D54FF0FF3018E0890702D54C
S11302E06FF0010013E0C0F30A00C0F50060860857
S11302F0601BB04238BF0646524631464046FFF7BF
S113030071FF0100CCD03968490849003960BDE863
S1130310F0872649224A0B6843F001030B6088608A
S1130320012048604869400706D508684008400035
S113033008604FF0FF3070474869800706D50868A9
S11303404008400008606FF00100704702204860D8
S113035001E022B1521E4869C007FAD432B90868D4
S11303604008400008606FF00200704708684008C9
S11303704000086000207047002383E70B480168B1
S113038041F00101016046F21A31C1644FF48071F9
S113039041604169C907FCD40021C1640020704751
S11303A0809698000C000C407879002008000C40DE
S11303B07CB504460722FF21684600F084F81A4EF3
S11303C02E22FF21304600F07EF807250020174931
S11303D00A5C012A1CBF26F810505519401C072836
S11303E0F6DB0FF24C054FF4E04000F03BF918B196
S11303F0CA21284600F00AFE4FF4804000F032F98A
S113040018B1CC21284600F001FE4FF4805000F0D2
S113041029F918B1CE21284600F0F8FD6946204696
S113042000F04DF976BD0000B476002060D90000DC
S113043073696D2D656570726F6D2E630000000029
S1130440814233D210441144401E491E10E011F879
S1130450013900F80139121F11F8013900F8013986
S113046011F8013900F8013911F8013900F801399E
S113047092B2042AEBDA93B2002B1EBF11F80139B1
S113048000F80139521EF6D1704711F8013B00F80B
S1130490013B121F11F8013B00F8013B11F8013B2D
S11304A000F8013B11F8013B00F8013B92B2042A29
S11304B0EBDA93B2002B1EBF11F8013B00F8013BAD
S11304C0521EF6D17047130003D00A46194600F0B5
S11304D08DBE704710B500E0521E93B223B100F0F8
S11304E005F8F9D0181B10BD002010BD10F8013B11
S11304F011F8014BA342704710B5DFF8984ADFF8B2
S1130500983A2488001B06E010B5DFF8904ADFF81B
S1130510883A24681B1B03EB4000002304E030F8F6
S1130520134021F813405B1C9342F8DB002010BDFC
S11305302DE9F04182B004460D4616460027DFF847
S1130540588A01E0B81CC7B2B74217DA7819795D46
S11305504078DFF8403A1B8801EB0020ADF800003A
S1130560012207EBD77004EB6000C01A00F09BFB7C
S11305700028E7D000F0DCFE002000E00120BDE808
S1130580F681F8B504460E46154600270DE000F046
S113059019F8BDF8000004EB4701000A4870761C06
S11305A0BDF8000004F817007F1CB7EB550FEEDB15
S11305B0E80706D500F006F8BDF80000291901F88F
S11305C0010CF1BD012200A9B0B295E7DFF8C429FE
S11305D0DFF8C4191288801A01EB4001022000F0F0
S11305E02DBFDFF8BC19DFF8BC29415C825CDFF861
S11305F0B839C05C10B102F5997292B241EAC210E6
S113060080B2704710B5DFF8A439DFF8944903EBE2
S11306104002005D012801D1104610BD1088081861
S113062003EB400010BD38B50C46DFF884190D7893
S11306302A462146FFF760FF208800281CBF4FF69A
S1130640FF7188420AD0012000E0401CC0B2A842D9
S113065006D234F8101022889142F6D0002032BD20
S1130660012032BDF0B5DFF8341987B008600C22E0
S113067000A90020FFF748FF00A90025C88A8A893D
S11306800346040A01204FF6FF7631F81570BDF8D1
S113069000C0BC4503D1B74218BF002F00D10020D1
S11306A06D1C062DF1DBB21A944518BF0020DBB295
S11306B0C4F1FF018B4218BF002007B0F0BD2DE943
S11306C0F24F0446DFF8EC680020307070809CB074
S11306D0DFF8E4080088ADF8020007A9FFF7A3FFDC
S11306E083460120707009A9DFF8D0080588DFF877
S11306F0D008B0F80080DFF89C08BDF802A0078895
S11307003846FFF790FFB8B1BBF1000F3CD0BDF8FD
S11307101C10BDF824004FF6FE72914202D101284C
S113072004D10CE0012908BF90422DD00846BDF841
S11307302410884228D202E0BBF1000F23D000200D
S11307407070029750460695CDF810800122DFF8AC
S1130750601891F800804044ADF8060000A9BDF887
S11307600600FFF7C9FEDFF85C08008805904FF625
S1130770FF79BDF80000000B404518BF0F2800D1D9
S11307800CB3002516E0012470780028D9D038462F
S1130790CDF808A0CDF818800495D7E7059805FB97
S11307A000F4E01900F01CFCBDF80200201800F071
S11307B017FC6D1C4545F1DB012030704D2000F025
S11307C0B7FD0025FEE0BDF80650012201A9284628
S11307D0FFF792FEBDF80400C043C0B2ADF80400B8
S11307E06F1CDFF8E4070588BDF80400A84218BFB1
S11307F001244FF0000A20E0401CC1B2A94218D2E3
S1130800C0B2DFF8C817BDF80E20834631F81B10BC
S11308109142F1D1FFF7E5FE4FF680710840BDF833
S11308200C104FF680721140884204BF1C980BF8DC
S113083000A00AF101001FFA80FABDF80400824505
S113084007DA022203A9B8B2FFF756FEBF1C002044
S1130850D3E7002001E0401C80B2A84217DA1C99BB
S1130860415C8142F7D0012411E02AF81070BDF8F0
S1130870060000EB4300401C00F0D2FABDF8020071
S1130880C0F3C710401C00EBD07007EB600704985E
S1130890DFF818A7BFB2874211DA012200A938464F
S11308A0FFF72AFEBDF80000484508D0030A00F00F
S11308B07F01BDF804007F1C834202DB0124002574
S11308C02FE0002001E0401C80B2A842CFDA1C9A3D
S11308D0825C9A42F7D1C0B2FF28C8D0DFF8C026A4
S11308E0825C7F290CBF4FF0000C8C4694450BDAD8
S11308F0BDF800C0DFF8B0E610F80EE04FEA0C6C6B
S11309004FEADC7CF44501D00124B0E7012AACD0E5
S11309107F293AF8100008BF00210818A5E76D1CCC
S1130920ADB2DFF8AC060088854204DA3AF8150067
S11309304845F4D1012477800498BDB285420ADA8F
S1130940012200A92846FFF7D7FDBDF800006F1C5F
S11309504845F1D032E7002CFCD1029801220BA9C2
S113096080B2FFF7C9FDBDF82C0048450DD105E064
S1130970401C80B2202813DB2034A4B20699029ACA
S1130980891A8C4205DB0120307000201DB0BDE8BF
S1130990F08FA51820220BA9A8B2FFF7ADFD002007
S11309A00BA931F810104945E2D0A8B2FFF70EFEAA
S11309B0203CA4B2E0E70298059905FB010000F091
S11309C00FFB6D1C4545F6DB01203070494600F0F5
S11309D043F818B100F02DF90028D6D10120D5E74D
S11309E02DE9F84504460F461646984631463846E2
S11309F0FFF708FEDFF8D015B0F800A00988DFF88B
S1130A00A4558F420AD2DFF89805385C7F2E08BFC0
S1130A100026864202DA785D804503D040F2DB414D
S1130A2000F0FAF9DFF88005385C68B151463846C1
S1130A3000F020FA795D012908BF20700AD002294C
S1130A4014BF2060208005E0424651462046BDE8A0
S1130A50F84596E5BDE8F1852DE9F34FDFF8340557
S1130A60DFF84C150488DFF84C050978407883B02A
S1130A7000281ABFDFF84005008820460D18DFF86B
S1130A8048050088ADF80800ADB2C043C0B200EB21
S1130A90013000F55060ADF802002B1BDFF8F804BC
S1130AA000F0C4F96E1C0028B6B238D10025DFF876
S1130AB01C7514E0E8B2FFF794FDADF80400331B95
S1130AC037F81500ADF806000222DFF8CC0400F078
S1130AD0ABF8002823D1B61C6D1CB6B2ADB2BDF87C
S1130AE008008542E6DB002501E06D1CADB2BDF8CF
S1130AF00800854280F293804FF0000A1CE0012236
S1130B000DF102011FFA89F0FFF7F6FCBB19DFF8BB
S1130B1088041B1B09F1010900F088F9002878D129
S1130B207F1CFFB2B7EB1B6FE9DBDFF8A804285C7E
S1130B308619B6B20AF1010ADFF8640415F800B0A8
S1130B405FFA8AFADA45D0D25146E8B2FFF75AFD85
S1130B508046DFF85404B8F800902F5CF80140EAAE
S1130B600520ADF80000BBF1010FBDF800000CBF7B
S1130B7040F07F004AEA0000ADF80000311BDFF8C6
S1130B80180400EB4100711C89B201914FF6FF710A
S1130B9089451EBFBDF80010BDF81020914218D140
S1130BA09DF80C100029C5D0012200A900F083FC97
S1130BB0019E70BBDFF8EC03A8F800602A5CDFF844
S1130BC0180450F82510B0B2FFF7B2FC0028ACD1DD
S1130BD022E0DFF8D013695C491C01EBD1714FEAC4
S1130BE0C15B012200A900F066FC019E88B9002FB8
S1130BF0A8F8006095D04946E8B200F03BF90190AE
S1130C00331BDFF894034FEA1B6200F00DF8002851
S1130C108BD000F08DFB002005B0BDE8F08FDFF82D
S1130C20940346800120F7E701A900EB430000F09C
S1130C3042BC2DE9F041DFF88003DFF878530688E1
S1130C40DFF8500304886878002882B012BF204679
S1130C5030462646012200A9FFF74EFCBDF80000ED
S1130C60DFF8348301280CBF4FF6FE70401EADF848
S1130C700000CF4807783846471E58B1BFB2B819AC
S1130C80001B012200F00FF80028F4D000F050FB04
S1130C90002006E0687880F0010068700020287069
S1130CA00120BDE8F68100A908EB400000F003BC78
S1130CB02DE9FE4F0D46174604461E464FF0000927
S1130CC04FF001083946FFF79DFCBF4909880190A0
S1130CD08C420AD2B248205C7F2F08BF002787428B
S1130CE003DAB048205C864203D040F2FE5100F0A3
S1130CF093F8B04F787820B1B048B0F800A0A54878
S1130D0003E0AF48B0F800A0AB483978008849B98F
S1130D107988081AB14909888842B4BF432044201D
S1130D2000F006FB019801889F48205CF8B120463A
S1130D3000F0A0F8012E08BF297803D0022E0CBFC2
S1130D4029882968814265D001980088401E00F0F6
S1130D5067F8A048265C7888AAF10101891B8142C2
S1130D6001DB002835D1387858BB452044E0029196
S1130D70CB4620E002980BEBDB7300EB630000F042
S1130D8032F90BEB05001BF80510407801EB00204D
S1130D90711E8B4580B205D1BDF80010C9B2C0B236
S1130DA0ADF80010BDF8001088420BF1020018BF26
S1130DB0C8465FFA80FBB345DCDBB8F1000FC3D053
S1130DC028E0BDF802100020FFF746FE10B34FF0F4
S1130DD0010978887349401C788080B2625C294696
S1130DE0FFF7A6FBB0B16B4C7B8824886A485B1E76
S1130DF01B1B00F01BF810B100F09AFA0AE0B9F1DD
S1130E00000F02D0FFF715FF20B101997888088000
S1130E1030187880BDE8F78F0FF2D41000F0F6B8E0
S1130E2001220DF1020180B2FFF766BB01220DF130
S1130E30020100EB430000F03EBB70B582B00446F3
S1130E4000250026012200A9A0B2FFF755FBBDF83A
S1130E500000641C20B14FF6FF71884205D006E003
S1130E60B61C6D1CF6B2322EECDB68B276BDE843DC
S1130E7040B276BD38B50C46002100914949455C25
S1130E802A46214600A8FFF77CFB681C00EBD070C3
S1130E9004EB600080B2FFF7D0FF002848BFC043D6
S1130EA0009940B2401832BDF0B54749098804465C
S1130EB03E4883B0264630F816508C4202D23A4857
S1130EC0305C18B940F23971FFF7A6FF3548365C3B
S1130ED0701C00EBD07005EB6007B8B2FFF7ADFFF4
S1130EE019280FD2BFB2C0192A4F2B4B3F880021BB
S1130EF0ADF80410C01B012201A903EB400000F06F
S1130F00DAFA60B129462046FFF7B4FF0090334671
S1130F10401C00907F2200A92046FFF7C9FEF7BDC0
S1130F20F8B5244C20780027002830D119480588CA
S1130F30607800281ABF204806882E461C48077887
S1130F403846471E02281BDBFFB2B81900F04BF8E5
S1130F50BDF800000028F3D01A48008807FB0060A1
S1130F6000F03EF80020ADF80000BB190A485B1BF6
S1130F70012200A9FFF759FE48B100F0D9F906E0B3
S1130F803046FFF723FBFFB20FB90120207038462B
S1130F90F2BD0000F0D5000000E00300F87A002064
S1130FA060D9000058D9000050D90000B476002060
S1130FB0ECD50000F07E0020F4D50000F2D500004E
S1130FC0F6D50000EED50000FAD5000040D90000A7
S1130FD0FCD5000000D600009CD90000F8D5000024
S1130FE080B2FFF7F3BA012200A980B2FFF784BAF6
S1130FF073696D2D656570726F6D2D696E746572A0
S11310006E616C2E6300000042DE704738B5044602
S11310100D4600F096FA00F0B5FA2B4622460FF280
S1131020B811022000F0F8FA29462046BDE8344001
S1131030EAE761482DE9F84F604D0168DFF880A1C7
S1131040DFF88081DFF880912E1D4FF420647165F4
S1131050016AB1655D490A68F26549683166416AA9
S11310607166816AB166C16AF166016B3167806B32
S1131070706796F8340040074CBFF76BB76B00F00D
S113108067FB0022F2648742014605F1900224BF07
S1131090AAF12003BB42BB46316500921AD3B8695A
S11310A03064FA697264726DC2F30802062A15D1BB
S11310B0484513D3404511D200884DF64262904210
S11310C00CD1009A3068506040F20174009A706844
S11310D0906003E000223264726483463C4881429B
S11310E002D2014600E0091D0846504503D20A68B1
S11310F0B2F1CD3FF7D03749081AB064182105F191
S11311007C0000F049FB002003E0C0B205EB800244
S1131110D167D34523D25AF8041D4945F9D3414533
S1131120F7D2CA07F5D5002205EB8203DB6F8B42A9
S113113002D0521C062AF7DB062AEAD1020014BFA9
S1131140401E0520E1E7B16F002205EB8203521C2B
S1131150D3F88070DF67052AF7DB009A1160014637
S1131160481EC9B20029EED1706DC0F308000328EF
S113117008D0042809D005280AD006280BD00C284A
S11311800FD011E040F6012413E040F6022410E0F1
S113119040F603240DE0B4F5206F0AD140F6042490
S11311A007E040F6052404E018B1312838BF40F6C2
S11311B007242046BDE8F28F04ED00E00000002083
S11311C0A86D0020EAD50000B003000000E300E0B1
S11311D09C000020A86D00200D0A5B41535345522A
S11311E0543A25703A25645D0D0A000062F30F221B
S11311F062F31F42401810F0030308D0C91A1FD32A
S1131200DB0748BF00F8012D28BF20F8022D13008A
S113121030B414461546103928BF20E93C00FAD8EA
S1131220490728BF20E90C0048BF40F8042D890075
S113123028BF20F8022D48BF00F8012D30BC7047AC
S1131240C91818BF00F8012DCB0728BF00F8012DDD
S113125070470000890001EB401000F184400260F7
S1131260704710B50FF294100FF29811D0E90023D3
S113127086B06846CDE903231CC91CC001208DF843
S11312800C0008208DF80E0000208DF80F000120BE
S11312908DF8100000200090ADF804008DF80600D1
S11312A040208DF807008DF8080001208DF8090012
S11312B00022454C10212046FFF7CCFF684600F081
S11312C03FFB03A800F02BFB0021022000F091FB60
S11312D0012210212046FFF7BDFF06B010BD00B566
S11312E085B068460FF22811142200F015FC002086
S11312F08DF8000003208DF8010000208DF8020015
S11313004FF40050ADF804008020029001208DF8C5
S1131310100000208DF811008DF81200684600F0CE
S11313203AFC2A48016841F00301016005B000BDA0
S11313307047704770477047704738B52448254C4C
S11313400068254DE06200F05BFB0121234800F0BA
S1131350DAFDFFF786FF002020606060A0600120B6
S1131360E06000202061702060610020A061E061E5
S11313704FF0FF302062204601F050F8E06A4FF64B
S113138009010840B0F5084F06D101F09DF801F0BD
S1131390B7F80120E86110E001220121002000F0EB
S11313A0B7FFFFF79CFF01F08FF8286800220321A4
S11313B02846FFF74FFF01F09AF809494FF0004023
S11313C008600849086031BD2C600C4034100840A6
S11313D004A00C40C87A002000100840004302001A
S11313E080E200E000E100E001F030B870477047AF
S11313F07047704770477047704700000000000155
S113140001000000000000000000000000010000D6
S11314100101000000300000010000000000000095
S113142001000000DFF800F0496F0020DFF800F051
S1131430DF6E0020DFF800F0456F002038B5044669
S11314400D4601F0C1F8012C02D1FFF7EBFF02E0D9
S11314502846FFF7EBFF18B101F0E1F8012032BD97
S113146001F0DDF8002032BD10B5C20782B01CD4F3
S113147002884FF6FF739A4218BF002915D18408D9
S1131480A4008007226847BF90B240EA0140100CD4
S113149041EA0040009001F097F8042200A9204698
S11314A0FFF7C8FF18B101F0BAF8012016BD01F02A
S11314B0B6F8002016BD70B504460D46164604E085
S11314C001F0ADF8241D2D1DB61EB6B1012E01D0BC
S11314D0A00706D535F8021B2046FFF7C5FFA41C5C
S11314E0761E022EF1D301F06FF80422294620461D
S11314F0FFF7A0FF0028E3D001E0002070BD01F059
S11315008EF8012070BD000010B584B00121184888
S113151000F0F9FC01220121052000F0F9FE0FF290
S113152058011CC968461CC000208DF8070008201B
S11315308DF80800012001F08AF8684601F09EF851
S11315401FBD01F08EB8A52800D0704780B500F00B
S113155007F820B1BDE80240002001F078B801BDD1
S11315600448006810F0010018BF01207047000013
S11315700043020000800840010000000000000059
S11315800F000000EFF31180602181F31188704790
S113159010B504460120032C88B009D168460FF227
S11315A0A801202200F0B8FA6946032001F080F96E
S11315B0C0B208B010BD01F0BCB980B501F0C4F9E7
S11315C0C0B202BD01F0EEB980B501F013FAC0B2A9
S11315D002BD18A10CB480B502AA01F016FA02BC2F
S11315E0C0B25DF80CFB0CB438B5044604AA01F093
S11315F00CFA05460FA1204601F018FAE8B232BCF5
S11316005DF80CFB80B501F08FFAC0B202BD80B565
S113161001F0FBF9C0B202BD0CB410B50A46014694
S113162002AB054801F0BFFA00B90124E0B210BCD6
S11316305DF80CFB0D0A0000152B000003280CBFFD
S1131640002001207047000000C8004000C20100D3
S11316500100001000000000000106010500000068
S1131660000000000000000010B50446FFF78AFFE8
S1131670200A00283B4808BF24024FF20F010480CF
S11316804180BFF35F8FBFF34F8F3748374A0168FC
S113169001F4E06111430160BFF34F8FFEE780B5B1
S11316A0002000F009F830B9BDE80440BE210FF273
S11316B0D400FFF7ABBC01BD2DE9F0442C4C2168EC
S11316C00D1A15F01F0105D0002852BF6D1A681AB3
S11316D000F120052748A5F12006A84224BF26488A
S11316E0864203D3EFF30880854201D300202DE026
S11316F0FFF748FF82462148006810F0010718BF31
S113170001F04DFB206801468D4206D2A84224BF59
S1131710CD2100F80119F9D206E02038002201E0B9
S113172000F8012B8842FBD32560304601F03EFBD4
S1131730E22001E006F8010BAE42FBD30FB101F049
S11317400BFB504601F046FB20682038BDE8F084CE
S11317500748006870470648006820387047084802
S113176070470000000000200CED00E00400FA05C2
S11317708C71002048640020A00F002094ED00E04C
S1131780000000206D6963726F2D696E7465726E5E
S1131790616C2E6300000000002201F01FBB0000FA
S11317A0890001EB401000F184400260704710B5DD
S11317B07F48416E45F60E02426600237D4A126858
S11317C0D40748BF0123D40648BF43F0100354068E
S11317D048BF43F04003540748BF43F00403D40513
S11317E048BF43F48073036002F47053B3F5006F91
S11317F010D0B3F5805F03D0B3F5005F05D00EE0E1
S1131800C3681B06FCD5032308E0C3689B05FCD50D
S1131810042303E0C3681B07FCD502234360D207FB
S11318205CBF02220260C90744BF0021416610BDAB
S1131830614801688268C068090201F47C5102F0C1
S1131840F0021143C0F303100843B0F5807F0CBFCE
S1131850012000207047F8B506465848554F0068E7
S1131860386000F051F80028554909D00A68554BF2
S113187003EA0204544A14604B6823F04605556099
S113188030BF1CBF0C604D60002E1CBFBDE8F14092
S1131890FFF78DBF386840055CBFBDE8F14001F03B
S11318A0B7BAF1BDF8B504464148424DC168296054
S11318B045F60E02416E4266C9074FF4207202607B
S11318C044BF0021416600F01FF800283C4909D0BC
S11318D00A683C4B03EA02063B4A16604B6823F055
S11318E04607576030BF1CBF0E604F60002C1CBF02
S11318F0BDE8F140FFF75BBF286840055CBFBDE869
S1131900F14001F085BAF1BD3048016841F00401AD
S113191001608DE72948274900680860704710B5C1
S11319202B492C4B0A6884781A40037844EA034311
S1131930C478007943EA440318431043086010BD97
S113194038B5044624484168E278237942EA8302A0
S1131950637942EA4302A37949091A4342EA4111ED
S113196041608168E27921F0600111438160C168BE
S1131970227A21F060011143C160016823786578FF
S1131980627A43EA8503A57843EA450321F06701B7
S113199013431943016000211048FFF701FF607AE7
S11319A0BDE8384080F0010201210D48F8E600004E
S11319B020800C4074790020E0FF0FE02C800C4064
S11319C000E100E09CF1FD0080E100E010ED00E0AA
S11319D02C600C40F0FFFEFF30600C4044600C4073
S11319E000A00C40890001EB401000F1844002602B
S11319F070470A4690FAA0F0B0FA80F11948F1E76E
S1131A0070B51949194C1A4E01200860206810F06D
S1131A1001051CBF4AF6E85020600122002130462F
S1131A20FFF7E0FF002200213046FFF7DBFF0DB196
S1131A300020206070BD10B50E480FF23C03016811
S1131A400020002253F83240214207D003EBC204A5
S1131A506468214204BF53F832402043521C102AC8
S1131A60F0D310BD00A00C4008A00C4008600C404E
S1131A7024600C4004A00C400100000000000000A1
S1131A80020000008100000004000000910000003A
S1131A900800000001000000100000000300000026
S1131AA020000000DFEF0000400000009FEF000076
S1131AB08000000019070000000100001906000062
S1131AC0000200001F040000000400001F020000C8
S1131AD000080000010000000010000001000000E8
S1131AE00020000001000000004000000100000090
S1131AF0008000000100000062B38B0708D0521E72
S1131B0011F8013B00F8013B00F024808B07F6D16B
S1131B10830740F0208000BF103A07D330B4B1E807
S1131B203810103AA0E83810F9D230BC530724BF5B
S1131B30B1E80810A0E8081044BF51F8043B40F88D
S1131B40043BD20724BF31F8022B20F8022B44BFF8
S1131B500B7803707047083A07D3B1E80810083AC5
S1131B6040F8043B40F804CBF7D25307E4E7000005
S1131B70890001EB401000F184400260704729495C
S1131B808A6BD20706D40A6812F4405F02D1CA6B8A
S1131B900242FCD1704770B50446234DA068B0FAE8
S1131BA080F0C0F11F06207820B1012200212846D0
S1131BB0FFF7DEFF0120FFF7E2FF1A48A17C416036
S1131BC0A278617841EA8201627C41EA0211E2680A
S1131BD041EA4211B4F9042041EA06211143227C6E
S1131BE041EA82314FF0FF3241F0080102630160A3
S1131BF0217851B1016800220321FFF7B9FF28467B
S1131C00BDE8704000220021B2E770BD10B50C465B
S1131C100220FFF7B4FF0548046010BD03480068C4
S1131C207047000000100840381008400C100840AD
S1131C30890001EB401000F1844002607047890084
S1131C4001EB401000F1844000687047DFF81C0786
S1131C50006810F4E06018D0B0F5807F12D0B0F5C1
S1131C60007F0CD0B0F5407F06D0B0F5C06F12D025
S1131C70B0F5E06F0CD011E0DFF8F4067047DFF840
S1131C80F4067047DFF8F0067047DFF8F006704797
S1131C90DFF8EC067047DFF8EC0670470020704769
S1131CA010B5DFF8E4168A6B02B1012241F67133F4
S1131CB08B630B6803F00703012B01D91B1F01D1B0
S1131CC0002300E00123DFF8C446A04204D3002B24
S1131CD00CBF042005200FE0DFF8B4462018DFF81D
S1131CE0B446A04204D2002B0CBF0120032003E021
S1131CF0002B14BF022000200B68DB0840EAC3005D
S1131D000860D2B20AB10020886310BD38B5054618
S1131D10002400F0CFF9DFF88036DFF880169D420A
S1131D2007D0DFF87C369D4204BF886AC0F3810087
S1131D3002E0886A00F00300032829D8DFE800F0F5
S1131D401602050801F0BFF821E001F0C3F81EE017
S1131D504868C00502D40868400003D501F058F86B
S1131D60840815E001F054F8440811E0DFF828066F
S1131D70854202D1886A102105E0DFF824068542F5
S1131D8006D1886A1421C84002D001F0A0F80446A4
S1131D90204632BDDFF80C164A68D20702D40A681E
S1131DA00242FCD170470E21DFF8FC0547E7000032
S1131DB070B50D46011101F00F010129DFF800464D
S1131DC0DFF8D86508D0042912D0052917D00729CF
S1131DD037D0082963D070BD01F02CF8FFF760FFFD
S1131DE0306820F4E030691E40EA8130306027E03A
S1131DF0B5FA85F0616800F07AF8606070BD01F0B2
S1131E0019F8FFF74DFF112000F0C7F8B0FBF5F00B
S1131E10DFF8B015884206D200221E213046FFF7B3
S1131E2007FF002202E000F068FA012208212046A0
S1131E30FFF7FEFEB5FA85F0216800F058F820603F
S1131E4060E2DFF86815884208D0DFF8641588423C
S1131E5010D0DFF86015884218D070BD0420FFF759
S1131E6099FF00F04BF821F0F001C0F11F0041EAA6
S1131E70001012E00420FFF78DFF00F03FF821F47A
S1131E807061C0F11F0041EA002006E00420FFF762
S1131E9081FF00F033F800F024F8606670BDDFF8CD
S1131EA01815884204D0DFF8141588420AD070BD92
S1131EB04020FFF76FFFB5FA85F0E16EC0B200F085
S1131EC010F80CE04020FFF765FFB5FA85F0E16EED
S1131ED0C0B221F03001C0F11F0041EA0010E066F9
S1131EE070BD8908C0F11F0040EA81007047C0B28C
S1131EF00909C0F11F0040EA01107047B5FA85F0E6
S1131F00616EC0B270472DE9F041064630120025DB
S1131F1000F00F0001288846DFF8A4742DD00228B1
S1131F202DD0032806D006282CD007282ED00A2826
S1131F3030D020E0DFF8900400F02FF8DFF88414AC
S1131F40884207F13C040AD301221E21DFF84C0425
S1131F50FFF76EFE012208213846FFF769FEC6F33B
S1131F60043615B12846FFF715FF42463146204690
S1131F70BDE8F0415CE6BDE8F0813C1DEFE707F108
S1131F804004ECE707F154040125E8E707F15C0499
S1131F901025E4E707F17404E1E710B5024612F4F2
S1131FA07812DFF8F403DFF8F813DFF8F0435AD0BF
S1131FB0B2F5003F27D0B2F5802F1ED0B2F5402FE6
S1131FC049D0B2F5602F53D0B2F5801F1FD0B2F5BF
S1131FD0901F22D0B2F5A01F2ED0B2F5B01F32D080
S1131FE0B2F5C01F25D0B2F5D01F21D0B2F5001F25
S1131FF041D0B2F5201F17D053E000F01DFF00F0D0
S113200052F8A1680DE0BDE8104000F001BFFFF7F1
S11320107DFEA16EC1F303111BE0FFF777FEA16EF5
S1132020090A01F00F0114E0FFF770FEA16E07E04A
S11320300846BDE8104069E60846FFF767FE216FD1
S113204001F0030105E00846FFF760FE216FC1F3CC
S11320500111C84010BDDFF8740300F02BF8072805
S113206006D008281DD100F0E7FE00F01CF810BDD2
S1132070BDE81040EAE5DFF8580300F01BF8022839
S11320800BD0032805D008280BD1BDE8104000F080
S1132090D3BEBDE8104000F016BFBDE8104000F00C
S11320A019BF002010BD2168C1F38231491CB0FB67
S11320B0F1F070470146012001F00F010129DFF81A
S11320C0DC2208D0022917D0032921D006292FD0D9
S11320D0072935D047E0D06A00F47050B0F5006F9E
S11320E006D0B0F5805F3CD0B0F5005F37D001E09A
S11320F00420704705207047916A01F0030101290B
S11321002FD002D303290CD029D3916AC9030CE040
S1132110916A01F00C01042923D008291FD00C294D
S113212001D106207047916AC9021DD50920704764
S11321301168072001F08051B1F1805F14D10CE0E7
S1132140D16A01F46031B1F5004F06D0B1F5803F9A
S113215005D0B1F5003F04D0704708207047022035
S1132160704703207047002070472DE9F84F00F0B6
S11321700F070324012FA2464FF00009DFF8405255
S1132180DFF84082DFF84CB2DFF8106209D0022F8A
S113219018BF032F42D0062F77D0072F00F083807B
S11321A01BE0022906D0032919D004291AD00529D5
S11321B032D012E00424CA4601220121504600F024
S11321C0A7F800F037FEFFF76BFD2C62FFF7A2FBC8
S11321D000F01EFEBDE8F24F62E5BDE8F18F4FF05E
S11321E0010AE9E700F066FE0224404530684FF03A
S11321F0020A0BD340F0804040F060003060DBF80E
S11322000000C006D8D500F073F8D5E720F06000D0
S113221040F020003060CFE70124CDE7012908D049
S1132220022911D0032913D0062915D0092921D058
S1132230D3E70024022F686A20D16749084020436D
S113224040EA09406862C8E700F04EF80224F1E76A
S113225000F046F80124EDE7012204215846FFF777
S1132260E7FC00F0D5FD4045E4D300F046F800F06B
S11322703FF8DFE700244FF00109DBE75749084046
S113228040EA840040EA0950DCE7072902D0082923
S113229005D0A2E7306820F0805030609DE73068B8
S11322A040F08050F9E7022904D003290AD0082914
S11322B010D092E700F018F840202862A86AC00302
S11322C0FCD58AE700F00CF860202862A86A800335
S11322D0FCD582E720202862A86A0004FCD57CE7AC
S11322E001220121012013E00122012100200FE03D
S11322F0012208212846FFF79BBC01221E213046FB
S1132300FFF796BC00F084FDBDE87040FFF7C8BC41
S1132310052800D9704738B5DFE800F01C18100311
S113232014270120022301242D4DC9B12860C2B114
S11323302146FFF739FD0028FAD012E004200823D3
S11323400324F1E7102020230524EDE74020802317
S11323500724E9E74FF480704FF400730924E3E79E
S11323602B60BDE83140FFF7D5BA31BD14800C4075
S113237040420F00C0CF6A00C0D8A700809FD5009C
S1132380406F4001003FAB0104000C400148E801EC
S1132390FFDB0BFF0024F4000200180000800C4057
S11323A003001A0050800C402C800C407016100062
S11323B0702612007006280080071400801716008B
S11323C004800C4001366E015000020006000C002F
S11323D00723200040800C40FCFFFEFFF3FFEFFFCB
S11323E020800C401748416802688368C06803FB7A
S11323F0012210B1484302EB10221348006802EB9B
S11324001020704780B500F087FD0E49086001BDBB
S11324100C49086070470B4800687047094900225E
S11324204A604FF080728A600022CA60EAE7054978
S11324304868401C4860704702494860704701483A
S113244040687047807A00200810084010B582B0B8
S113245000203C4CFFF7C6FFE06204F12C0000F0C2
S113246011FE014620462C22FFF756FB0FF2EC0129
S1132470012000F038FE20686368A2680FF204119E
S11324800090012000F02FFEBDE81C400FF2101157
S1132490012000F028BE10B52B4C2068800709D518
S11324A00020FFF7BBFB00F580710020FFF7AEFBB7
S11324B00220A0602068C00705D5FFF7B8FF00F030
S11324C016F80120A06010BD80B5204900204860A6
S11324D04FF48071FFF79AFB02211D48FFF745FE78
S11324E0BDE80840002200210120FFF711BF10B50C
S11324F0184CFFF7A4FF2060FFF78DFF606010BD4C
S113250038B515481349046880680A680F4D844239
S113251038BF521C2A604868FFF77AFF2868FFF723
S11325208BFF69682868C1F58071484304F58071A0
S1132530BDE8344000F0FF00090A00EB012100204F
S1132540FFF764BB987A002028100840907A002096
S11325500200180000110840081008402D2D2D2DF0
S11325602D2D2D2D2D2D2D2D2D2D53595354454DC0
S11325702054494D452D2D2D2D2D2D2D2D2D2D2D19
S11325802D2D0A00486F75723A2025640A204D6982
S11325906E3A2025640A205365633A2025640A00B4
S11325A02D2D2D2D2D2D2D2D2D2D2D2D2D2D2D2D57
S11325B02D2D2D2D2D2D2D2D2D2D2D2D2D2D2D2D47
S11325C02D2D2D2D2D2D0A0010B5194C41F67130ED
S11325D06063206840084000206000F019FC4FF45C
S11325E06020FFF7DAFC134A13499042A26C04D32B
S11325F011400B2200F009F805E01140372200F0E9
S113260004F840F48030A06410BD50430A22B0FBAB
S1132610F2F00A4AB0FBF2F0401C08437047044849
S113262001684908490001600021416370470000C6
S113263008000C40C1CF6A00C0FFFEFF40420F00FB
S1132640890001EB401000F18440026070470100F2
S1132650264B02D19968C907FCD4024600211846CA
S1132660EEE722480168C90707D58168890704D4C1
S11326708168C907FCD401214160704710B5017815
S113268043780A460BB142F0020283780BB142F060
S11326900402C3780BB142F0080203790BB142F093
S11326A0200243790BB142F04002047AC379240238
S11326B044EA03331A430D4B9C68E407FCD41A60C4
S11326C0807950B100291CBFBDE8104000F006B865
S11326D0BDE8104001220421C1E710BD0348816810
S11326E0C907FCD401220421AAE7000000800840A5
S11326F0012100F01F029140DFF84424400942F810
S11327002010704772B6DFF83C04016811F1010F24
S11327101CBF491C016000687047DFF82814086872
S113272018B1401E086000D162B6704780B5DFF86A
S11327301804016829B10168DFF810241160002130
S113274001601220FFF7D4FFDFF804144FF4802057
S11327500860DFF80004016841F00401016001BD74
S113276080B5DFF8F40304210160416821F004011D
S113277041601220FFF7BCFFDFF8E0134FF4802024
S11327800860DFF8C803006810B1DFF8BC13086004
S113279001BDDFF8CC2352F82000426892884089BA
S11327A0401A8242B4BF0120002070473EB504465F
S11327B0012C1CBF022C032C15D1DFF8A453FFF706
S11327C0A1FF55F82400C06801AB6A4602A900F0D5
S11327D0D2FF55F8240002890099006889B200F0FC
S11327E003F8FFF79AFF37BD70B504460D46164649
S11327F0FFF788FFE088A8420CD22188091A6918DB
S113280091FBF6F206FB12112180A1886918081ABF
S1132810A080E580BDE870407FE72DE9F8430446D9
S113282015461E460027DFF83C83DFF8349359F839
S11328302700C168A14210D102890068B1B2FFF734
S1132840D3FF59F8270002680021D180434601894B
S1132850C0684A08294600F0E7FF7F1C042FE6DB26
S1132860BDE8F1832DE9F84380461D460026DFF8D4
S1132870F09259F82600C068404514D1FFF742FF92
S1132880F7B259F8270041684A884389ACB2A218C4
S113289092FBF3FC03FB1C224A8040688188091BDD
S11328A08180FFF73AFF761C042EE2DBBDE8F1835A
S11328B070B5032821D1DFF8A82202EB8004012897
S11328C02268236A136018BF0328236953600FF238
S11328D0A42333F8103013810FF2902333F810300F
S11328E0538124D1E06CD060206B8861206CC86176
S11328F0E06C00F057FE10B170BD012070BD20687F
S1132900DFF86052018900684A0800F10801E06CB0
S11329102B4600F089FF216808680E8900EB5600F9
S113292000F10801E06C2B46720800F07DFF0020E6
S113293070BD10B50446FFF739FFDFF8240250F8E4
S113294024000068808810BD70B50646032E0C462E
S11329500AD1FFF72BFFDFF8085255F8260000686C
S1132960808818B9262070BD012070BDFFF7CAFE0B
S113297055F82600006841880844007A207055F80C
S1132980260001684A880389521C92FBF3F403FB76
S113299014224A8000688188491E8180FFF7BDFEA9
S11329A0002070BD38B504006D4D06D1286840681C
S11329B0808800B10120C0B232BD012C1CBF022CA2
S11329C0032C15D155F824004168898871B9C06871
S11329D000F0E8FE50B955F82400C06800680069AA
S11329E0400900F0010080F0010032BD012032BD39
S11329F0002032BD02B5032802D10122694601E05C
S1132A00012002BD00F01EF802BD10B503280BD151
S1132A1013460A4603210FF22D0000F0C4F80024E7
S1132A2000B90124204610BD012010BD0CB480B5AE
S1132A30032803D102AAFFF7E8FF00E0012002BC4B
S1132A405DF80CFB2DE9FC470328894618BF0120DB
S1132A5047D1434CDFF810A1032654F8260000F0B8
S1132A6045F80025002729E000210320FFF791FE07
S1132A700028F9D0FFF746FE54F826004068028883
S1132A8019F8011B10447F1C017254F8260000F051
S1132A9033F854F826004068008878B9FFB23D4600
S1132AA054F82600C06853462A4600F01CF8002853
S1132AB0F6D154F82600406800F108089DF800108B
S1132AC0F8B28842D0D38D420ADA9DF80000421B46
S1132AD054F82600C068534600F005F80028F4D1E5
S1132AE00020BDE8F687414600F0CABE4068018870
S1132AF0084400F10808704741680A884389521C59
S1132B0092FBF3FC03FB1C220A8040688188491C69
S1132B10818002E6032805D1114B53F82000C068D8
S1132B2000F052BE0120704710B50446032C01D0BA
S1132B30012010BD2046FFF735FF0028FAD110BD53
S1132B4080E200E0787900200C300C40E07800202E
S1132B5000E100E04CC8004048C8004080E100E0CB
S1132B60987000201B280000652800008000800069
S1132B7080008000400040004000400070B51346D3
S1132B80104402E0A4192C705B1EDCB24CB101F0BD
S1132B900F060909451E0A2E2846B4BF30243724DF
S1132BA0F0E7104470BD2DE9F04F804693B001A8C2
S1132BB0894616469B4601AD00248DF800001BE0B3
S1132BC05BF804AB04224FEA1A412846FFF7D6FF0C
S1132BD004221FFA8AF1FFF7D1FF054611A88542A6
S1132BE009D39DF800002F1A00F096F8002831D17F
S1132BF03C19E4B201AD761C9DF800002F1A307820
S1132C00010007D0252802D005F8010BE6E716F8E5
S1132C10010F002876D02528F6D0322818BF342892
S1132C205FD0582857D063280CD0642818BF6C286C
S1132C3025D0702818BF732807D075281FD078288E
S1132C4049D0CBE75BF8040BDEE75BF804AB00F09C
S1132C5063F800285CD13C19E4B201AD002700E020
S1132C607F1CFFB21AF807000028F9D13A465146F2
S1132C704846C04700284BD13C19E4B2AEE75BF8A4
S1132C80040B0021002803D52D2129704042012185
S1132C904FF0000C00220FF2880757F8227000232F
S1132CA001E0C01B5B1CB842FBD2DFB2002F08BF9F
S1132CB0BCF1000F05D0C9B230336B54491C4FF03E
S1132CC0010C521C092AE6DBC9B230306854481C96
S1132CD0C0B22D1882E75BF8041B0222C9B2284651
S1132CE079E716F8010F78281CBF5828761EF1D111
S1132CF016F8010C32287FF463AF5BF8040B81B241
S1132D000422ECE700F008F810B93819C0B200E06A
S1132D10002013B0BDE8F08FFAB201A9484640473D
S1132D2000CA9A3B00E1F5058096980040420F00E6
S1132D30A086010010270000E803000064000000E2
S1132D400A0000000D48016821F480310160016F20
S1132D50490849000167704710B5FEF713FC0446A3
S1132D60FFF7F0FF064800F00DF80448052101675D
S1132D70016841F480310160204627E024ED00E041
S1132D80F870002038B504460525204600F0DCFD27
S1132D9010346D1EF9D1BDE8314000F0FDBD80B5A1
S1132DA0FFF7D0FFBDE8014000F0F6BD10B50446C2
S1132DB0FEF7E8FB6209014902E000BF3871002018
S1132DC0520142F014024A6000220A70BDE8104029
S1132DD000F000B880F311887047000000B500BF10
S1132DE0130096469446103928BFA0E80C50FAD830
S1132DF05FEA417C28BF0CC048BF40F8042BC907D8
S1132E0028BF20F8022B48BF00F8012B00BD0000AA
S1132E1080B500F011F83149314B0A684968C2F3B2
S1132E208232521CB0FBF2F001F00F01C84018606E
S1132E30186802BD2B4870472B482C49026A02F4DB
S1132E407052B2F5006F08D0B2F5805F04D0B2F5CD
S1132E50005F04D14868704736E00868704700682E
S1132E60234910F4E0601ED0B0F5807F14D0B0F593
S1132E70007F0FD0B0F5407F0AD0B0F5806F05D049
S1132E80B0F5A06F0CBF1B48002070471A4870476C
S1132E901A4870471A4870470868000E1328ACBFD8
S1132EA01848194870470868000E1328ACBF174823
S1132EB0174870470D48006870471648016841F488
S1132EC070010160704700BF4FF4004070474FF439
S1132ED07A707047054840687047000000800C40D5
S1132EE0F4760020006CDC020C800C40906F002013
S1132EF0FC81E00F003FAB01406F4001809FD50093
S1132F00C0D8A70040B56400C0CF6A00804F12004B
S1132F1040420F0088ED00E02DE9F04104460C2109
S1132F20206990FBF1F202EB4201B0EB810144BF56
S1132F300C31521E002A47D56069C2F10043984201
S1132F404ADB60691518284600F02EFD40F26D1822
S1132F5008FB0500A168E56862682368DFF880C0A3
S1132F60DFF87CE018274FF4B46691FBF7F72818D4
S1132F7092FBF6F6381893FBFCFC30186044194DAC
S1132F80281807EB4705A1EBC5014FF461656943B8
S1132F900EFB00104FF4B46101FB1621C1EB0112CA
S1132FA000EB820018180EFB1C05226A29462046F5
S1132FB000F017FD206A0128A8BFA5F5616500F09F
S1132FC013F8281ABDE8F081012ABADB6FF000403B
S1132FD06369801A9842B4DA4FF0FF30BDE8F0819B
S1132FE080510100209CFFFFF0B5244E83B0304691
S1132FF000F09EFD0446224D284600F099FD00682D
S113300008B900F097FD284600F092FD0546301DF2
S113301000F08EFD064628682168814228D0007899
S113302010B900F09DFD28606A462868022100F06E
S11330309CFD074600230A2201A900F0B7FD306079
S11330400199009AC91B914205D100F2135040F630
S11330502721884201D3002030606421306890FB2E
S1133060F1F101EB8102C0EBC200306028682060FE
S11330703068A0EB0011880003B0F0BDB4710020EB
S1133080E871002010B50446FFF7AEFF2168BDE8E3
S1133090104041184FF0FF32002000F0A2BC0000A5
S11330A0174908804FF6FF71884205D0010A05D1FF
S11330B012490978084002D0012070470020704767
S11330C070B50C4615461E46FFF7EAFF50B132466E
S11330D029460320FEF79BFA24B1BDE87040032083
S11330E0FEF777BA70BD0CB480B50A4602AB012175
S11330F0FFF7E6FF01BC5DF80CFB0000AF71002098
S1133100EE780020012202FA01F12423DFF8B82727
S11331105843104441617047012202FA01F124230B
S1133120DFF8A427584310440161704772B6DFF8F2
S11331309C07016811F1010F1CBF491C0160006864
S11331407047DFF88817086818B1401E086000D17E
S113315062B67047427CDFF87017807C24235A43A0
S113316011441C31800000EB411000F184400068E0
S1133170C0B2704738B50021DFF8542702EB810252
S11331805468A27C824203D0491C0429F4D300244D
S1133190207C022815D1204604F13005FFF7DAFF20
S11331A02870687802280CD12046FFF7D3FF08B1B5
S11331B0E87818B10020E870042000E008202168B5
S11331C0C86031BD80B500F1100200F13003117800
S11331D0022910D15878010003D0012806D01878AC
S11331E020B91179D078FFF78DFF11E01179D078EB
S11331F0FFF792FF0CE001290AD1197800290CBFCE
S1133200112113218DF800100122694600F0DCFA27
S1133210002002BDF8B504460E461546FFF786FFAA
S1133220A088E188884206D300202860FFF789FF40
S1133230DFF8A006F2BD2088142778432044142226
S113324031460830FEF758FC208807FB00F1214482
S113325008312960401CE18890FBF1F201FB120067
S11332602080A088401CA080FFF76BFF0020F2BDE7
S113327038B504460D46FFF759FFA088010002D176
S11332800020286022E0618814224A432244083244
S11332902A60491CE28891FBF2F302FB1311401EE1
S11332A06180A0800EE038B505460C46FFF73EFF6E
S11332B0A88808B9206009E0688814214843284494
S11332C008302060FFF73DFF002032BDFFF739FFD3
S11332D0DFF8040632BD00680121C1600169C90735
S11332E0FCD5416D41F00101416570470068416DB5
S11332F04908490041650221C160704700B585B0A5
S1133300012280F8442004900FF2510200F01EF8CC
S1133310026802F11C030A68C16A406A00F0F9FC01
S113332005B000BD00B585B0012280F845200490A9
S11333300FF2C50200F00AF80B68016801F13402CB
S1133340816A006A00F0DFFC05B000BD0392002230
S113335002924A68019201220092704770B51446A5
S113336004F1300582B0E86800F074F82068016C5C
S1133370890507D50099DFF8640500F037F84FF4A4
S1133380007009E0006CC00509D50099DFF850050C
S113339000F02CF84FF480702168886401E000F09C
S11333A053F8FFF7C3FE0098C668300009D00098B0
S11333B0009940688968431A0098026801692046A8
S11333C0B047E8686946FFF753FFE868818821B190
S11333D000F040F800F044FA07E0012000F044FA5D
S11333E0002028752046FFF781FF29E00861009836
S11333F0009940688860704770B5144604F1400530
S113340082B0286800F026F800F01EF8FFF78EFE60
S11334100098C668300005D000984368026800210F
S11334202046B04728686946FFF722FF286881884C
S113343021B100F00FF800F037FA01E000206871C4
S1133440FFF77FFE012076BD0099002008610099F6
S113345088607047694626E710B9DFF8880470472A
S1133460002918BF002A02D0B2F5806F02D9DFF814
S1133470780470470020704738B50A460446DFF8E0
S11334806C342168207A994204F1340530D1002843
S113349044D0012825D10320A87000210123E9701C
S11334A02870002AE978A8786B705BD00123042285
S11334B000F0C3FD697828780023012200F0BDFDE7
S11334C0207C022868D1A17C607C0023012200F0CA
S11334D0B4FD217DE07C0023042200F0AEFD012038
S11334E053E002281AD10320A87007210623D6E747
S11334F0DFF8FC33994206D180B101280ED1A870BF
S113350003210423CBE7DFF8EC33994212D128B12D
S1133510012808BF0420BFD0022804D1FF20A870CE
S1133520FF21FF23BBE70328F8D10220A8700E2156
S11335300F23B4E7DFF8C033994210D120B9022039
S1133540A8700C210D23AAE7012818BF0228E5D092
S11335500328E3D10420A870022103239FE7DFF8A6
S1133560880332BD002300F068FD6978287800F0F4
S113357015F8207C02280FD1A17C607C00F00EF8A5
S1133580217DE07C00F00AF8002000900123012254
S1133590A17C607C00F025FD002032BD00230022C8
S11335A000F04BBD70B586B004460D4668460FF278
S11335B080311822FEF7B0FA002C7BD0002D00F0E9
S11335C0A38048212046FEF7E7F8DFF804030178DA
S11335D041B9002200EB8103491C04295A60F9D344
S11335E001210170002100EB81025368002B18BFF8
S11335F0A3425CD1546004F130062868DFF8EC1271
S113360088425AD1DFF8F402B060DFF8F402A06215
S11336104FF45020E062202229462046FEF76CFA3F
S1133620A869F060002101800020F1684880F168F9
S1133630888030750021E86930610180002031699B
S11336404880316988807075F07001216868029043
S11336506889ADF81000A889ADF80E00A87B8DF834
S11336600C00E87B8DF8120005208DF80D00DFF8C2
S11336709402FEF748FC0121DFF88C02FEF743FCBC
S1133680B0680121FEF73FFC00208DF80000694678
S1133690286800F063FD287A2968000240F00300DE
S11336A0486501212046FFF7E7FE80B361E0491C2D
S11336B0042998D3DFF82C025BE0DFF83412884247
S11336C008D1DFF84802B060DFF84402A0624FF48A
S11336D060209FE7DFF81C12884208D1DFF834022B
S11336E0B060DFF83402A0624FF4301092E7DFF8E4
S11336F00812884208D1DFF82402B060DFF8200203
S1133700A0624FF4341085E7DFF8DC0131E0FFF705
S11337100DFD00F0A6FDA87CDFF8081200F0AFFD57
S11337200020B0703070022070702046FFF74AFD10
S113373028684FF0FF318164042100F008FD2968F6
S11337404FF44060C86000F0B4FA002104F1200096
S113375000F084FA28B9002104F1240000F07EFA74
S113376020B1FFF7EEFCDFF8C00102E0FFF7E9FC4F
S1133770002006B070BDF0B5044683B0E06B0D4682
S1133780818816461F4649B101A9FFF78CFD606A7E
S1133790694600F0D9FA00F00DF802E00020386024
S11337A0306003E0006C8088C0B2704728602068F5
S11337B00069FEBD019800994068401A3060009885
S11337C0386001980068704770B506460C46154687
S11337D0FFF742FE38BB306C80880028FBD130688C
S11337E0016911F002010FD10422C260026992073B
S11337F0FCD5426D42F00202426505E002695206C0
S1133800FCD514F8012B42632A46551E002AF5D133
S113381002699206FCD529B9416D21F00201416586
S11338200821C160002070BDF0B587B000F03FF8FA
S113383078B900F01DF8049700F00DF848B9287D18
S113384030B92046FFF747FD00F00AF800F00BF806
S1133850002007B0F0BD6A46E86801A9FFF7DABCAA
S1133860009920464AE5002028702046FFF7AABCAC
S1133870019504F130052D48059002960396704792
S1133880F0B587B000F013F860B900F015F80497AC
S11338906A462868FFF7E1FF20B9687908B900F0A3
S11338A003F8002007B0F0BD009920463AE504462D
S11338B00D4616461F46CFE5019504F140051B4809
S11338C005900296039670470060004078790020C6
S11338D0E47900200A7000F00B7000F00D7000F025
S11338E00C7000F0027000F0037000F000C400409F
S11338F000C8004000E0004000E400400012040062
S113390001000D004081040000D2040000220400E4
S113391001000E000032040001002C0000420400EB
S113392001002D00753100000E7000F0017000F0F0
S1133930050000000000000000C2010000050000B6
S1133940001000000000000012490A6842788A60F2
S11339500278DAB14268CA60437A827A1B0643EA83
S11339600272C37B42EAC342C37A42EA8342037BC4
S113397042EA4342437B42EA0342837B007A42EABF
S1133980032242EA400040F0010001E00020C86048
S11339900861704790ED00E0BFF35F8FBFF34F8F76
S11339A0BFF36F8F70470000012804DB421E5310E1
S11339B002EB937205E010F1030F04DA421000EBFE
S11339C09272921000E0002210F0030F00D110B99F
S11339D00FF2441001E00FF2281030F911008018A2
S11339E070472DE9F84F04464248401815460090A8
S11339F01CB9414800F09CF8044625624FF4616507
S1133A000098DFF8F8A00FF210160FF2F4076FF029
S1133A10020840F26D1902E0009800F56160514619
S1133A20B0FBF1F14B1C4FF0070C93FBFCFCCCEB0F
S1133A30CC0CA3EB0C03A3614B4691FBF3F300E026
S1133A405B1E012B05DB5A1E4FEA620E02EB9E72CF
S1133A5004E0434505DA5A1003EB92724FEAA20CD4
S1133A6001E04FF0000C13F0030F02D10BB1BE467E
S1133A7000E0B646BEF90020944409FB03CC61453E
S1133A80DEDBA1EB0C0213F0030F6361E26100D1F2
S1133A900BB9334600E03B464FF00C0C03F1180E13
S1133AA03EF902BD5A45ACF1010CF9DBC4F810C073
S1133AB00AFB110033F91C302946D21AB0FBF1F18C
S1133AC0521CA160E26005FB11003C21B0FBF1F146
S1133AD0C1EB01126160A0EB82002060206A002823
S1133AE005D5204600F012FC0128206294DA204615
S1133AF0BDE8F28F807EAA83BC7100208051010052
S1133B0000001F003C005B0079009800B600D5005F
S1133B10F400120131014F0100001F003B005A0064
S1133B2078009700B500D400F300110130014E0174
S1133B307047000038B5084C2046FFF7F9FF0068CD
S1133B4048B92046FFF7F4FF0FF210050560201D69
S1133B50FFF7EEFF056031BDE871002000000000B2
S1133B600FF20400704700003A00F8B504460D4611
S1133B702078002816460CBF002714F8017B01E0CA
S1133B806D1E441C3946204600F05AFC18B92046E4
S1133B9000F062FC2044012D03DA001B3060204653
S1133BA0F2BD01780029EBD13160F2BD2DE9F0417D
S1133BB082B080460E001D4608BF6E46474600E0B0
S1133BC07F1C3878A0F109010529F9D32028F7D002
S1133BD02D2816BF2B2817F8014B2B2431463846C5
S1133BE000F056FC31688F4208BFC6F80080316887
S1133BF0884514D120B92D2C16D1B0F1004F15D918
S1133C0000F012FD222101600DB1012028602D2C4D
S1133C1014BF6FF000404FF00040BDE8F6812B2C3C
S1133C20E9D1B0F1004FEBD2BDE8F6814042BDE8E6
S1133C30F681000072B6DFF84003016811F1010F4C
S1133C401CBF491C016000687047DFF82C1308682A
S1133C5018B1401E086000D162B6704738B500F054
S1133C6023F810B9DFF8140332BD14B9DFF81003D8
S1133C7032BDFFF7DFFF0020DFF8081314224243B0
S1133C808B181D7C45B920600120187400208850D1
S1133C90FFF7DBFF002032BD401C0428EEDBFFF7FA
S1133CA0D4FFDFF8E40232BD0446DFF8E002007816
S1133CB0704700B583B0FFF7BDFFDFF8D00201788D
S1133CC021B1FFF7C2FFDFF8C8020EBD0121017068
S1133CD0FFF7BBFF0020DFF8AC120022142343439C
S1133CE00B44401C04281A74F8DBDFF8A812802067
S1133CF008708DF80020DFF8A0020190684600F0FB
S1133D007AFD00200EBD10B588B000F012F8002135
S1133D1004E010B588B000F00CF801210B9C049469
S1133D2000200A9C03940024029400F06BF808B06D
S1133D3010BD0E9C0794019300920B460D9C0694B3
S1133D4002460C9C05947047F8B50546FFF7ADFF95
S1133D500C4600B924E0052D00D204B922E000F09D
S1133D6016F800B920E0FFF765FF8B4800EB05105B
S1133D708068C0F3091600F010F826B9EF40F80780
S1133D8048BF002000D4701C20600020F2BD142124
S1133D907C4869430844007C70478148076854E7BD
S1133DA07648F2BD7648F2BD7C48F2BD14227549CE
S1133DB042438B18196829B199685A68491C99605B
S1133DC01B68184770473EB514236E4A4343D51801
S1133DD00C462A6801214AB1A9686A682B68491C03
S1133DE0A960984700F0010080F0010102910023CE
S1133DF0E868401E0190002200200090214600F057
S1133E0014FD37BD2DE9F04F04466048884601781B
S1133E1089B0164609B95948AAE0052E11D2129F55
S1133E20002F1CBF139D002D0BD0DDF85890B9F561
S1133E30806F06DCDDF850A0012C08BFBAF1000F3A
S1133E4001D14F4894E014224E4972431144009129
S1133E50097C09B951488BE00C21714308442100C5
S1133E600CBF504950494160002181608DF8181001
S1133E70DDF860B0BBF1000F01D1012C03D10121A9
S1133E808DF8191001E08DF819B0001D0890079302
S1133E9006A9304600F075FC179815995FEA0803E7
S1133EA012D151B1010008BF002107D0012808BF79
S1133EB08DF8110004D0022100E003218DF81110C7
S1133EC003218DF8101011E051B1010008BF002149
S1133ED007D0012808BF8DF8100004D0022100E0AB
S1133EE003218DF8101003218DF811108DF81200A4
S1133EF004AA00208DF813008DF814000121304627
S1133F0000F05FFC012C04D104AA0021304600F02B
S1133F1058FC0098C0F800B0009919984860002037
S1133F200099886000982149C0F80C900120B040A5
S1133F300860A9F1010044B9019000953B460022B4
S1133F400121304600F0EBFB11E0B8F1000F0390C3
S1133F50CDF808A003D1019700902B4602E001950B
S1133F60009053463A460021304600F0EBFB002017
S1133F7009B0BDE8F08F000078790020028000F0DD
S1133F80018000F024790020048000F0F078002003
S1133F90038000F000E400E000720020078000F0DD
S1133FA000300C40AD3D0000C73D000008300C401F
S1133FB0890001EB401000F1844002607047012247
S1133FC002FA01F12423394A5843104441617047ED
S1133FD0012202FA01F12423344A584310440161B6
S1133FE07047F8B51D460F230C46082C304905D2FE
S1133FF0A6000F6800F01BF8086006E0A4F10806AC
S1134000B6004F6800F013F8486021462948FFF7CE
S1134010CFFF2A4621462848FFF7CAFF2748012137
S1134020A140C1602146069ABDE8F840C0E7B3400C
S113403027EA0303B04018437047F8B50446164610
S113404030000D461F4607D0002F204602D0FFF750
S1134050BFFF01E0FFF7B3FF24210F2213486143A0
S1134060082D084409D2AB0041689A4021EA0202B3
S113407006FA03F1114341600AE0A5F108039B002D
S113408081689A4021EA020206FA03F11143816031
S113409056B9002F294620461CBFBDE8F440FFF75F
S11340A097BFBDE8F4408AE7F1BD0000006000401E
S11340B000610040086100400C6100401061004054
S11340C070B50446080015461E4604BF5848FDF75F
S11340D064FF310006D0202E18D0402E18D0602E58
S11340E018D070BD1021226822F06002226069435A
S11340F02268324322604A0802EB8000B0FBF1F0F0
S1134100001F4C4901EA8010606170BD0821EAE794
S11341100621E8E70421E6E770B50446154619B917
S11341204348FDF73AFF01464A000023681E002178
S1134130101859412A4600F0E3FB66693E498001A4
S113414040386FF3941608403043606170BDCA4331
S1134150520002F00A02C260C160704738B50446DA
S11341600D4600F049F8A87C18B1206840F0804062
S11341702060E87C18B1287D40F01000A065687BC1
S1134180B5F910100843B5F90E10084360602B7B95
S1134190AA6869682046FFF793FF2AE038B5044609
S11341A00D4600F029F8A87B08B14FF4806021681F
S11341B0B5F91020104340F0010008432060287D29
S11341C008B14FF00050216808432060A87C18B162
S11341D0E87C40F01000A065287B40F480506060CB
S11341E0AA6869682046FFF797FF687B08B110202A
S11341F0E0602878E06031BD40F6AA61C16000212A
S1134200016041F205014160002181604161C164A6
S113421041F6F9718164002141658165074988424D
S113422019BF074988420021C1657047000000009A
S113423040810400C0FF1F0000FF1F0000C40040B5
S113424000C80040012100F01F029140244A04E00C
S1134250012100F01F029140224A400942F8201037
S1134260704780B50B20FFF7F3FF0B20FFF7EAFF41
S11342700120FFF7EDFFBDE802400120E2E710B5A1
S113428072B6194A194C136813F1010F08BF44F8A8
S1134290201004D05B1C136044F8201004D0106874
S11342A0401E106000D162B610BD38B504460F4DF3
S11342B00CE094FAA4F0B0FA80F0012181408C4320
S11342C055F820100A001CBFC0B28847002CF0D15A
S11342D031BD074908684A68104045F2555212E05A
S11342E000E100E080E200E078790020807900209D
S11342F010610040004901E01061004008684A680C
S113430010404AF6AA221040C860CEE72DE9F843CF
S113431004464748474FFFF70BFC80464648FFF7E3
S113432007FC05463846FFF703FC006808B9FFF7A9
S113433001FC3846FFF7FCFB06464048FFF7F8FB54
S11343400746D8F800103868814220D0007878B940
S11343503068007810B9FFF703FC30606A463068B3
S11343600321FFF702FC3860017809B1401E386070
S1134370386800F052FB060008BF4FF0FF3054D0FD
S1134380286800F0E3FB2E603868C8F800000021BC
S11343906069FFF709FB8046E169A0682D6801EBBD
S11343A0410200EBC207606940F26D1101FB00801D
S11343B0401C072190FBF1F1C1EBC101401A4FF001
S11343C0000900F10E0600E06D1D2878FF282BD0AF
S11343D0606929798842F7DBE978FFF7E5FAA9787B
S11343E0A0EB0800081829780A000DD03218521AD8
S11343F0072392FBF3F3C3EBC303D21A1CBFC01D04
S1134400801A0829B8BFC01F00EB4001687800EB90
S1134410C100874208DB2879697A88420CBF89F099
S113442001094FF00009CFE74846BDE8F28300BF19
S1134430F0710020E8710020F8710020EC71002078
S11344400278C9B28A421AB11CBF10F8012FF9E7E9
S113445018BF00207047000000F10103810704D059
S113446010F8011B89B18107FAD10268B2F1013158
S1134470914311F0803F04BF50F8042FF6E710F881
S1134480011B11B110F8011BFBE7C01A70470000B3
S11344902DE9F04F85B004461E000D4690461CBF22
S11344A000203060A14601E009F1010999F80000FB
S11344B0A0F109010529F7D32028F5D02D2816BF2E
S11344C02B2819F8017B2B27B8F1000F57D4B8F12A
S11344D0010F54D0B8F1250F51DAB8F1010F0DDBFB
S11344E0B8F1100F04BF99F80000302802BF99F802
S11344F0010040F02000782814D10EE099F8000063
S1134500302818BF4FF00A080CD199F8010040F088
S11345102000782804D14FF0100809F1020901E0C5
S11345204FF00808CDF8109001E009F1010999F85D
S113453000003028F9D00FF2A00B4FF0000ACDF89C
S11345400C908DF808B00AE09DF80810CDF804A08E
S1134550401AC0B2009008FB0A0A09F1010999F84F
S11345600010A1F141001A2838BF203142465846B4
S113457000F02CFB0028E7D10498484503D105B18D
S11345802C60002025E00FF27801039811F8081040
S1134590A9EB0000401A14D4012808DA0098BAEBF9
S11345A0000004D30199B0FBF8F0884209D000F070
S11345B03BF8222101600EB1012030604FF0FF3A38
S11345C003E02D2F08BFCAF1000A0DB1C5F8009011
S11345D0504605B0BDE8F08F3031323334353637CC
S11345E038396162636465666768696A6B6C6D6EAD
S11345F06F707172737475767778797A0000000041
S113460000002115110E0D0C0B0B0A0A09090909EA
S1134610090808080808080807070707070707071D
S113462007070707070000000148FFF781BA0000E9
S1134630F4710020890001EB401000F18440026015
S11346407047F0B5DFF88442266806EB00161700C1
S113465012BF3546676807EB0015F66806B132727B
S1134660069F079E57B1D5F808C0CCF3816CBCF106
S1134670030F1CBF06FA0CFC67442F60059F57B15B
S1134680D5F808C04FEA9C7CBCF1030F1CBF06FAA6
S11346900CFC67446F60012707FA00F0002B14BF7D
S11346A020616061002A14BFE062A062A86800F083
S11346B0EFF80843A860F0BD2DE9F047844C20686A
S11346C0E16811EA000800D5FEE7DFF80092D9F8A6
S11346D030A00AEA08050226002718E0E80714D5E6
S11346E0D9F800000121B94000EB0710A160C068AF
S11346F058B1017A81F00102027203681A0004D0F1
S113470001B101214268384698476D087F1C002D8D
S1134710E4D1761E28EA0A05DED1BDE8F08710B59B
S113472084B00446079802900093134606980190BB
S11347300A46012100F004F800F01EF81FBD032111
S113474020467EE7FEB504460B9802900D460A9873
S113475001901646099800901F462B460022FFF749
S1134760EEFF08980290019700962B460122FFF76E
S1134770E6FF00F001F8F7BD01205649A0400860AB
S1134780704710B5514A13688C6803EB0013DC6062
S1134790012303FA00F40B78002B14BF1463546351
S11347A04A684D4B43F8202049784C4B00291DBFE3
S11347B04B490C6001220022BDE810400146184616
S11347C038E730B5414B1478002914BF196859688B
S11347D093781D0745EA8474557844EA856444EA6D
S11347E003631479D27843EA844301EB001043EA6B
S11347F08232826030BD10B5044601213948FDF78C
S113480082FB00F04AF83849012008603749086003
S11348104FF00040314908603548616841602178B3
S1134820490141F00101016010BDF0B5079C274D1D
S1134830059F069E002C14BF01240324002914BFE5
S11348402968696801EB001157B1D1F808C0CCF3AD
S1134850816CBCF1030F1CBF06FA0CFC67440F60AB
S11348604BB18F684FEA977CBCF1030F1CBF06FA6B
S11348700CF7FB184B60012303FA00F0002A14BF65
S113488028616861886800F003F820438860F0BDFF
S1134890184A104040EA0610704717490120086082
S11348A000211348016040F6FF7181610162816259
S11348B001638163012181640021094841600F493A
S11348C0016030210448FCF767BF000008200C4059
S11348D000300C4028200C4000310C400C300C40BF
S11348E008300C400003020080E200E000E100E038
S11348F004200C4008C0FFFF80E100E0FF0F0080AF
S11349001B4213D1094236D12AB18446B0FBF2F0DE
S113491002FB10C2704700F085B9FCD300220023CB
S113492070470B000200002100207047904271EB99
S1134930030CF6D370B5B1FA81F4B3FA83F52C1BEA
S1134940A340C4F1200532FA05F63343A2405FF0D8
S11349500046E64002E05B085FEA3202841A71EB2B
S1134960030524BF204629467641F4D302000B00F8
S11349703000002170BD012ACFD970B5140C20D0AD
S1134980B1FA81F4B2FA82F5C4F120046419B4F1E5
S11349902006D6D3B2405FF00044F440002502E084
S11349A052085FEA3303C61A71EB020E24BF304685
S11349B0714664416D41F3D302000B0020002900CD
S11349C070BD0C46B1FBF2F102FB11452D0445EA22
S11349D01045B5FBF2F402FB145580B240EA0545DC
S11349E0B5FBF2F002FB105240EA044070BD002215
S11349F0491E0CD40378303B0A2B08D202EB820305
S1134A0010F8012B02EB4302303A491EF2D500297B
S1134A1058BF4FF0FF32104670472DE9F04105466C
S1134A2015F8018BB8F1000F00F08D80284602269E
S1134A3001E0401C761C4146FFF702FD0028F8D136
S1134A4006EB860000F0F0F806007CD00027344620
S1134A5000E0641D287828280BD10421681CFFF786
S1134A60C6FFA0F26C77002F6AD46879292867D131
S1134A70AD1D277102212846FFF7B9FF401EE070E3
S1134A80AD1C2846002101220378303B0A2B08D2B2
S1134A9001EB810310F8011B01EB43013039521E75
S1134AA0F2D5002A54BFFE20481EA07015F8020F4C
S1134AB030380A2813D22846002101220378303BDB
S1134AC00A2B08D201EB810310F8011B01EB43010F
S1134AD03039521EF2D5002A03D4FF2101E000210F
S1134AE000E0AD1C6170E0780C28BFBFA07864289A
S1134AF06078642824DA28782B2818BF2D2802D05F
S1134B000020207010E06878A0F13001072917D246
S1134B1030280CBF07203038207028782B2802D189
S1134B202078C01D2070AD1C287828B9FF20607142
S1134B3067723046BDE8F08115F8010B404588D016
S1134B40304600F003F80020BDE8F08100B970475A
S1134B5038B5A0F108042068082833D310F0070FF3
S1134B6030D1C046C0461848416809B18C4203D2CE
S1134B706160446017E019464B680BB1A342FAD355
S1134B800B68CD18AC421BD3A54204D12268D218BD
S1134B900A600C4607E04A681AB1236823449A4223
S1134BA00ED362604C60616851B12268A3188B42D5
S1134BB006D100230360086880182060486860609C
S1134BC0C046C04631BD0000E47E0020C9B2830760
S1134BD006D0521E22D310F8013B9942F7D11FE0B0
S1134BE0083A13D302F1040241EA012141EA0141E6
S1134BF050F8043B121F21BF4B40A3F1013C2CEAA7
S1134C00030C1CF0803FF3D0C9B2001F083210F827
S1134C10013B521E28BF91EA030FF8D818BF0120A8
S1134C20401E70477047000070B5054605F10F003F
S1134C30C408C046C046E400A54232D2082C04D2BF
S1134C40082402E00830FFF781FF224802681100BF
S1134C500CD1011D0A6802B31368A34238BF111DA9
S1134C60F8D310E01D68A5420DD2191D0B68002B66
S1134C70F8D11268011D00E0191D0B6893420CD095
S1134C801D68A542F8D361B10D682A68A2F1080332
S1134C90A3420AD26A680A600FE000F01DF80028F7
S1134CA0D0D1C046C046002070BD2B190B60121B2A
S1134CB06E685E600B681A602C60096800291DBF6D
S1134CC04A68002A091D00210160C046C04605F15A
S1134CD0080070BDE47E00200749086808B1002080
S1134CE070470648C008C00008600549C908C900E3
S1134CF0091A0160704700BFEC7E00200700000025
S1134D0000000000184A19481178002912BF0078E1
S1134D10408880000102101D00F049B838B500F049
S1134D203CF90446104D0020287100F01FFA60B1D0
S1134D300F480078032818BF042806D1EC60FFF759
S1134D40E1FFBDE8314000F08DBA31BD80B500F01F
S1134D500DFA40B106480078032812BF0428BDE8C4
S1134D600140FFF7CFBF01BDE47600209A71002017
S1134D70F47E002038B544784568FCF703FC7C4A8F
S1134D800C2161438B585B1BB3F1004F98BF8D50CE
S1134D90BDE83240FEF71EB810B5044600F0FDF839
S1134DA06060042020702046BDE81040E2E738B57A
S1134DB004460D4600F0F1F82818606001202070C8
S1134DC02046BDE83240D5E770B5044600F0E5F86A
S1134DD00546FCF7D7FB064660686FF0004100F01B
S1134DE02CF8401920603046BDE87040FDF7F2BF52
S1134DF070B504460D46164600F0CFF8002156B1B2
S1134E00FF22327007E0121AAA4202D2154606B1F6
S1134E103170491C083422680AB9284670BD1378D9
S1134E20002BF6D0042B04D05268831AB3F1004F40
S1134E30E9D806B13170002070BD0022D8E738B53A
S1134E40044600F0AAF805460DE0017851B10429A2
S1134E5004D04168691AB1F1004F03D804210170EC
S1134E6061688847083420680028EED131BD10B548
S1134E703F490C2202FB001400F08FF82168401A0D
S1134E80B0F1004F06D86068FFF7D9FF2046BDE8AF
S1134E90104099E710BD70B5364D3749097804467E
S1134EA06878884204D3E5210FF2D000FCF7AEF80D
S1134EB06E78701C68700C212D4801FB06000121DE
S1134EC04460017200E04E7054F8081B0029FAD1C6
S1134ED0FFF77AFF304670BD00207047F8B50546ED
S1134EE04FF0FF300090234C207840B300F0F8FBE3
S1134EF028B940F223110FF28400FCF787F800F080
S1134F004CF81B4A0C2101FB052300251D720023CC
S1134F1005E0009EB54288BF354600955B1C657868
S1134F20DBB2AB420FD201FB03263568471BB7F156
S1134F30004F04D9367A2D1A0EB9002DE9D100F0AC
S1134F40D7FB0020F2BD002100A8FFF7C5FF10B970
S1134F5000A800F03EF80120F2BD054A0C2303FB33
S1134F600020012101727047024908707047000057
S1134F70A0740020007F002050DF00006576656E7D
S1134F80742D636F6E74726F6C2E630080B500F0C5
S1134F904CFD00F058FD80B202BD80B500F045FD27
S1134FA0BDE8044000F04FBD80B500F062FE1F482C
S1134FB000214160001D00F0BDFB20B14A210FF229
S1134FC07C00FCF723F8002002BD1849012008707A
S1134FD0704770B5044682B0226800250AB90020E3
S1134FE076BD00F01BF801200AE070B50C4682B0D3
S1134FF0226800250AB9002076BD00F00FF80220CF
S113500000F040FF307828B970688525214600F00B
S1135010D2FC01E025603570284676BD034E044B72
S1135020706835700095002100F0EDBBFC7A00201B
S1135030CB4F0000014600220020D6E77379737439
S1135040656D2D74696D65722E63000080B500F086
S11350504FFB00F021FFD0B90FF2C010FFF71BFF88
S11350606549087000F07CFF01F036FB01F00EFC8E
S113507001F02EFE012003F014F8604890F90000BE
S113508002F0EEFE00F006F903F092FB002002BDF0
S113509038B503F0ABFB002002F00AFD03F039FC45
S11350A0554C2078FFF7E3FEFCF76CFA054603F055
S11350B0FDFD10B92078FFF711FF2846FDF78AFEA1
S11350C0BDE83140FBF72CBF10B54D48007848B916
S11350D001F0C4FB30B101F0CBFC00F0010080F022
S11350E0010400E0012402F0A3FE18B102F0A0FEC6
S11350F0022801D144F0040403F0D8FD08B144F0BF
S1135100020404F05BF908B144F008043D48007857
S113511008B144F01004A0B210BD80B503F0C6FD80
S113512008B1002002BDBDE804404FF0FF310FF28A
S1135130EC00FFF782BE80B500F052FA00F043FAAB
S113514002F072FEBDE8024002F0ABBF80B52C480D
S1135150007820B1A4210FF2BC00FBF757FF012017
S113516002F093FEBDE8014003F0ADBD284800788D
S113517000F00F00022801D1012070470020704781
S11351802249088002F097BE2049488002F094BE6C
S11351901D490870012818BF002002F0B6BC80B574
S11351A01B490870022803D104F010FA902000E093
S11351B09120BDE8024004F0F9BAE0B51348018833
S11351C04088ADF80000ADF806100F48418800781B
S11351D0ADF808108DF8040002F086FC8DF8030089
S11351E002F087FC8DF802000A2300AA7F21032025
S11351F000F083FE07BD0000037F0020A97100209A
S1135200307D0020D17D0020F47E0020A27100209A
S1135210027F0020737461636B2E6300387D00206D
S11352202D880000087B0020AB520000D47D0020B4
S1135230BDA50000FC7B00206D8E0000347C0020A6
S1135240BF8D0000047C002009910000047D002033
S1135250B1680000C87D0020CD950000000000006A
S11352600000000080B5FFF781FF30B1DFF8400493
S11352700078032818BF042801D0702002BDDFF88D
S11352802C04417841F001014170001DFFF784FDB9
S1135290002002BD10B5DFF81C4404F007FB2070A9
S11352A004F004FB6070002010BDDFF8001400203F
S11352B008711EE170B504466078A17800F0070516
S11352C000F0AAF80ED1042100F010F906460421DA
S11352D000F00CF93119005D00F097F802D10121BA
S11352E0032001E00121022003F066FA607800F057
S11352F0080001280DDB012D0CBF012100212046EF
S113530004F05DFB28B1BDE8704001210D2003F0DD
S113531053BA0121204604F0C1FD012D07D1FFF746
S113532025FF88B12046BDE8704004F0BDBE032DC2
S113533004D12046BDE8704004F0ECBF25B92046F6
S1135340BDE8704003F067BE70BD2DE9F0410D4625
S11353500446687800F020010129A97800F00708C4
S1135360ACBF0127002700F057F80FD104212846CD
S113537005F0BEF806460421284605F0B9F871196F
S1135380405D00F042F808BF012600D0002668788E
S113539000F00800012809DB0021284604F00FFB77
S11353A020B1A1210FF22C30FBF730FE74B947B1C4
S11353B00121052003F000FA0021284604F06EFDC7
S11353C00DE0002E0CBF0420092005E08D2C06D131
S11353D0002E14BF0A200720012103F0EDF9B8F1D3
S11353E0010F07D1B14801782A462046BDE8F041B3
S11353F004F0CEBDB8F1030F05D129462046BDE81F
S1135400F04104F0F0BFBDE8F081497800EB0120E1
S11354104FF6FF718842704700EB0120801200F0C4
S11354200300022870472DE9FE4F83460C9C0D9F14
S11354300E9D9E4E884691469A46032005F0ACF890
S113544000060FD502950197009453464A464146FB
S1135450584601F051F9040004BF301DFFF79CFCCD
S113546020460FE09448007808B18C200AE086F8C2
S1135470008001950097234652464946584600F05D
S1135480BFF80020BDE8FE8F38B58C4C89496078A0
S11354900722104203D14A78521C4A7002E00A786B
S11354A0521C0A7000F008000128E2701CDB07217E
S11354B000F01CF80019451C04F050FA2870010A89
S11354C005F8011F010C05F8011F000E05F8010F76
S11354D0204604F061FA38B1BDE834404FF48271DB
S11354E00FF2F010FBF792BD31BD0621204604F007
S11354F0FFBF7148007800B1704710B56B4C6078FD
S1135500800790B007D56E48007802F0BEFC607842
S113551000F0FD0060706078C10738D500F0FE002F
S113552060700121674800888DF81E000691000A0A
S11355308DF81F000DF11E01634800888DF81C00D2
S11355400491000A8DF81D0002216048008805902E
S11355500290039107A801900091002303220BA855
S113556004F05AFF09210BA804F0C2FF0BA904227E
S113557042548420029000220BA8019000230D20A5
S1135580009011464FF6FF70FFF74DFF16E008A894
S113559001F030F980B19DF825009DF82630207087
S11355A000229DF82000019000210A980090BDF887
S11355B0220000F025F801E002F03EFC10B010BD1E
S11355C04348FFF7E9BB3E4A38491378984204D070
S11355D01070487840F002004870081DFFF7DCBBEB
S11355E037480078704780B505F060F810B105F0D1
S11355F065F801E003F057FBBDE8014004F025B96C
S11356002DE9F04188B00C460F99DFF8B0801546BB
S113561001F08002012AACBF012200224FF6FF767E
S1135620B0420E9E08BF01F0FD011F461AB13A4672
S11356303146404631E0234A12888DF81E208DF809
S11356401C00120A8DF81F20000A8DF81D001A197B
S11356501E4800880590D2B2069202900DF11E02F7
S1135660049207A8022203920190009200230122CF
S1135670404604F0D1FE44B10921404604F038FF0D
S1135680224629464044FAF7DBFE0921404604F04D
S11356902FFF40443A4631462018FAF7D1FE03F072
S11356A0B9F808B0BDE8F08100000000047B0020D8
S11356B0F47E0020047F0020307D0020487D0020FF
S11356C0B0710020A2710020F67E0020A471002099
S11356D0087B002075707065722D6D61632E630008
S11356E0EFF3118060288041C043C00F7047000071
S11356F0002181F311887047012100F01F029140BD
S1135700DFF80C25400942F82010704772B6DFF824
S11357100405016811F1010F1CBF491C01600068F8
S11357207047DFF8F014086818B1401E086000D113
S113573062B6704770B50546FFF7E8FF00260024FF
S11357402820DFF8D41400FB06F20A44927F12B139
S1135750761C042EF7DB042E08BFDFF8C04408D003
S11357602DB170430844012282772E6001E0DFF8F6
S1135770B044FFF7D6FF204670BD38B5DFF8A84423
S1135780A07800283DD10120A0700121DFF89C04FD
S1135790DFF89C54FCF7B7FB0221DFF89804FCF710
S11357A0E4FC08212846FCF703FB01212846FCF70A
S11357B0AAFB0FF2A840DFF8805404F0B7FF686832
S11357C0C008C00068600720286004F0BFFF1E20E6
S11357D0FFF792FFDFF864144FF080400860A021C7
S11357E0686840F001006860DFF82C04FBF7D4FF20
S11357F0002020706070A060E0602061032004F04D
S1135800B4FF002032BD2DE9F04F0646042E83B0CC
S11358108B46904699464FF0000A28BFDFF82004D3
S11358200CD2FFF773FF2821DFF8EC03714345180E
S1135830A87F20B9FFF775FFDFF8080496E00C9CF9
S1135840B8F1000F06D1B9F1000F02D0214630465D
S1135850C84788E04FEAC830DFF8EC734FEA584194
S113586010F57A6041F100013E6800F081F8C5F856
S11358701890C5E90201BBF1010F10D14FF47A72FF
S113588002FB08F2CDE9002A0246F420A0FB0289BB
S1135890DDE90001A0EB080028617A206861D5E900
S11358A00201401C61F1FF31C5E9000101202877A4
S11358B085F81FB02C62DFF870432078002852D19D
S11358C0A06810F1010F02D0A068401CA0606078AD
S11358D0B8B926F07F40606002207861D5E9000104
S11358E05145DFF8402301D8904200D31046801977
S11358F000F0AEF9B86940F00200B86101206070B0
S11359002CE0A068012829D185F81CA0B86920F0F2
S11359100200B8616FF07F416068301A20F07F4068
S1135920884208BF002000F0D9F800F021F9BAF14C
S1135930000F04BF01202877304600F02CF93E68A0
S11359406068301A00F0C5F861780AF1010A29B1DB
S11359506168401A20F07F404045D7D3A06810B159
S1135960A068401EA060FFF7DCFE0020BDE8FE8FAB
S11359704FF4FA520023FEF7C3BF10B50446042CBB
S113598000D312E0FFF7C2FE00F009F821B9FFF7D7
S1135990C8FEDFF8B00210BD0021017707E028211E
S11359A09D4861430844817F7047A54810BDFFF7B7
S11359B0B8FE002010BD70B50446042C0D4601D37A
S11359C09F4870BD0DB9964870BDFFF79FFE00F06B
S11359D0DDF8907F18B9FFF7A4FE9A4870BD107FD8
S11359E018B9FFF79EFE994870BDD2E90041964868
S11359F08D4900684968461AFFF793FE26F07F40F8
S1135A00844203D24FF48040002108E0201A4FF46E
S1135A10FA51A1FB000110F5804041F10001C00BD7
S1135A2040EA41402860002070BD10B500237E4844
S1135A308549C4680A68C0688442F8D112EB0460DE
S1135A4043EB142110BD30B54FF4FA5200F004F8C2
S1135A50C00B40EA414030BDA2FB004502FB0155AA
S1135A6014F5804045F1000170472DE9F041FFF73E
S1135A704DFE754C6C4EE568A80720D501203070AA
S1135A802768A06920F00200A0617068381A20F02D
S1135A907F4000F023F800F06BF8384600F07BF804
S1135AA027687068381A00F014F8717829B17168A1
S1135AB0401A20F07F404045E3D300203070E807CF
S1135AC004D501206061F068401CF060BDE8F0413D
S1135AD027E620F07F48002004F014BEF0B5002231
S1135AE0002128244C4B544323441C7F5977002C19
S1135AF03AD0D3E90045A94207D828BFA04204D22E
S1135B00241A8D41C3E900452EE0DC7F0CB91C77D3
S1135B1026E0D3E90267D3E90045361A8F41A41978
S1135B207D41C3E900451C691D69012C5C6909DBE1
S1135B302C19F42C5C6113D3D3E90045641C65F182
S1135B40FF3508E0641BF42C5C6109D3D3E90045FC
S1135B50641E65F10005C3E900455C69F43C5C61C1
S1135B609C690CB101245C77521C042AB9DBF0BD9A
S1135B7010B5002400F00AF8507F18B1116A926938
S1135B8020469047641C042CF4DB10BD28212248D5
S1135B90614342187047F8B54FF0FF3213460021B5
S1135BA01D4C28254D436619367F46B12544D5E959
S1135BB000679F4203D82EBF964232463B46491C9B
S1135BC00429EEDB184C4FF0FF360021B34208BF26
S1135BD0B242617019D00027BB42124E01D8B242C2
S1135BE000D332462178144D00290CBF20F07F41A8
S1135BF00146616010180221296000F029F8012093
S1135C006070686840F002006860F1BD0000000048
S1135C1080E200E07879002000740020011000F098
S1135C20041000F09BFFFF00C07900200043020035
S1135C3070161000020018001800084000E100E08F
S1135C40021000F0031000F004000840051000F0FA
S1135C5020F07F41002004F060BD0000010000003E
S1135C60012100F01F029140504A400942F82010DF
S1135C70704730B587B003A80FF268114C4C4D4DF6
S1135C801022FBF749FF68460021002200230EC0C2
S1135C9002208DF8060001214748FCF734F94FF63D
S1135CA0FF70E0616A460021204604F0B9FD00203F
S1135CB08DF80E0003A9204604F06AFD3F48FCF766
S1135CC06CF99DF80E1001228A40491C8DF80E10C3
S1135CD0B0FBF2F0C9B20B29686002D2384988429D
S1135CE0E8D23848FCF759F937496A68B1FBF0F350
