S00B000053696E6B2E73333754
S1130000E851002055DC0000C5DB0000C9DB00001E
S1130010A70B0000000000000000FFFF54000000D8
S113002004220A000000000000000000000000009C
S113003000000000000000000000000000000000BC
S1130040000000000000000000000000D7000000D5
S113005000000000E851002055DC0000C5DB000072
S1130060C9DB0000A70A08010001000004220AAC51
S11300705010D70000000000000000000000000045
S1130080000000000000000000000000000000006C
S1130090000000000000000000000000FFFFFFFF60
S11300A0FFFFFFFFFFFFFFFF00E003000000000071
S11300B000000000FFFFFFFFFFFFFFFFFFFFFFFF48
S11300C0FFFFFFFFFFFFFFFFFFFFFFFFFFFFFFFF3C
S11300D0FFFFFFFF0000000000000000F07F002091
S11300E0F07F0020E8510020A8E90000D2DD0000E4
S11300F088480020A00F0020000004000000000039
S1130100E851002055DC0000C5DB0000C9DB00001D
S1130110D1DB0000CDDB0000D5DB000051DC0000AA
S113012051DC000051DC000051DC000051DC000017
S1130130D9DB000051DC000051DC000051DC000080
S113014005D90000CFBC0000252D000051DC0000C3
S113015051DC000051DC000051DC000051DC0000E7
S113016051DC000051DC000051DC0000F1BC000057
S113017051DC000051DC0000DDBE000051DC000059
S113018051DC000051DC000051DC000051DC0000B7
S113019051DC000051DC000051DC000051DC0000A7
S11301A051DC000051DC000051DC000051DC000097
S11301B051DC000051DC00007781000051DC0000BC
S11301C051DC000051DC000051DC000051DC000077
S11301D051DC000051DC000051DC0000DFF800F0CD
S11301E0B54700002DE9F0410D460026002D0446D8
S11301F045D0DFF8AC816B4FA2B9FFF7EFFF0020C9
S1130200A8423CD254F8041BF960401C0821396010
S1130210414601E089B3491E3A69D207FAD400295C
S1130220EED12AE0FFF7DAFF002072B65E490A68D1
S113023012F1010F11D0521C0A600EE03A6902F06B
S11302401902102A08BF3A603A691207F6D554F821
S1130250042BFA60401C10223A60A842F4D30868C8
S113026018B1401E086000D162B6414601E021B1D8
S1130270491E3869C007FAD409B96FF0020630463E
S1130280BDE8F0812DE9F047484F9A463B68814626
S113029043F0010300203B6094080025884602E0F7
S11302A0751908EB8608A5422DD23D4801E020B11E
S11302B0401E7969C907FAD410B96FF0020026E02C
S11302C009EB8500B86001217960796911F0060FA6
S11302D009D04A0702D54FF0FF3018E0890702D54C
S11302E06FF0010013E0C0F30A00C0F50060860857
S11302F0601BB04238BF0646524631464046FFF7BF
S113030071FF0100CCD03968490849003960BDE863
S1130310F0872649224A0B6843F001030B6088608A
S1130320012048604869400706D508684008400035
S113033008604FF0FF3070474869800706D50868A9
S11303404008400008606FF00100704702204860D8
S113035001E022B1521E4869C007FAD432B90868D4
S11303604008400008606FF00200704708684008C9
S11303704000086000207047002383E70B480168B1
S113038041F00101016046F21A31C1644FF48071F9
S113039041604169C907FCD40021C1640020704751
S11303A0809698000C000C40285F002008000C4048
S11303B07CB504460722FF21684600F084F81A4EF3
S11303C02E22FF21304600F07EF807250020174931
S11303D00A5C012A1CBF26F810505519401C072836
S11303E0F6DB0FF24C054FF4E04000F03BF918B196
S11303F0CA21284600F00AFE4FF4804000F032F98A
S113040018B1CC21284600F001FE4FF4805000F0D2
S113041029F918B1CE21284600F0F8FD6946204696
S113042000F04DF976BD0000B45A002048E1000008
S113043073696D2D656570726F6D2E630000000029
S1130440814233D210441144401E491E10E011F879
S1130450013900F80139121F11F8013900F8013986
S113046011F8013900F8013911F8013900F801399E
S113047092B2042AEBDA93B2002B1EBF11F80139B1
S113048000F80139521EF6D1704711F8013B00F80B
S1130490013B121F11F8013B00F8013B11F8013B2D
S11304A000F8013B11F8013B00F8013B92B2042A29
S11304B0EBDA93B2002B1EBF11F8013B00F8013BAD
S11304C0521EF6D17047130003D00A46194600F0B5
S11304D08DBE704710B500E0521E93B223B100F0F8
S11304E005F8F9D0181B10BD002010BD10F8013B11
S11304F011F8014BA342704710B5DFF8984ADFF8B2
S1130500983A2488001B06E010B5DFF8904ADFF81B
S1130510883A24681B1B03EB4000002304E030F8F6
S1130520134021F813405B1C9342F8DB002010BDFC
S11305302DE9F04182B004460D4616460027DFF847
S1130540588A01E0B81CC7B2B74217DA7819795D46
S11305504078DFF8403A1B8801EB0020ADF800003A
S1130560012207EBD77004EB6000C01A00F09BFB7C
S11305700028E7D001F07FF8002000E00120BDE86A
S1130580F681F8B504460E46154600270DE000F046
S113059019F8BDF8000004EB4701000A4870761C06
S11305A0BDF8000004F817007F1CB7EB550FEEDB15
S11305B0E80706D500F006F8BDF80000291901F88F
S11305C0010CF1BD012200A9B0B295E7DFF8C429FE
S11305D0DFF8C4191288801A01EB4001022001F0EF
S11305E0A7BADFF8BC19DFF8BC29415C825CDFF8EC
S11305F0B839C05C10B102F5997292B241EAC210E6
S113060080B2704710B5DFF8A439DFF8944903EBE2
S11306104002005D012801D1104610BD1088081861
S113062003EB400010BD38B50C46DFF884190D7893
S11306302A462146FFF760FF208800281CBF4FF69A
S1130640FF7188420AD0012000E0401CC0B2A842D9
S113065006D234F8101022889142F6D0002032BD20
S1130660012032BDF0B5DFF8341987B008600C22E0
S113067000A90020FFF748FF00A90025C88A8A893D
S11306800346040A01204FF6FF7631F81570BDF8D1
S113069000C0BC4503D1B74218BF002F00D10020D1
S11306A06D1C062DF1DBB21A944518BF0020DBB295
S11306B0C4F1FF018B4218BF002007B0F0BD2DE943
S11306C0F24F0446DFF8EC680020307070809CB074
S11306D0DFF8E4080088ADF8020007A9FFF7A3FFDC
S11306E083460120707009A9DFF8D0080588DFF877
S11306F0D008B0F80080DFF89C08BDF802A0078895
S11307003846FFF790FFB8B1BBF1000F3CD0BDF8FD
S11307101C10BDF824004FF6FE72914202D101284C
S113072004D10CE0012908BF90422DD00846BDF841
S11307302410884228D202E0BBF1000F23D000200D
S11307407070029750460695CDF810800122DFF8AC
S1130750601891F800804044ADF8060000A9BDF887
S11307600600FFF7C9FEDFF85C08008805904FF625
S1130770FF79BDF80000000B404518BF0F2800D1D9
S11307800CB3002516E0012470780028D9D038462F
S1130790CDF808A0CDF818800495D7E7059805FB97
S11307A000F4E01900F01CFCBDF80200201800F071
S11307B017FC6D1C4545F1DB012030704D2000F025
S11307C05AFF0025FEE0BDF80650012201A9284683
S11307D0FFF792FEBDF80400C043C0B2ADF80400B8
S11307E06F1CDFF8E4070588BDF80400A84218BFB1
S11307F001244FF0000A20E0401CC1B2A94218D2E3
S1130800C0B2DFF8C817BDF80E20834631F81B10BC
S11308109142F1D1FFF7E5FE4FF680710840BDF833
S11308200C104FF680721140884204BF1C980BF8DC
S113083000A00AF101001FFA80FABDF80400824505
S113084007DA022203A9B8B2FFF756FEBF1C002044
S1130850D3E7002001E0401C80B2A84217DA1C99BB
S1130860415C8142F7D0012411E02AF81070BDF8F0
S1130870060000EB4300401C00F0D2FABDF8020071
S1130880C0F3C710401C00EBD07007EB600704985E
S1130890DFF818A7BFB2874211DA012200A938464F
S11308A0FFF72AFEBDF80000484508D0030A00F00F
S11308B07F01BDF804007F1C834202DB0124002574
S11308C02FE0002001E0401C80B2A842CFDA1C9A3D
S11308D0825C9A42F7D1C0B2FF28C8D0DFF8C026A4
S11308E0825C7F290CBF4FF0000C8C4694450BDAD8
S11308F0BDF800C0DFF8B0E610F80EE04FEA0C6C6B
S11309004FEADC7CF44501D00124B0E7012AACD0E5
S11309107F293AF8100008BF00210818A5E76D1CCC
S1130920ADB2DFF8AC060088854204DA3AF8150067
S11309304845F4D1012477800498BDB285420ADA8F
S1130940012200A92846FFF7D7FDBDF800006F1C5F
S11309504845F1D032E7002CFCD1029801220BA9C2
S113096080B2FFF7C9FDBDF82C0048450DD105E064
S1130970401C80B2202813DB2034A4B20699029ACA
S1130980891A8C4205DB0120307000201DB0BDE8BF
S1130990F08FA51820220BA9A8B2FFF7ADFD002007
S11309A00BA931F810104945E2D0A8B2FFF70EFEAA
S11309B0203CA4B2E0E70298059905FB010000F091
S11309C00FFB6D1C4545F6DB01203070494600F0F5
S11309D043F818B100F02DF90028D6D10120D5E74D
S11309E02DE9F84504460F461646984631463846E2
S11309F0FFF708FEDFF8D015B0F800A00988DFF88B
S1130A00A4558F420AD2DFF89805385C7F2E08BFC0
S1130A100026864202DA785D804503D040F2DB414D
S1130A2000F0FAF9DFF88005385C68B151463846C1
S1130A3000F020FA795D012908BF20700AD002294C
S1130A4014BF2060208005E0424651462046BDE8A0
S1130A50F84596E5BDE8F1852DE9F34FDFF8340557
S1130A60DFF84C150488DFF84C050978407883B02A
S1130A7000281ABFDFF84005008820460D18DFF86B
S1130A8048050088ADF80800ADB2C043C0B200EB21
S1130A90013000F55060ADF802002B1BDFF8F804BC
S1130AA000F0C4F96E1C0028B6B238D10025DFF876
S1130AB01C7514E0E8B2FFF794FDADF80400331B95
S1130AC037F81500ADF806000222DFF8CC0400F078
S1130AD0ABF8002823D1B61C6D1CB6B2ADB2BDF87C
S1130AE008008542E6DB002501E06D1CADB2BDF8CF
S1130AF00800854280F293804FF0000A1CE0012236
S1130B000DF102011FFA89F0FFF7F6FCBB19DFF8BB
S1130B1088041B1B09F1010900F088F9002878D129
S1130B207F1CFFB2B7EB1B6FE9DBDFF8A804285C7E
S1130B308619B6B20AF1010ADFF8640415F800B0A8
S1130B405FFA8AFADA45D0D25146E8B2FFF75AFD85
S1130B508046DFF85404B8F800902F5CF80140EAAE
S1130B600520ADF80000BBF1010FBDF800000CBF7B
S1130B7040F07F004AEA0000ADF80000311BDFF8C6
S1130B80180400EB4100711C89B201914FF6FF710A
S1130B9089451EBFBDF80010BDF81020914218D140
S1130BA09DF80C100029C5D0012200A900F0FDFF1A
S1130BB0019E70BBDFF8EC03A8F800602A5CDFF844
S1130BC0180450F82510B0B2FFF7B2FC0028ACD1DD
S1130BD022E0DFF8D013695C491C01EBD1714FEAC4
S1130BE0C15B012200A900F0E0FF019E88B9002F3B
S1130BF0A8F8006095D04946E8B200F03BF90190AE
S1130C00331BDFF894034FEA1B6200F00DF8002851
S1130C108BD000F030FD002005B0BDE8F08FDFF888
S1130C20940346800120F7E701A900EB430000F09C
S1130C30BCBF2DE9F041DFF88003DFF87853068864
S1130C40DFF8500304886878002882B012BF204679
S1130C5030462646012200A9FFF74EFCBDF80000ED
S1130C60DFF8348301280CBF4FF6FE70401EADF848
S1130C700000CF4807783846471E58B1BFB2B819AC
S1130C80001B012200F00FF80028F4D000F0F3FC60
S1130C90002006E0687880F0010068700020287069
S1130CA00120BDE8F68100A908EB400000F07DBFFB
S1130CB02DE9FE4F0D46174604461E464FF0000927
S1130CC04FF001083946FFF79DFCBF4909880190A0
S1130CD08C420AD2B248205C7F2F08BF002787428B
S1130CE003DAB048205C864203D040F2FE5100F0A3
S1130CF093F8B04F787820B1B048B0F800A0A54878
S1130D0003E0AF48B0F800A0AB483978008849B98F
S1130D107988081AB14909888842B4BF432044201D
S1130D2000F0A9FC019801889F48205CF8B1204696
S1130D3000F0A0F8012E08BF297803D0022E0CBFC2
S1130D4029882968814265D001980088401E00F0F6
S1130D5067F8A048265C7888AAF10101891B8142C2
S1130D6001DB002835D1387858BB452044E0029196
S1130D70CB4620E002980BEBDB7300EB630000F042
S1130D8032F90BEB05001BF80510407801EB00204D
S1130D90711E8B4580B205D1BDF80010C9B2C0B236
S1130DA0ADF80010BDF8001088420BF1020018BF26
S1130DB0C8465FFA80FBB345DCDBB8F1000FC3D053
S1130DC028E0BDF802100020FFF746FE10B34FF0F4
S1130DD0010978887349401C788080B2625C294696
S1130DE0FFF7A6FBB0B16B4C7B8824886A485B1E76
S1130DF01B1B00F01BF810B100F03DFC0AE0B9F138
S1130E00000F02D0FFF715FF20B101997888088000
S1130E1030187880BDE8F78F0FF2D41000F0F6B8E0
S1130E2001220DF1020180B2FFF766BB01220DF130
S1130E30020100EB430000F0B8BE70B582B0044676
S1130E4000250026012200A9A0B2FFF755FBBDF83A
S1130E500000641C20B14FF6FF71884205D006E003
S1130E60B61C6D1CF6B2322EECDB68B276BDE843DC
S1130E7040B276BD38B50C46002100914949455C25
S1130E802A46214600A8FFF77CFB681C00EBD070C3
S1130E9004EB600080B2FFF7D0FF002848BFC043D6
S1130EA0009940B2401832BDF0B54749098804465C
S1130EB03E4883B0264630F816508C4202D23A4857
S1130EC0305C18B940F23971FFF7A6FF3548365C3B
S1130ED0701C00EBD07005EB6007B8B2FFF7ADFFF4
S1130EE019280FD2BFB2C0192A4F2B4B3F880021BB
S1130EF0ADF80410C01B012201A903EB400000F06F
S1130F0054FE60B129462046FFF7B4FF00903346F3
S1130F10401C00907F2200A92046FFF7C9FEF7BDC0
S1130F20F8B5244C20780027002830D119480588CA
S1130F30607800281ABF204806882E461C48077887
S1130F403846471E02281BDBFFB2B81900F04BF8E5
S1130F50BDF800000028F3D01A48008807FB0060A1
S1130F6000F03EF80020ADF80000BB190A485B1BF6
S1130F70012200A9FFF759FE48B100F07CFB06E00E
S1130F803046FFF723FBFFB20FB90120207038462B
S1130F90F2BD0000D8DD000000E00300E47B002087
S1130FA048E1000040E1000038E10000B45A0020AC
S1130FB0D4DD0000D27F0020DCDD0000DADD00009B
S1130FC0DEDD0000D6DD0000E2DD000028E10000E7
S1130FD0E4DD0000E8DD000084E10000E0DD000065
S1130FE080B2FFF7F3BA012200A980B2FFF784BAF6
S1130FF073696D2D656570726F6D2D696E746572A0
S11310006E616C2E6300000042DE704738B5044602
S11310100D4600F010FE00F02FFE2B4622460FF284
S1131020B811022000F072FE29462046BDE8344083
S1131030EAE761482DE9F84F604D0168DFF880A1C7
S1131040DFF88081DFF880912E1D4FF420647165F4
S1131050016AB1655D490A68F26549683166416AA9
S11310607166816AB166C16AF166016B3167806B32
S1131070706796F8340040074CBFF76BB76B00F00D
S1131080E1FE0022F2648742014605F1900224BF8A
S1131090AAF12003BB42BB46316500921AD3B8695A
S11310A03064FA697264726DC2F30802062A15D1BB
S11310B0484513D3404511D200884DF64262904210
S11310C00CD1009A3068506040F20174009A706844
S11310D0906003E000223264726483463C4881429B
S11310E002D2014600E0091D0846504503D20A68B1
S11310F0B2F1CD3FF7D03749081AB064182105F191
S11311007C0000F0C3FE002003E0C0B205EB8002C7
S1131110D167D34523D25AF8041D4945F9D3414533
S1131120F7D2CA07F5D5002205EB8203DB6F8B42A9
S113113002D0521C062AF7DB062AEAD1020014BFA9
S1131140401E0520E1E7B16F002205EB8203521C2B
S1131150D3F88070DF67052AF7DB009A1160014637
S1131160481EC9B20029EED1706DC0F308000328EF
S113117008D0042809D005280AD006280BD00C284A
S11311800FD011E040F6012413E040F6022410E0F1
S113119040F603240DE0B4F5206F0AD140F6042490
S11311A007E040F6052404E018B1312838BF40F6C2
S11311B007242046BDE8F28F04ED00E00000002083
S11311C0E8510020D2DD0000B003000000E300E09D
S11311D09C000020E85100200D0A5B415353455206
S11311E0543A25703A25645D0D0A000062F30F221B
S11311F062F31F42401810F0030308D0C91A1FD32A
S1131200DB0748BF00F8012D28BF20F8022D13008A
S113121030B414461546103928BF20E93C00FAD8EA
S1131220490728BF20E90C0048BF40F8042D890075
S113123028BF20F8022D48BF00F8012D30BC7047AC
S1131240C91818BF00F8012DCB0728BF00F8012DDD
S113125070470000012202FA01F12423DFF810266E
S11312605843104441617047012202FA01F12423DA
S1131270DFF8FC25584310440161704710B582B073
S113128000220FF25061DFF8EC45012000F025FE4A
S11312904FF4707022180FF28C61012000F01DFED3
S11312A09CA1012000F019FE94F8800504EB800055
S11312B04FF47A71D0F80004B0FBF1F0DFF8B81500
S11312C0B0FBF1F201FB12030FF26461012000F0A4
S11312D004FE94F8803534F813000FF27061009026
S11312E00022012000F0F9FD94F880350FF28061AE
S11312F000F023F8B0F8C00000F023F894F880352B
S11313000FF2906100F019F8B0F8800100F019F8BC
S113131094F880350FF29C6100F00FF8B0F84002A9
S113132000F00FF894F880350FF2A86100F005F88A
S1131330B0F8000300F005F813BD04EB43000022ED
S113134070470090012000F0C8BD10B5DFF82C45AF
S1131350204600F0E1F804F10C00BDE810404FF421
S1131360612100F0E6BD70B50121DFF81405DFF856
S11313701445DFF81455DFF8146501F034F8002043
S113138001F03AFBE0700021DFF8040501F01BFBDB
S11313902071214602206070032020700120A87073
S11313A000202871E87005206870002028723046FB
S11313B001F0C4FA29463046BDE8704001F0D7BABE
S11313C010B5DFF8D04400F02EF8022101F081FBC3
S11313D000F029F8032101F07CFB00F024F804213B
S11313E001F077FB00F01FF8052101F072FB00F01B
S11313F01AF8062101F06DFB20780123042207214D
S113140001F067FB002001F0C7FB207800230122D4
S1131410002101F05EFB2078BDE81040002301228A
S1131420012101F056BB2078002304227047DFF825
S1131430681400228A6010B1012802D005E088688F
S113144002E0886840F48070886048684868C00793
S1131450FBD4012008604868C007FCD44868086AC7
S11314607047F8B5DFF82C7404460D4638781646F4
S11314700221FFF7EFFE38780321FFF7EBFE3878FF
S11314800421FFF7E7FE1CB138780221FFF7ECFED8
S11314901DB138780321FFF7E7FE1EB13878042127
S11314A0FFF7E2FE4CF2503001F0FAFBDFF8EC03F8
S11314B00078FFF7BCFF044638780221FFF7CAFE24
S11314C038780321FFF7C6FE38780421FFF7C2FEFF
S11314D02046F2BD38B50446DFF8B85319B1287870
S11314E00521FFF7C1FE1CB128780621FFF7BCFED9
S11314F04CF2503001F0D4FB6878FFF798FF0446B3
S113150028780521FFF7A6FE28780621FFF7A2FE1A
S1131510204632BD000000002DE9F84304460FF2D6
S1131520D4410FF2EC450FF2F84700F088F800229E
S113153000F082F8064601210020FFF7CBFF804629
S11315404146304600F083F82080324600F07BF8B4
S11315500FF2C4464246314600F076F822883946F6
S113156000F072F80FF2C04100F069F8012200F0B7
S113157063F88146414600F06AF860804A4600F00C
S113158062F84246314600F05FF86288394600F05E
S11315905BF80FF2B04100F052F80022012100F094
S11315A04CF8804600210120FFF794FF00F040F83A
S11315B0A08000F047F84A46314600F045F8A2887A
S11315C0394600F041F80FF2984100F038F8012252
S11315D0012100F032F88046494600F038F8E080F6
S11315E000F030F84A46314600F02EF8E2883946D9
S11315F000F02AF80FF2844100F021F800220021C3
S11316000120FFF72EFF804601210120FFF762FF32
S113161000F00EF8208100F015F84A46314600F03B
S113162013F822893946BDE8F843012000F055BC7F
S11316308146494640460AE00021002011E7012086
S113164000F04BBC42462946012000F046BC48430A
S113165080B540F6C4114843000B01F0DBFB904A0F
S1131660904B01F0E5FB00228F4B01F0B3FC01F03D
S1131670DDFD80B202BD7047002070477047002036
S113168070477047704770477047704780B50FF2D6
S113169010420FF20441012000F01FFC0121834895
S11316A000F0A1FE01F0A5FAFFF78AFEFFF75BFE4A
S11316B0042200216846FEF706FF0A208DF8020086
S11316C001208DF8030040F2FF10ADF8000001F096
S11316D0D3FD932808D1684601F0EAFF02460FF2D1
S11316E0C831012000F0F9FBFF2001F0FAFF01BD31
S11316F07047704730B5044697B00FF2B8310120F7
S113170000F0EBFBA0680078022826D10FF2B83174
S1131710012000F0E2FBA068411C082206A8FEF7A5
S11317208FFEA06800F10B010A2203A8FEF788FED1
S113173000200121002203AB1C5C5D5C44EA05240B
S11317402DF81240801C891C521C052AF4DB6946C2
S113175006A800F004F8FFF791FD17B030BD2DE99D
S1131760F04780460F460024002640F28455DFF8F7
S1131770049105FB06F009EB000A4FF4707008228F
S113178041465044FEF7A6FEA0BB9AF88005401CD3
S1131790602190FBF1F1602202FB11008AF88005C0
S11317A0012438889AF880152AF811009AF88005DF
S11317B079880AEB4000A0F8C0109AF88005B9882F
S11317C00AEB4000A0F880119AF88005F9880AEB2A
S11317D04000A0F840129AF8800539890AEB4000CD
S11317E0A0F8001302F021FB9AF880150AEB81019E
S11317F0C1F80004761C052EBBDBBCBB2C4C218835
S1131800484600F057F8020030D0208001200FF243
S1131810C82100F062FB208868434844002100F896
S1131820041CA0F2845239881180A0F2C442798841
S11318301180A0F20442B9881180A0F55172F98890
S11318401180A0F521703989018002F0EEFA218817
S1131850694309EB0103A3F5C271082208604146FC
S1131860BDE8F047A3F5E270FEF7EABDBDE8F087F6
S1131870006000403060002080510100D07B0020D7
S113188000020500A8550020C47B00200020004071
S1131890C0CF6A00F855002004200040E37F0020F8
S11318A09A9999999999C93F00408F4040810400C1
S11318B0D07F0020481C80B20628A8BF00207047B3
S11318C070470A460FF23021012000F006BB704732
S11318D0704770472D2D2D2D2D2D2D2D2D2D2D2D7A
S11318E02D2D2D2D2D2D2D2D2D2D2D2D2D2D2D2D24
S11318F02D2D4E4F44452025642D2D2D2D2D2D2D80
S11319002D2D2D2D2D2D2D2D2D2D2D2D2D2D2D2D03
S11319102D2D2D2D2D2D2D2D2D2D2D2D2D2D2D2DF3
S1131920000000006C6F6E6749643A202564000073
S113193054494D453A0A202564202D2044440A2068
S11319402564202D20534543000000004E6F64653C
S1131950202564204C696768745F315F506F776538
S1131960725B25645D3A202564206D5700000000F9
S11319704E6F6465202564204C696768745F325F2C
S1131980506F7765725B25645D3A202564206D573E
S1131990000000004E6F6465202564205553425FAB
S11319A0315F506F7765725B25645D3A2025642052
S11319B06D5700004E6F6465202564205553425FC7
S11319C0325F506F7765725B25645D3A2025642031
S11319D06D5700004E6F646520256420536F6C6161
S11319E0725F506F7765725B25645D3A20256420D1
S11319F06D5700002D2D2D2D2D2D2D2D204C69677B
S1131A00687431202D2D2D2D2D2D2D2D000000003D
S1131A10433A092564000000563A09256400000091
S1131A20503A0925640000002D2D2D2D2D2D2D2D2E
S1131A30204C6967687432202D2D2D2D2D2D2D2DD0
S1131A40000000002D2D2D2D2D2D2D2D2D20555335
S1131A504231202D2D2D2D2D2D2D2D2D000000005A
S1131A602D2D2D2D2D2D2D2D2D2055534232202D54
S1131A702D2D2D2D2D2D2D2D000000002D2D2D2D46
S1131A802D2D2D2D20536F6C6172202D2D2D2D2D7C
S1131A902D2D2D2D000000000A25703E00000000B1
S1131AA053696E6B00000000466F726D203078251C
S1131AB0780000004D657373616765205265636546
S1131AC069766564000000004461746120526563B6
S1131AD065697665640000004E4F444520555044C6
S1131AE0415445442E204172726179206C656E67C1
S1131AF074683A20256400004E6F646520256420D4
S1131B00686173206A6F696E656420746865206E0D
S1131B106574776F726B0000DFF800F08953002062
S1131B20DFF800F01F530020DFF800F08553002099
S1131B3038B504460D4602F0D1F9012C02D1FFF765
S1131B40EBFF02E02846FFF7EBFF18B102F0F1F9D2
S1131B50012032BD02F0EDF9002032BD10B5C207FC
S1131B6082B01CD402884FF6FF739A4218BF002932
S1131B7015D18408A4008007226847BF90B240EAC8
S1131B800140100C41EA0040009002F0A7F9042241
S1131B9000A92046FFF7C8FF18B102F0CAF90120D6
S1131BA016BD02F0C6F9002016BD70B504460D46F8
S1131BB0164604E002F0BDF9241D2D1DB61EB6B173
S1131BC0012E01D0A00706D535F8021B2046FFF7E9
S1131BD0C5FFA41C761E022EF1D302F07FF9042265
S1131BE029462046FFF7A0FF0028E3D001E00020AB
S1131BF070BD02F09EF9012070BD000010B584B0E4
S1131C000121184800F0EFFB01220121052000F01A
S1131C10EFFD0FF258011CC968461CC000208DF866
S1131C20070008208DF80800012002F09AF96846A0
S1131C3002F0AEF91FBD02F09EB9A52800D070478E
S1131C4080B500F007F820B1BDE80240002002F0A2
S1131C5088B901BD0448006810F0010018BF0120D4
S1131C6070470000004302000080084001000000AB
S1131C70000000000F000000EFF31180602181F3E9
S1131C801188704710B504460120032C88B009D18F
S1131C9068460FF2A801202202F0C4F96946032025
S1131CA002F0CCFAC0B208B010BD02F008BB80B597
S1131CB002F010FBC0B202BD02F03ABB80B502F0E4
S1131CC05FFBC0B202BD18A10CB480B502AA02F039
S1131CD062FB02BCC0B25DF80CFB0CB438B5044620
S1131CE004AA02F058FB05460FA1204602F064FB4B
S1131CF0E8B232BC5DF80CFB80B502F0DBFBC0B28D
S1131D0002BD80B502F047FBC0B202BD0CB410B5F1
S1131D100A46014602AB054802F00BFC00B9012457
S1131D20E0B210BC5DF80CFB0D0A0000A1440000F9
S1131D3003280CBF002001207047000000C80040A9
S1131D4000C20100010000100000000000010601B3
S1131D5005000000000000000000000010B504466B
S1131D60FFF78AFF200A00283B4808BF24024FF2ED
S1131D700F0104804180BFF35F8FBFF34F8F37485B
S1131D80374A016801F4E06111430160BFF34F8FEA
S1131D90FEE780B5002000F009F830B9BDE8044042
S1131DA0BE210FF2D400FFF731B901BD2DE9F04493
S1131DB02C4C21680D1A15F01F0105D0002852BFC4
S1131DC06D1A681A00F120052748A5F12006A842DB
S1131DD024BF2648864203D3EFF30880854201D30B
S1131DE000202DE0FFF748FF82462148006810F0EC
S1131DF0010718BF02F099FC206801468D4206D203
S1131E00A84224BFCD2100F80119F9D206E02038F8
S1131E10002201E000F8012B8842FBD32560304604
S1131E2002F08AFCE22001E006F8010BAE42FBD38B
S1131E300FB102F057FC504602F092FC20682038A3
S1131E40BDE8F084074800687047064800682038F9
S1131E507047084870470000000000200CED00E0C7
S1131E600400FA05D855002088480020A00F00205F
S1131E7094ED00E0000000206D6963726F2D696EBF
S1131E807465726E616C2E6300000000002202F023
S1131E906BBC0000174908804FF6FF71884205D0DB
S1131EA0010A05D112490978084002D0012070477F
S1131EB00020704770B50C4615461E46FFF7EAFF32
S1131EC050B1324629460320FFF71BFF24B1BDE879
S1131ED070400320FFF7F7BE70BD0CB480B50A460E
S1131EE002AB0121FFF7E6FF01BC5DF80CFB00002B
S1131EF0F75500209E5E002038B544784568FFF70A
S1131F00BBFE7C4A0C2161438B585B1BB3F1004F31
S1131F1098BF8D50BDE8324002F022BC10B5044693
S1131F2001F083FF6060042020702046BDE810406B
S1131F30E2E738B504460D4601F077FF28186060E3
S1131F40012020702046BDE83240D5E770B5044634
S1131F5001F06BFF0546FFF78FFE064660686FF0E1
S1131F60004100F02CF8401920603046BDE8704074
S1131F7002F0F6BB70B504460D46164601F055FF57
S1131F80002156B1FF22327007E0121AAA4202D28F
S1131F90154606B13170491C083422680AB928462E
S1131FA070BD1378002BF6D0042B04D05268831A2A
S1131FB0B3F1004FE9D806B13170002070BD0022A2
S1131FC0D8E738B5044601F030FF05460DE0017846
S1131FD051B1042904D04168691AB1F1004F03D802
S1131FE00421017061688847083420680028EED114
S1131FF031BD10B53F490C2202FB001401F015FF5E
S11320002168401AB0F1004F06D86068FFF7D9FF85
S11320102046BDE8104099E710BD70B5364D3749EC
S1132020097804466878884204D3E5210FF2D00089
S1132030FEF7ECFF6E78701C68700C212D4801FBD4
S1132040060001214460017200E04E7054F8081B40
S11320500029FAD1FFF77AFF304670BD002070479F
S1132060F8B505464FF0FF300090234C207840B37C
S113207002F094FB28B940F223110FF28400FEF71A
S1132080C5FF01F0D2FE1B4A0C2101FB05230025EC
S11320901D72002305E0009EB54288BF35460095B9
S11320A05B1C6578DBB2AB420FD201FB03263568BB
S11320B0471BB7F1004F04D9367A2D1A0EB9002DFB
S11320C0E9D102F073FB0020F2BD002100A8FFF764
S11320D0C5FF10B900A801F0C4FE0120F2BD054AF5
S11320E00C2303FB00200121017270470249087090
S11320F070470000A0580020E47F00205CE7000047
S11321006576656E742D636F6E74726F6C2E6300EA
S1132110890001EB401000F184400260704789009F
S113212001EB401000F1844000687047DFF81C07A1
S1132130006810F4E06018D0B0F5807F12D0B0F5DC
S1132140007F0CD0B0F5407F06D0B0F5C06F12D040
S1132150B0F5E06F0CD011E0DFF8F4067047DFF85B
S1132160F4067047DFF8F0067047DFF8F0067047B2
S1132170DFF8EC067047DFF8EC0670470020704784
S113218010B5DFF8E4168A6B02B1012241F671330F
S11321908B630B6803F00703012B01D91B1F01D1CB
S11321A0002300E00123DFF8C446A04204D3002B3F
S11321B00CBF042005200FE0DFF8B4462018DFF838
S11321C0B446A04204D2002B0CBF0120032003E03C
S11321D0002B14BF022000200B68DB0840EAC30078
S11321E00860D2B20AB10020886310BD38B5054634
S11321F0002400F0CFF9DFF88036DFF880169D4226
S113220007D0DFF87C369D4204BF886AC0F38100A2
S113221002E0886A00F00300032829D8DFE800F010
S11322201602050802F021FB21E002F025FB1EE066
S11322304868C00502D40868400003D502F0BAFA21
S1132240840815E002F0B6FA440811E0DFF8280625
S1132250854202D1886A102105E0DFF82406854210
S113226006D1886A1421C84002D002F002FB044659
S1132270204632BDDFF80C164A68D20702D40A6839
S11322800242FCD170470E21DFF8FC0547E700004D
S113229070B50D46011101F00F010129DFF8004668
S11322A0DFF8D86508D0042912D0052917D00729EA
S11322B037D0082963D070BD02F08EFAFFF760FFB3
S11322C0306820F4E030691E40EA8130306027E055
S11322D0B5FA85F0616800F07AF8606070BD02F0CC
S11322E07BFAFFF74DFF112000F0C7F8B0FBF5F0C3
S11322F0DFF8B015884206D200221E213046FFF7CF
S113230007FF002202E000F068FA012208212046BB
S1132310FFF7FEFEB5FA85F0216800F058F820605A
S113232060E2DFF86815884208D0DFF86415884257
S113233010D0DFF86015884218D070BD0420FFF774
S113234099FF00F04BF821F0F001C0F11F0041EAC1
S1132350001012E00420FFF78DFF00F03FF821F495
S11323607061C0F11F0041EA002006E00420FFF77D
S113237081FF00F033F800F024F8606670BDDFF8E8
S11323801815884204D0DFF8141588420AD070BDAD
S11323904020FFF76FFFB5FA85F0E16EC0B200F0A0
S11323A010F80CE04020FFF765FFB5FA85F0E16E08
S11323B0C0B221F03001C0F11F0041EA0010E06614
S11323C070BD8908C0F11F0040EA81007047C0B2A7
S11323D00909C0F11F0040EA01107047B5FA85F001
S11323E0616EC0B270472DE9F041064630120025F7
S11323F000F00F0001288846DFF8A4742DD00228CD
S11324002DD0032806D006282CD007282ED00A2841
S113241030D020E0DFF8900400F02FF8DFF88414C7
S1132420884207F13C040AD301221E21DFF84C0440
S1132430FFF76EFE012208213846FFF769FEC6F356
S1132440043615B12846FFF715FF424631462046AB
S1132450BDE8F0415CE6BDE8F0813C1DEFE707F123
S11324604004ECE707F154040125E8E707F15C04B4
S11324701025E4E707F17404E1E710B5024612F40D
S11324807812DFF8F403DFF8F813DFF8F0435AD0DA
S1132490B2F5003F27D0B2F5802F1ED0B2F5402F01
S11324A049D0B2F5602F53D0B2F5801F1FD0B2F5DA
S11324B0901F22D0B2F5A01F2ED0B2F5B01F32D09B
S11324C0B2F5C01F25D0B2F5D01F21D0B2F5001F40
S11324D041D0B2F5201F17D053E002F07FF900F08D
S11324E052F8A1680DE0BDE8104002F063B9FFF7AF
S11324F07DFEA16EC1F303111BE0FFF777FEA16E11
S1132500090A01F00F0114E0FFF770FEA16E07E065
S11325100846BDE8104069E60846FFF767FE216FEC
S113252001F0030105E00846FFF760FE216FC1F3E7
S11325300111C84010BDDFF8740300F02BF8072820
S113254006D008281DD102F049F900F01CF810BD8E
S1132550BDE81040EAE5DFF8580300F01BF8022854
S11325600BD0032805D008280BD1BDE8104002F099
S113257035B9BDE8104002F078B9BDE8104002F06A
S11325807BB9002010BD2168C1F38231491CB0FB26
S1132590F1F070470146012001F00F010129DFF835
S11325A0DC2208D0022917D0032921D006292FD0F4
S11325B0072935D047E0D06A00F47050B0F5006FB9
S11325C006D0B0F5805F3CD0B0F5005F37D001E0B5
S11325D00420704705207047916A01F00301012926
S11325E02FD002D303290CD029D3916AC9030CE05C
S11325F0916A01F00C01042923D008291FD00C2969
S113260001D106207047916AC9021DD5092070477F
S11326101168072001F08051B1F1805F14D10CE002
S1132620D16A01F46031B1F5004F06D0B1F5803FB5
S113263005D0B1F5003F04D0704708207047022050
S1132640704703207047002070472DE9F84F00F0D1
S11326500F070324012FA2464FF00009DFF8405270
S1132660DFF84082DFF84CB2DFF8106209D0022FA5
S113267018BF032F42D0062F77D0072F00F0838096
S11326801BE0022906D0032919D004291AD00529F0
S113269032D012E00424CA4601220121504600F03F
S11326A0A7F802F099F8FFF76BFD2C6202F0B9F974
S11326B002F080F8BDE8F24F62E5BDE8F18F4FF01B
S11326C0010AE9E702F0C8F80224404530684FF0F7
S11326D0020A0BD340F0804040F060003060DBF829
S11326E00000C006D8D500F073F8D5E720F06000EC
S11326F040F020003060CFE70124CDE7012908D065
S1132700022911D0032913D0062915D0092921D073
S1132710D3E70024022F686A20D167490840204388
S113272040EA09406862C8E700F04EF80224F1E785
S113273000F046F80124EDE7012204215846FFF792
S1132740E7FC02F037F84045E4D300F046F800F027
S11327503FF8DFE700244FF00109DBE75749084061
S113276040EA840040EA0950DCE7072902D008293E
S113277005D0A2E7306820F0805030609DE73068D3
S113278040F08050F9E7022904D003290AD008292F
S113279010D092E700F018F840202862A86AC0031D
S11327A0FCD58AE700F00CF860202862A86A800350
S11327B0FCD582E720202862A86A0004FCD57CE7C7
S11327C001220121012013E00122012100200FE058
S11327D0012208212846FFF79BBC01221E21304616
S11327E0FFF796BC01F0E6FFBDE87040FFF7C8BCF8
S11327F0052800D9704738B5DFE800F01C1810032D
S113280014270120022301242D4DC9B12860C2B12F
S11328102146FFF739FD0028FAD012E004200823EE
S11328200324F1E7102020230524EDE74020802332
S11328300724E9E74FF480704FF400730924E3E7B9
S11328402B60BDE8314002F0ECB831BD14800C407F
S113285040420F00C0CF6A00C0D8A700809FD500B7
S1132860406F4001003FAB0104000C400148E80107
S1132870FFDB0BFF0024F4000200180000800C4072
S113288003001A0050800C402C800C40701610007D
S113289070261200700628008007140080171600A6
S11328A004800C4001366E015000020006000C004A
S11328B00723200040800C40FCFFFEFFF3FFEFFFE6
S11328C020800C400629574A574B00D9704710B551
S11328D0DFE801F004090C1124241C0000F023F8A3
S11328E000F025F810E000F01EF806E000F017F8FC
S11328F000F01DF808E000F012F81940230C03F46E
S1132900FE431943C2F30642114306E0416B926849
S1132910C90902F07F0242EAC111416310BD416B53
S1132920546852687047416B1468126870471940C4
S113293004F4FE43194302F07F0270470A22426006
S1132940CB780A781B0403F4FE0343EA02620B7992
S11329501B0203F4FE431A434B7842EA03128B78BA
S113296049791A4309B142F008020260704738B548
S113297004460D46022060602046A978FFF7A2FFB6
S113298000F018F8297940EA0120E97840EA0110BA
S1132990A97909B140F08070E97909B140F00400E7
S11329A0697909B140F00200297A09B140F00100C7
S11329B0E06031BD69782878090541EA0070A9789A
S11329C040EA0140704710B50446084617498C4256
S11329D028BF174C04D2B4F5FA4F38BF4FF4FA4469
S11329E010B91448FFF749FD2018401EB0FBF4F05D
S11329F000B1401EC0B210BD80B528B90D48FFF724
S1132A003CFD08B9012003E00B49884228BF0B486C
S1132A100B4908180B49B0FBF1F0401EC0B202BDCF
S1132A2000000000B481E00F8080FFFF415DC6001C
S1132A30405DC600408104000148E8010048E80107
S1132A403F420F0040420F00890001EB401000F1AB
S1132A50844002607047012202FA01F12423394ABA
S1132A605843104441617047012202FA01F12423C2
S1132A70344A5843104401617047F8B51D460F238A
S1132A800C46082C304905D2A6000F6800F01BF84C
S1132A90086006E0A4F10806B6004F6800F013F8D9
S1132AA0486021462948FFF7CFFF2A462146284897
S1132AB0FFF7CAFF27480121A140C1602146069AB9
S1132AC0BDE8F840C0E7B34027EA0303B040184329
S1132AD07047F8B50446164630000D461F4607D029
S1132AE0002F204602D0FFF7BFFF01E0FFF7B3FF3E
S1132AF024210F2213486143082D084409D2AB0056
S1132B0041689A4021EA020206FA03F11143416046
S1132B100AE0A5F108039B0081689A4021EA0202B9
S1132B2006FA03F11143816056B9002F2946204665
S1132B301CBFBDE8F440FFF797BFBDE8F4408AE747
S1132B40F1BD0000006000400061004008610040E9
S1132B500C61004010610040012202FA01F12423BB
S1132B60184A584310444161704780B50121164802
S1132B70FFF739FC01211548FFF735FC0023042237
S1132B8006210520FFF7A5FF0023042207210520C5
S1132B90FFF79FFF002002BD80B5022805D200F098
S1132BA008F8FFF7D9FF002002BDFFE74FF0FF3020
S1132BB002BD0FF21C0202EBC00112F8300049689A
S1132BC070470000006000404081040000D204000F
S1132BD005000000060000000500000007000000DA
S1132BE0012100F01F029140754A400942F820106B
S1132BF0704730B587B003A80FF20821714C724DAD
S1132C00102201F00FFA68460021002200230EC0B2
S1132C1002208DF8060001216C48FFF7E4FB4FF613
S1132C20FF70E0616A460021204601F057FF002052
S1132C308DF80E0003A9204601F008FF6448FFF751
S1132C401CFC9DF80E1001228A40491C8DF80E10C0
S1132C50B0FBF2F0C9B20B29686002D25D49884228
S1132C60E8D25D48FFF709FC5C496A68B1FBF0F300
S1132C705B480021E3FB02015A4A002301F05EFF96
S1132C80A86000202870E06820F01000E0600220B6
S1132C90FFF7A6FF54490420086007B0002030BDA8
S1132CA038B500F033F804460D4605E04FF6E85019
S1132CB000F053F800F024F800218D424FF6E9505B
S1132CC0F4D88442F2D2A0B200F047F8002032BD1A
S1132CD038B500F01BF804460D4605E04FF6E85001
S1132CE000F02AF800F00CF800218D424FF6E9506C
S1132CF0F4D88442F2D2A0B200F01EF8002032BD13
S1132D003A484FF0FF3124184D4170472E49344A58
S1132D1049680023E0FB012310461946314A002389
S1132D2001F00CBF32480168C90604D51021816046
S1132D300120254908707047010081B00BD02D494E
S1132D400A6892B20B68ADF80030BDF800309B1AE7
S1132D509BB28342F6D301B07047010000D17047A3
S1132D6030B572B6244B184A196811F1010F1CBF13
S1132D70491C196021498C699568A84238BF2846C6
S1132D80001988621020C860086840F010000860CC
S1132D90186850B1401E186007D162B605E01848A3
S1132DA0036823F00403036030BF10780028F6D0D2
S1132DB000201070086820F01000086030BD00008A
S1132DC080E200E000000140A85F002000520400FF
S1132DD04081040081841E005000020000B0710B89
S1132DE020A1070040420F0000E100E01802FFFFAD
S1132DF01000014024000140285F00200C00014025
S1132E0010ED00E0010000000000000000000000E0
S1132E1000000000010000BF09D0B0FA80F1884032
S1132E20C91CC1F58461090501EBD0214005704737
S1132E30B0B581EA030C0CF0004C40F2FF7515EAC2
S1132E4011541DBF15EA1357AC42AF4239E0E419DF
S1132E5023EA455343F48013C90241F0004141EA97
S1132E60505EC7021100A7FB020200284FF00000C9
S1132E70EEFB01204FF00001E3FB072118BF42F0F5
S1132E800102401800214941E3FB0E01A4F58064CE
S1132E900F0302D252004041494154F101046CDD58
S1132EA0470872F1004250F1000051EB0451A1F5C2
S1132EB080115CBF41EA0C01B0BD4CEA0551002011
S1132EC0B0BD05EA1357AC4214BFAF4241E050EA2B
S1132ED0410E1CBF52EA430E02E061460020B0BD21
S1132EE024423C441BD15FEA070EF6D0090302BF1B
S1132EF001460020AEF1140EB1FA81F7AEEB0704DF
S1132F0001FA07FE0C37C7F1200100FA07F7C840A1
S1132F104EEA000E23EA455343F48013A2E733F04C
S1132F200043B3FA83F704BFB2FA82FE77440B3F3F
S1132F30E41BB7F1200E2FBF02FA0EF3BB40C7F11A
S1132F40200E22FA0EFE38BF43EA0E03BA40641C78
S1132F5082E750EA410E14BF52EA430E6FF00001BB
S1132F604FF4001717EB430F8ABF194617EB410FB5
S1132F70B5E74CEA05510020B0BDD4F10104B4F129
S1132F8020070FDAC4F12007520828BF42F00102DB
S1132F9010FA07F501FA07F7E1BF2A43E040384386
S1132FA0E1400FE0352C98DCC7F1200452EA4002DE
S1132FB020FA07F218BF42F0010231FA07F0A140EB
S1132FC00A43002172F1004250F1000051EB0C0160
S1132FD0B0BD00002DE9F04140F2FF7581EA030C19
S1132FE00CF0004C15EA11541DBF15EA1357AC42FE
S1132FF0AF42E9E0BC41C1F31301C3F31303801AE8
S1133000994143F4801304D2641E4000494180185E
S11330105941C90241EA5051B1FBF3F603FB1611C1
S1133020A2FB0675D7EBC020A94102D2761E8018F8
S11330305941C90241EA5051B1FBF3FE03FB1E1191
S1133040A2FB0E75D7EBC020A94103D2AEF1010E4D
S113305080185941890241EA9051760546EA8E2E3C
S1133060B1FBF3F603FB1611A2FB0675D7EB802028
S1133070A94102D2761E80185941C90241EA505131
S11330804EEA060EB1FBF3F603FB1611A2FB06751E
S1133090D7EBC020A94102D2761E80185941C9023B
S11330A041EA5051B1FBF3F703FB1711A2FB0735BB
S11330B0D3EBC020A94167F100070CBF004247F0E1
S11330C0010766F3D5274FEA1E31B80814F580646A
S11330D014DDBD0775F1004250EB0E5051EB045165
S11330E011F5801F5CBF41EA0C01BDE8F0814CF092
S11330F07F6141F0E0410020BDE8F081BD076D082B
S113310040EA0E5041F48011D4F10104B4F12006D8
S11331100ADAC4F120060200E04001FA06F3E140B5
S11331201843B24015430EE0342C14DCC6F12004DD
S113313045EA40056D0820FA06F2154321FA06F027
S1133140A1400D43002175F1004250F1000051EB04
S11331500C01BDE8F08100205FEA0C01BDE8F081BC
S1133160CFB992185B41B3FA83F704BFB2FA82F67F
S1133170BF190B3FB7F120062FBF02FA06F3BB407D
S1133180C7F1200622FA06F638BF3343BA401CB111
S1133190E419641E2FE77F4231F00041B1FA81F453
S11331A004BFB0FA80F6A4190B3CB4F120062FBF7B
S11331B000FA06F1A140C4F1200620FA06F638BF51
S11331C03143A0403C1B16E7AC421ABF05EA135733
S11331D0AF4214E050EA41061CBF52EA4306BFE77F
S11331E050EA4107304661461CBF41EA0551BDE83B
S11331F0F08152EA430C08BFC143BDE8F0810020CE
S11332004FF4001616EB410F98BF16EB430F08BF9F
S113321016EB410F24BFC14305E016EB430F0CBF6F
S113322061464CEA0551BDE8F0810000F446400DCA
S113323040EAC120490006D200F00EF8004248BF1F
S11332406FF00040604700F007F84FF000418842FB
S11332508CBF08464042604740F00040490DA1F54C
S11332608061491C05D4D1F11F0154BFC840C01767
S113327070474FF000007047E0B50A237F22032116
S113328000A801F0F4FCBDF806004FF6FF71884277
S113329028D09DF8040001F023FEBDF8060001F0DB
S11332A017FEBDF8000001F017FEBDF80800D7496D
S11332B008809DF8030002F01DFC9DF9020001F056
S11332C005FE03F0BCFA03F056FCD148007804284C
S11332D00CBF0120002003F0AAFF022001F007FE2A
S11332E000200EBD93200EBD10B584B00A22FF212C
S11332F000A8FDF7E8F80A2300AA7F21032001F0C3
S1133300C6FC002000F0EDF9002001F0E9FD4FF6C5
S1133310FE74204601F0DCFD4FF6FF7001F0DCFD89
S1133320BA480480002001F0E2FD1FBD2DE9F04100
S113333004468846164684B00B2100F080F8074600
S11333400B2100F07CF8B919805D497800EB012766
S1133350707800F072F90ADB00F070F80546072176
S113336000F06DF83178805D00F05FF904E000F062
S113337065F8317800F053F9052804DA4E210FF28C
S11333802430FDF743FE00F059F8805DC00704D5F2
S11333903146204604F041F84EE09E480088BFB212
S11333A0874249D1707800F008010129ACBF01219E
S11333B0002100F020000128ACBF022000200843B7
S11333C08DF800000A2100F03AF807460A2100F0BF
S11333D036F8B919805D497800EB0120ADF8020098
S11333E000F02CF8805D00098DF80400707800F07E
S11333F024F90EDB00F022F80746072100F01FF83D
S11334003178805D491CC91BC0F34110081A801F24
S113341004E000F013F8317800F001F9401F8DF852
S113342006000C2100F00BF8801902908DF805803D
S113343000A9204604F0E3F8BDE8FF8109213046E5
S113344004F0A6B92DE9F04F044685B000F0F4F875
S113345008DB00F0F6F80546072100F0F3F800F069
S1133460E2F803E000F0EDF800F0D8F8052804DAFB
S11334706B210FF23020FDF7C9FD062100F0E2F8C0
S11334800546062100F0DEF82919005D497800EBB5
S113349001250B2100F0D6F806460B2100F0D2F8E6
S11334A03119005D497800EB01260A2100F0CAF8C1
S11334B007460A2100F0C6F83919005D497800EB87
S11334C00127607800F008010129ACBF4FF0010B1F
S11334D04FF0000B00F020000128A8BF4BF0020BB6
S11334E000F0AFF8005D4FEA101800F0AAF8005D94
S11334F0C00706D55B46BAB2B1B2204603F024FF3A
S113350081E04449424809880078BFB28F421CBF19
S11335104FF6FF718F4242D13C490988ADB28D42CA
S113352018BF05280ED0012818BF022834D1022064
S113353004F082F9000605D50021284603F0B6FB05
S1133540FF2829D08DF800B0ADF802608DF8048012
S113355000F072F808DB00F074F80546072100F06B
S113356071F800F060F803E000F06BF800F056F832
S1133570401F8DF806000C2100F064F80019029039
S11335800121254800788DF805000F2004F06AF920
S113359000A804F02BF836E00121102031E00128C6
S11335A018BF02282BD10C2100F04CF8814600F002
S11335B043F80FDB00F045F88246072100F042F89B
S11335C02178005D491CA1EB0A01C0F34110081ADF
S11335D0801F03E000F035F800F020F8401FC0B26F
S11335E0019009EB0401002002910090CDF80CB089
S11335F043463A46B1B2A8B204F04EF918B10121DB
S1133600112004F02FF905B0BDE8F08FD87F002019
S1133610D67F0020EA550020207E00202178491C16
S1133620081A801E70472178005D491C491BC0F3AD
S11336304110081A801F7047607800F008000128C4
S113364070470921204604F0A3B82DE9F04385B062
S113365080460F9D0D9CE8070F461646994607D5F0
S1133660601D2946C0B203F035F9C0F1620000E0E4
S11336706B20A042B8BF742010DB009743464A4633
S1133680012103A804F077F80E980C990190029593
S1133690009403AB0522304603F0F9FC05B0BDE805
S11336A0F08300006E6574776F726B2E6300000008
S11336B010B50446DFF81007DFF810170078097812
S11336C0084301D0702010BD204600F05AFB38B9E1
S11336D022884FF6FF730021012000F02AFB00200E
S11336E010BD80B5DFF8EC2600211171DFF8D81683
S11336F00978022906D1DFF8E0160978012918BFF4
S1133700022901D0702002BD10B1FF2802D101208E
S1133710107007E0012111708000401C0102101D8F
S1133720FEF707FC002002BD10B5DFF8A446002018
S113373020768EB0207C012843D120888DF81C008F
S1133740012120880691000A8DF81D00002360885D
S11337500590029007A800F0B4FA022000900146F8
S1133760032208A803F0A8FF00F000F908A9042226
S1133770425484200290002308A801901A46132082
S113378000F0D0F9DFF85406006820B9DFF85006DD
S1133790006880680068DFF84C2601464969007EAD
S11337A0B2FBF1F148434FF4F04148434FF47A71CE
S11337B0B0FBF1F104F11800FEF7BBFB022020740A
S11337C007E0DFF804060078012804BF962000F023
S11337D0E6FA0EB010BD002083E770B590B0DFF8B4
S11337E0F86501F069FB20B13078042808BF012096
S11337F000D0002003F01BFDDFF8D445207D20B964
S1133800F8210FF2F850FDF701FC207D800702D566
S113381003F010FFA0E020884FF6FF75A84200F0E7
S11338209880E1890020A94208BF80202073307865
S1133830012818BF022803D1217B41F00201217322
S1133840042803D0207B40F008002073002003F0FC
S1133850F3FF000603D5207B40F0400020730120D5
S113386003F0EAFF000603D5207B40F0200020731C
S1133870608801F031FBE089DFF86C65A84220D153
S113388020888DF81C0000F06BF88DF81D000322D1
S1133890022006900221032003906088029007A86A
S11338A000F068F800F062F808A9401801210170DE
S11338B0217B00F8011F8420029008A801901620A3
S11338C03FE002208DF81C0002F093FF40B19DF808
S11338D01C0040F001008DF81C0007A802F069FFED
S11338E020889DF81C108DF81E0000F039F88DF822
S11338F01F00032205200690032003906088029095
S11339000DF11E0000F036F800F030F808A9401858
S11339107D210170012100F8011F217B00F8011FA6
S1133920E18900F8011FE189090A00F8011F02F08A
S113393060FF002814BF1E2019208421029108A9C9
S113394001910090002200231146284603F09FFBBA
S113395002E0AB2000F023FA0020207510B070BD07
S11339600595049600232088000A7047092108A8B9
S113397003F00EBF01900220009008A803F09CBE43
S11339802DE9F0410546092103F002FF4419687846
S113399000F0080001280EDB00F067F80646072156
S11339A000F064F82978405D491C891BC0F341107C
S11339B0081A861F05E000F058F82978491C081AEF
S11339C0861EF6B2062100F051F80746062100F0E3
S11339D04DF87919405D497800EB0127052100F085
S11339E045F88046052100F041F808EB0501405DEB
S11339F049780E2E00EB012535DB0E22211D0FF236
S1133A000C40FCF767FD70BBDFF8C403017D8A0737
S1133A100AD504F11203A6F11202B9B2A8B2BDE8A4
S1133A20F041D2B203F0F6BDC9071CD56178227803
S1133A3002EB0121DFF890231278012A02BF4288A9
S1133A40ADB295420FD109040DD5BFB257B1DFF81D
S1133A5088130978032911BF042901884FF6FF72DE
S1133A60914200D10780BDE8F0810921284603F086
S1133A708FBE70B5D74C0020207394B0DFF86C0370
S1133A8000888DF81E000025000A8DF81F00ADF88F
S1133A901C50029500952B4660781230C0B20690F7
S1133AA02A46D3480088059029460DF11E0004904B
S1133AB00220039007A8019008A803F0FDFDC64862
S1133AC000780128207808BF4FF4804508B145F4F8
S1133AD00045FFF74BFF08A94618002006F8010B24
S1133AE00E22280A06F8010B002006F8010B06F83E
S1133AF0010B30460FF21431FCF7A2FC627804F19A
S1133B00140106F10E00FCF79BFC842002900022B5
S1133B1008A80190002360781C30C0B200F002F8BD
S1133B2014B070BD009011464FF6FF7003F0AFBAA9
S1133B3010B501F0C1F9E0B1A7480078012818BF19
S1133B40022816D1A94800884FF6FF71884210D088
S1133B50A04C207B68B903F0C5FF192190FBF1F15B
S1133B60192202FB110104F10C00BDE81040FEF71C
S1133B70E0B910BD38B5964D1446297308220146A4
S1133B80281DFCF75DFC03F024F8FF280CBF04207B
S1133B9003202874287C032805D12146281DBDE86C
S1133BA0344003F04EBF31BD38B500F02EF818BFD5
S1133BB002280D460CD101F07FF9864909780842A4
S1133BC006D029462046BDE838404FF6FF72D1E7BB
S1133BD031BD70B500F019F818BF022815461E460D
S1133BE012D101F069F978B17A48007830B902F05D
S1133BF000FE049981F00101084205D132462946AC
S1133C002046BDE87040B5E770BD044672480078B0
S1133C1001287047F0B58FB000F07BF800284ED033
S1133C206B4D287C01274FF6FF76032834460CD1D0
S1133C3003F004FF0446B44208BF022705D02A7BE0
S1133C40291D02F0DBFF00B90027694800880590B0
S1133C50042106910290281D00F033F800910023FE
S1133C600322022107A803F027FD092107A803F076
S1133C708FFD07A940180221017000F8014F210AA5
S1133C8000F8011F00F8017F84200290002307A898
S1133C9001901A461C2000901146304603F0F7F9B3
S1133CA05FB9287B810748BF022003D400074CBFBB
S1133CB003200420214603F08EFC002028740FB05A
S1133CC0F0BD49490491019003210391704710B557
S1133CD048B93F4C4FF4FA7104F11800FEF729F982
S1133CE00120207410BDBDE81040962057E0EEE797
S1133CF0354A1278012A0BD100291CBF952000F007
S1133D004EB833490B884A8801463348007810E09E
S1133D10704780B5014608223648FCF7DBFB401E9D
S1133D208041C00F02BD28480078012818BF002038
S1133D30704770B515460C46264A002111711E467F
S1133D40234A117601F0CCF8204601F0C1F8284648
S1133D5001F0C2F82848068001F0D7F803F007FF05
S1133D6002F0F1FE02F018FD1B48007804280CBF95
S1133D700120002003F05BFABDE87040022001F04E
S1133D80B6B810B50446E07801F0B4FE08B18A2054
S1133D9010BD94F90200BDE8104001F097B810B5C9
S1133DA004460B480B4A002101741171017600206E
S1133DB0054908704FF6FF7001F08EF82046BDE803
S1133DC0104003F0FFBB0000E67F0020BD7E002012
S1133DD02C7D0020087D0020D67F0020307C002030
S1133DE0F0DF000040420F00D47E0020EA5500209E
S1133DF0EC550020307D0020D87F00206173736F64
S1133E0063696174696F6E2E6300000073696C618D
S1133E1062732D636F6E6E656374000080B504F089
S1133E208AF904F096F980B202BD80B504F083F9F2
S1133E30BDE8044004F08DB980B5FEF7DAFE1F48F2
S1133E4000214160001D03F0FBFF20B14A210FF265
S1133E507C00FDF7DBF8002002BD18490120087042
S1133E60704770B5044682B0226800250AB9002064
S1133E7076BD00F01BF801200AE070B50C4682B054
S1133E80226800250AB9002076BD00F00FF8022050
S1133E9004F0B4FA307828B970688525214604F016
S1133EA010F901E025603570284676BD034E044BB9
S1133EB0706835700095002104F02BB8E87B002071
S1133EC05B3E0000014600220020D6E7737973743C
S1133ED0656D2D74696D65722E63000010B5194C03
S1133EE041F671306063206840084000206000F0B3
S1133EF061FC4FF46020FEF7C0FA134A1349904264
S1133F00A26C04D311400B2200F009F805E0114023
S1133F10372200F004F840F48030A06410BD504310
S1133F200A22B0FBF2F00A4AB0FBF2F0401C08434C
S1133F307047044801684908490001600021416351
S1133F407047000008000C40C1CF6A00C0FFFEFFAC
S1133F5040420F00890001EB401000F184400260F0
S1133F6070470100264B02D19968C907FCD4024668
S1133F7000211846EEE722480168C90707D5816881
S1133F80890704D48168C907FCD4012141607047C2
S1133F9010B5017843780A460BB142F002028378E7
S1133FA00BB142F00402C3780BB142F0080203796A
S1133FB00BB142F0200243790BB142F04002047A83
S1133FC0C379240244EA03331A430D4B9C68E40783
S1133FD0FCD41A60807950B100291CBFBDE81040A0
S1133FE000F006B8BDE8104001220421C1E710BD6D
S1133FF003488168C907FCD401220421AAE7000010
S11340000080084062B38B0708D0521E11F8013BB0
S113401000F8013B00F024808B07F6D1830740F0C1
S1134020208000BF103A07D330B4B1E83810103AFA
S1134030A0E83810F9D230BC530724BFB1E8081007
S1134040A0E8081044BF51F8043B40F8043BD207F1
S113405024BF31F8022B20F8022B44BF0B780370E5
S11340607047083A07D3B1E80810083A40F8043B0F
S113407040F804CBF7D25307E4E70000012100F035
S11340801F029140DFF84424400942F82010704791
S113409072B6DFF83C04016811F1010F1CBF491C22
S11340A0016000687047DFF82814086818B1401EE2
S11340B0086000D162B6704780B5DFF81804016863
S11340C029B10168DFF81024116000210160122079
S11340D0FFF7D4FFDFF804144FF480200860DFF802
S11340E00004016841F00401016001BD80B5DFF8FE
S11340F0F40304210160416821F0040141601220AD
S1134100FFF7BCFFDFF8E0134FF480200860DFF80E
S1134110C803006810B1DFF8BC13086001BDDFF804
S1134120CC2352F82000426892884089401A824287
S1134130B4BF0120002070473EB50446012C1CBFCB
S1134140022C032C15D1DFF8A453FFF7A1FF55F877
S11341502400C06801AB6A4602A904F092FC55F839
S1134160240002890099006889B200F003F8FFF77F
S11341709AFF37BD70B504460D461646FFF788FF13
S1134180E088A8420CD22188091A691891FBF6F23A
S113419006FB12112180A1886918081AA080E58005
S11341A0BDE870407FE72DE9F843044615461E46F6
S11341B00027DFF83C83DFF8349359F82700C168FF
S11341C0A14210D102890068B1B2FFF7D3FF59F8B8
S11341D0270002680021D18043460189C0684A084B
S11341E0294604F0A7FC7F1C042FE6DBBDE8F1831D
S11341F02DE9F84380461D460026DFF8F09259F871
S11342002600C068404514D1FFF742FFF7B259F8C1
S1134210270041684A884389ACB2A21892FBF3FC98
S113422003FB1C224A8040688188091B8180FFF7B8
S11342303AFF761C042EE2DBBDE8F18370B5032857
S113424021D1DFF8A82202EB800401282268236A26
S1134250136018BF0328236953600FF2A42333F8B3
S1134260103013810FF2902333F81030538124D18E
S1134270E06CD060206B8861206CC861E06C04F055
S113428017FB10B170BD012070BD2068DFF86052CB
S1134290018900684A0800F10801E06C2B4604F02B
S11342A049FC216808680E8900EB560000F10801FA
S11342B0E06C2B46720804F03DFC002070BD10B584
S11342C00446FFF739FFDFF8240250F824000068A1
S11342D0808810BD70B50646032E0C460AD1FFF740
S11342E02BFFDFF8085255F826000068808818B9BB
S11342F0262070BD012070BDFFF7CAFE55F82600C8
S1134300006841880844007A207055F82600016846
S11343104A880389521C92FBF3F403FB14224A805B
S113432000688188491E8180FFF7BDFE002070BDB2
S113433038B504006D4D06D128684068808800B106
S11343400120C0B232BD012C1CBF022C032C15D19C
S113435055F824004168898871B9C06804F0A8FB45
S113436050B955F82400C06800680069400900F09D
S1134370010080F0010032BD012032BD002032BDB9
S113438002B5032802D10122694601E0012002BDE1
S113439000F01EF802BD10B503280BD113460A46DF
S11343A003210FF22D0000F0C4F8002400B9012409
S11343B0204610BD012010BD0CB480B5032803D1E4
S11343C002AAFFF7E8FF00E0012002BC5DF80CFB45
S11343D02DE9FC470328894618BF012047D1434CE7
S11343E0DFF810A1032654F8260000F045F8002554
S11343F0002729E000210320FFF791FE0028F9D0CF
S1134400FFF746FE54F826004068028819F8011B9D
S113441010447F1C017254F8260000F033F854F85D
S113442026004068008878B9FFB23D4654F826005B
S1134430C06853462A4600F01CF80028F6D154F808
S11344402600406800F108089DF80010F8B2884280
S1134450D0D38D420ADA9DF80000421B54F826009E
S1134460C068534600F005F80028F4D10020BDE8E8
S1134470F687414604F08ABB40680188084400F18D
S11344800808704741680A884389521C92FBF3FC70
S113449003FB1C220A8040688188491C818002E653
S11344A0032805D1114B53F82000C06804F012BB57
S11344B00120704710B50446032C01D0012010BD23
S11344C02046FFF735FF0028FAD110BD80E200E056
S11344D0285F00200C300C40905E002000E100E0DA
S11344E04CC8004048C8004080E100E0D854002097
S11344F0A7410000F141000080008000800080009E
S1134500400040004000400070B51346104402E0F3
S1134510A4192C705B1EDCB24CB101F00F06090922
S1134520451E0A2E2846B4BF30243724F0E7104431
S113453070BD2DE9F04F804693B001A88946164618
S11345409B4601AD00248DF800001BE05BF804AB32
S113455004224FEA1A412846FFF7D6FF04221FFA25
S11345608AF1FFF7D1FF054611A8854209D39DF8CA
S113457000002F1A00F096F8002831D13C19E4B25B
S113458001AD761C9DF800002F1A3078010007D089
S1134590252802D005F8010BE6E716F8010F0028DC
S11345A076D02528F6D0322818BF34285FD0582872
S11345B057D063280CD0642818BF6C2825D07028E5
S11345C018BF732807D075281FD0782849D0CBE7A7
S11345D05BF8040BDEE75BF804AB00F063F800283B
S11345E05CD13C19E4B201AD002700E07F1CFFB2AE
S11345F01AF807000028F9D13A4651464846C04700
S113460000284BD13C19E4B2AEE75BF8040B00215F
S1134610002803D52D212970404201214FF0000CC0
S113462000220FF2880757F82270002301E0C01B14
S11346305B1CB842FBD2DFB2002F08BFBCF1000FF5
S113464005D0C9B230336B54491C4FF0010C521CD5
S1134650092AE6DBC9B230306854481CC0B22D18B0
S113466082E75BF8041B0222C9B2284679E716F8F0
S1134670010F78281CBF5828761EF1D116F8010CBA
S113468032287FF463AF5BF8040B81B20422ECE7B9
S113469000F008F810B93819C0B200E0002013B0D7
S11346A0BDE8F08FFAB201A94846404700CA9A3BD8
S11346B000E1F5058096980040420F00A0860100B5
S11346C010270000E8030000640000000A00000056
S11346D00D48016821F480310160016F49084900E7
S11346E00167704710B5FDF7C7FA0446FFF7F0FFFE
S11346F0064800F00DF8044805210167016841F4FB
S113470080310160204627E024ED00E03855002088
S113471038B504460525204604F09CFA10346D1E75
S1134720F9D1BDE8314004F0BDBA80B5FFF7D0FF40
S1134730BDE8014004F0B6BA10B50446FDF79CFA92
S11347406209014902E000BF78550020520142F09D
S113475014024A6000220A70BDE8104000F000B85C
S113476080F311887047000000B500BF130096461F
S11347709446103928BFA0E80C50FAD85FEA417C6F
S113478028BF0CC048BF40F8042BC90728BF20F835
S1134790022B48BF00F8012B00BD0000EFF311808D
S11347A060288041C043C00F70470000002181F39E
S11347B01188704780B500F011F83149314B0A680F
S11347C04968C2F38232521CB0FBF2F001F00F01CF
S11347D0C8401860186802BD2B4870472B482C4904
S11347E0026A02F47052B2F5006F08D0B2F5805F2D
S11347F004D0B2F5005F04D14868704736E0086819
S113480070470068234910F4E0601ED0B0F5807F43
S113481014D0B0F5007F0FD0B0F5407F0AD0B0F5CA
S1134820806F05D0B0F5A06F0CBF1B480020704707
S11348301A4870471A4870471A4870470868000EAB
S11348401328ACBF1848194870470868000E13288D
S1134850ACBF1748174870470D48006870471648A2
S1134860016841F470010160704700BF4FF40040DB
S113487070474FF47A7070470548406870470000ED
S113488000800C40A45C0020006CDC020C800C4016
S1134890D0530020FC81E00F003FAB01406F40018A
S11348A0809FD500C0D8A70040B56400C0CF6A007F
S11348B0804F120040420F0088ED00E010B55B48C5
S11348C0416E45F60E0242660023594A1268D40727
S11348D048BF0123D40648BF43F01003540648BF21
S11348E043F04003540748BF43F00403D40548BFD2
S11348F043F48073036002F47053B3F5006F10D077
S1134900B3F5805F03D0B3F5005F05D00EE0C36854
S11349101B06FCD5032308E0C3689B05FCD50423D0
S113492003E0C3681B07FCD502234360D2075CBFC6
S113493002220260C90744BF0021416610BD3D4800
S113494001688268C068090201F47C5102F0F00237
S11349501143C0F303100843B0F5807F0CBF01205E
S113496000207047F8B506463348314F0068386078
S113497000F051F80028314909D00A68304B03EAA5
S11349800204304A14604B6823F04605556030BF7A
S11349901CBF0C604D60002E1CBFBDE8F140FFF74A
S11349A08DBF386840055CBFBDE8F140FFF702BF2A
S11349B0F1BDF8B504461D481D4DC168296045F692
S11349C00E02416E4266C9074FF42072026044BF72
S11349D00021416600F01FF80028184909D00A6830
S11349E0174B03EA0206174A16604B6823F0460782
S11349F0576030BF1CBF0E604F60002C1CBFBDE869
S1134A00F140FFF75BBF286840055CBFBDE8F1409B
S1134A10FFF7D0BEF1BD0C48016841F0040101600C
S1134A208DE70548024900680860704720800C4003
S1134A30245F0020E0FF0FE02C800C4000E100E048
S1134A409CF1FD0080E100E010ED00E02DE9F04371
S1134A500A78130004BF02234360002343624B78A7
S1134A6003B140234C7A04B180248D7A05B120250A
S1134A70CE7A06B1102691F8049091F805C091F809
S1134A800CE0CF7891F80280B9F1000F18BF4FF411
S1134A900059BCF1000F18BF4FF0805CBEF1000F4D
S1134AA018BF4FF0080E3F0447EA08688F7948EAB8
S1134AB08728CF79097A48EA0727394319432143DC
S1134AC02943314349EA01014CEA01014EEA01015B
S1134AD001600AB101214160BDE8F083F0B5D379EA
S1134AE00BB14FF40013147A0CB14FF48014557ABF
S1134AF005B11025967A06B1042692F801C01778FC
S1134B004FEA0C6C4CEA876792F802C047EA0C47FC
S1134B1092F803C047EA0C3792F804C047EA8C279E
S1134B2092F805C0927947EA0C273A431A43224384
S1134B302A4300EB011032430263F0BD1B4213D140
S1134B40094236D12AB18446B0FBF2F002FB10C20E
S1134B50704704F0AFB8FCD30022002370470B0069
S1134B600200002100207047904271EB030CF6D341
S1134B7070B5B1FA81F4B3FA83F52C1BA340C4F1E8
S1134B80200532FA05F63343A2405FF00046E640C2
S1134B9002E05B085FEA3202841A71EB030524BF6A
S1134BA0204629467641F4D302000B003000002150
S1134BB070BD012ACFD970B5140C20D0B1FA81F49C
S1134BC0B2FA82F5C4F120046419B4F12006D6D3F4
S1134BD0B2405FF00044F440002502E052085FEA6E
S1134BE03303C61A71EB020E24BF3046714664418A
S1134BF06D41F3D302000B002000290070BD0C4668
S1134C00B1FBF2F102FB11452D0445EA1045B5FB59
S1134C10F2F402FB145580B240EA0545B5FBF2F00C
S1134C2002FB105240EA044070BD000010B52E4C47
S1134C300120207082B00020FBF7BAFB38B10020BD
S1134C40FBF7B6FB18B100202070492016BD0223E3
S1134C507F220021684600F00AF8BDF80000B0F594
S1134C607F7F1DBF002020700720002016BD10B5D7
S1134C70FF2907DC1C4C247844B1BDE81040C9B2BC
S1134C80FBF7AEBEBDE8104004F016B810BD2DE928
S1134C90F0410546FF2D0E461746984614DC124C8B
S1134CA02078B8B1607820B184210FF24000FCF77D
S1134CB0ADF901206070434632463946E8B2FBF74D
S1134CC0F7FF0020607005E042463946BDE8F04138
S1134CD004F04FB8BDE8F08103490978002918BFF2
S1134CE0FCF7E2B870470000DF7F0020746F6B654B
S1134CF06E2E630080B5FFF759FDFFF797FFD0B91B
S1134D000FF26820FDF789F98F49087004F09AF8CA
S1134D1004F05CFC04F034FD02F0F6FE012001F026
S1134D20B4F98A4890F9000001F08EF802F0E6F830
S1134D3002F094FD002002BD38B504F043FF0020CA
S1134D4000F0AAFE04F0D1FF7F4C2078FDF751F962
S1134D50FCF792FF054605F095F910B92078FDF7A8
S1134D607FF92846FFF7FCFCBDE83140FCF7D8B8D2
S1134D7010B57748007848B904F0EAFC30B104F083
S1134D80F1FD00F0010080F0010400E0012401F0D5
S1134D9043F818B101F040F8022801D144F00404AA
S1134DA005F070F908B144F00204FEF7BCFF08B145
S1134DB044F008046748007808B144F01004A0B235
S1134DC010BD80B505F05EF908B1002002BDBDE854
S1134DD004404FF0FF310FF29410FDF7F0B880B5A6
S1134DE002F032FA02F023FA01F012F8BDE80240B0
S1134DF001F04BB980B55648007820B1A4210FF2D8
S1134E006410FCF703F9012001F033F8BDE8014018
S1134E1005F045B92DE9F04F85B080468A4616461F
S1134E201F4600F049F8002818BF002F02D0BAF13D
S1134E30100F01DB702034E09DF83C00DFF818B15E
S1134E40464D00F007008DF83C004FF6FF799BF8C3
S1134E5000000E9C012818BF02280CD1022002F089
S1134E60EBFC000607D500F01FF8298842464846A7
S1134E7002F012FD15E0BBF802B09DF83C00CB45F2
S1134E8008BFC346C00705D50FA801F092FC08B9B6
S1134E90382006E000F008F828885A464146FEF714
S1134EA0D4FB05B0BDE8F08F9DF83C00039002945C
S1134EB001970096534670472948007800F00F0088
S1134EC0022801D1012070470020704700F04EBE37
S1134ED02249088000F0E3BF2049488000F0E0BF89
S1134EE01D490870012818BF002000F002BE80B5DB
S1134EF01B490870022803D102F06AFD902000E0EB
S1134F009120BDE8024002F05DBBE0B51348018882
S1134F104088ADF80000ADF806100F4841880078CD
S1134F20ADF808108DF8040000F0D2FD8DF80300F0
S1134F3000F0D3FD8DF802000A2300AA7F2103208C
S1134F40FFF7A5FE07BD0000E77F0020F155002014
S1134F501C7E0020BD7E0020D67F0020EA55002064
S1134F60E67F0020737461636B2E6300247E00204F
S1134F70059C0000F47B0020136F0000C07E00201D
S1134F8069AB00000C7D0020D7370000447D002071
S1134F9029370000147D0020733A0000147E00209D
S1134FA0A5970000B47E0020D17900000000000025
S1134FB00000000010B50FF224031C6882B000AAA0
S1134FC014608DF802008DF80310020A8DF8012098
S1134FD000A9042005F0D5F913BD0000F10000007C
S1134FE01CB50FF224031C6800AA01AB14608DF8F1
S1134FF001008DF80310012200A9042005F028FA0D
S11350009DF8040016BD000012000100F0B585B043
S113501004460D4616461F4600A80FF22C01102226
S1135020FFF700F88DF801408DF802608DF8035009
S11350303246394601A8FBF703FA301D00A9C0B275
S113504005F09FF905B0F0BD11000000000000005C
S113505000000000000000007CB50FF2200460CCCA
S113506000AB60C38DF801008DF803108DF80420A7
S113507000A9052005F085F973BD000011000100A9
S11350800000000080B50FF23002136800A9092265
S11350900B600346C178C9438DF801104179C943B7
S11350A08DF80210C179C9438DF80310042000A9BA
S11350B005F0CEF901BD00002000000038B504461B
S11350C001208DF800000922DFF8945A00212846B7
S11350D0FBF7F9F92B46092200F01DF864B10B2205
S11350E0002105F10C00FBF7EEF910208DF800000B
S11350F005F10C030B220BE0DFF8684A0A220021B9
S11351002046FBF7E0F9FE208DF8000023460A2232
S113511000F001F831BD00A9012005F099B9DFF8CC
S1135120400A017B427B807B120442EA016141EA2E
S113513000207047DFF8280AB0F8010002E0DFF829
S1135140200A808840BA80B270472DE9F047DFF822
S1135150188ADFF80C9A1F46164698F8093099F811
S11351601E2004460D469C4298F80D0099F81F1025
S113517008BF954286B003D18E4208BF874235D01E
S11351800FF2700CBCE8004400AB4FF0000CA3E835
S1135190004400AB5D71DF7102AB8DF804408DF803
S11351A00660E646E246A3E80054784038406A4088
S11351B071408DF80F002A4031408DF80B208DF896
S11351C00D1002A8FFF75EFF00F099F888F8094077
S11351D088F8084089F81E5088F80A5089F81F603A
S11351E088F80B6088F80D7088F80C7006B0BDE87C
S11351F0F08700001101040000000000F0B583B046
S11352000FF24402044628CA00A828C000A8DFF808
S1135210585921542E7B16F0080706D0EA7AA97A49
S1135220287A06F0F703FFF790FF601C00A9C0B2CC
S113523005F0A7F804462FB1EA7AA97A287A33460A
S1135240FFF783FF2046FEBD1300000000000000AE
S113525070B514460FF24002128882B000AEADF869
S113526000201D4641EA40027270DFF8F42811B1B3
S11352700021D184D16208B10020908400AB0222C5
S113528000A9022005F0E4F814B19DF80000207094
S11352900DB17078287073BD150010B50446E07820
S11352A058B110F0220118BF012110F0DD0018BF21
S11352B0012000230022FFF7CBFF2046BDE8104069
S11352C0E0E638B5044607E0A078051D2146E8B2BB
S11352D005F057F8EDB22C1920780028F4D131BD2F
S11352E01CB5044607E00822214600A8FBF7A8F8ED
S11352F000F005F8083420780028F4D113BD00A983
S1135300082005F03EB880B50FF210000088ADF813
S1135310000000A9022005F034F801BD340330B5C3
S1135320DFF83C184A6B3AB1117F884224BF517FA1
S1135330814201D3104630BDDFF8101A0B681C7986
S113534084B19968641EE4B251F82410914218BFE4
S11353500029F5D00D7FA84224BF4D7F8542EFD3AD
S1135360084630BD002030BD2DE9F041044600F070
S1135370DDFA00F0EDF806464FF6FF708442DFF8E0
S1135380D0890ED1B00800F00F05FFF7C8FE4045E4
S11353900CD2062D08BF082508D0082D06D10625F5
S11353A004E00FF2F00004F003010D5CFFF7C2FE0D
S11353B044F25541401A0FD00B380DD0401E10D086
S11353C0801E012812D9801E12D0801E04D0401ED7
S11353D00CD0401E0CD011E04FF6FC7004400625A2
S11353E025E0012060F30104082520E0062D01D00A
S11353F0082D03D1022060F301040125A800C7B2DF
S1135400FFF78DFE404506D2062D08BF202702D0A7
S1135410082D08BF182706F03C00B84207D006F054
S1135420C30047EA000200212220FFF715FE0221F3
S113543000F08FF881096A1E012A03D9521F08BFA0
S1135440032100E0002100F03F0242EA8112904271
S113545003D002212220FFF7FFFDDFF8F0180968CE
S1135460002000E0401C4A79C0B290420FD2CA68C2
S11354700C2303FB00221379AB42F3D1DFF8E006DF
S11354808263DFF8E40690F9020000F06FFB204627
S1135490BDE8F0810608010270B50D46FFF73FFF35
S11354A0060001D18A2070BDDFF8B446606B8642E5
S11354B027D00DB1FFF727FFF068FFF702FF6663FF
S11354C00FF24400FFF7FDFEDFF87819DFF8985675
S11354D0002008700120E871A87950B9002200F07A
S11354E094FDA879002814BFFE2200220A2100F0AE
S11354F08DFD012100F02DF8E870608CFFF734FF7A
S11355006084002070BD00001120014C02110201D2
S1135510030A111205080A01FE30301112060D00AB
S11355200104C0007F11120621000104C0007F1194
S113553012031415000011120328050000111201B2
S113554000D71112010683111201070000000000A8
S11355500021222044E538B5DFF8E858297880F0A6
S11355600104A14212D0DFF80036997ADA7A1B7B63
S113557020B10720FFF7E9FD832203E00420FFF7B1
S1135580E4FDC322062100F041FD2C7031BD1CB5A1
S113559000F034F80020FFF7DEFF0FF218010CC909
S11355A000A800A90CC0A07B8DF80100082004F01D
S11355B0E8FE1BE032000000000000001CB500F013
S11355C01DF80120FFF7C7FF0FF228010CC900A83E
S11355D00CC0A07BDFF888458DF80100607E08B11F
S11355E000206076FFF78BFE0120207604F0A6FEF3
S11355F013BD00003200000000000808DFF8684511
S1135600A07B002148E7DFF858158A7E92B100227A
S11356108A768006DFF850354FF0FF325A614CBF6E
S1135620882089200A7F002A04BF002104F0F1BCED
S113563001204877704770B50400DFF8245504D181
S1135640A87E90F0010601D102E00126FFF75BFE7F
S11356500023002231460120FFF7FAFD16B120464F
S1135660FFF7D1FF287E06421CBFBDE87040FFF75C
S1135670A5BF70BD38B5DFF8E854A98C04468C4248
S113568006DADFF8680A0A1B92B22118FAF7D8FE84
S1135690A88C001BA88431BD2DE9FC47804600215D
S11356A0002300AA0846FFF7D3FDDFF8B454A88C02
S11356B09DF80020DFF8349A01465218912A24BF3D
S11356C0C0F190008DF800009DF80000494404F0FA
S11356D01EFEA88C9DF800100818A88480B200282B
S11356E04ED0DFF8844499F800A0A179002914BFB2
S11356F002260026B24543DBBAF1800F40DA0123CB
S11357000AEB0307BA1B90423ADB0AF0010181F06D
S1135710010E8242CDF804E00ADA09F10103534490
S1135720821A0EEB030092B2991B0830FAF788FE36
S11357300199A88C891908310818A88408220198AD
S1135740384400F108050AF0010080F0010609F16F
S1135750010006EB0A010F1800213846FAF7B3FEE0
S1135760DFF8B009DFF8B01940784008B87009686C
S11357708979401A41B200294CBF4000FF2004E05F
S11357800020FFF758FF01201AE0F870A0790028E4
S11357901EBF98F802000C2108420DD1208A3870EF
S11357A000220020787001205044301800F10801D4
S11357B0C9B2484604F039FC28B2FFF75BFF002069
S11357C0BDE8F68770B50446DFF89453A0788007E7
S11357D01AD5E078800717D5A87EA8B1B5F92600B8
S11357E0012811DBE96A312808DB302004F093FD3D
S11357F0E88C3038E884E86A303004E0C0B204F061
S11358008AFD0020E884E862A078800610D5002094
S1135810A8764FF0FF312A7FDFF84C03002A41615C
S113582002D00120687703E0296B002004F0F1FB2B
S1135830A078C00715D5E078C00712D5A88C01461A
S1135840302601F13002912A28BFC0F19006DFF81A
S11358509C080918F0B204F05AFDA88CF6B230186E
S1135860A8841C21A078084205D02046FFF714FF25
S113587008B1012070BD002070BD10B586B000A82D
S1135880002100220B460EC0DFF8DC42A07A8DF81E
S11358900300E07A8DF80500207B8DF8070000A84E
S11358A0FFF7F0FB9DF80200A17A08408DF8020092
S11358B0E17A9DF8040008408DF80400217B9DF8EE
S11358C0060008408DF8060014D000070AD50FF230
S11358D054010CC903A803A90CC003AB0522022080
S11358E004F0B6FD9DF80600800603D52020FFF7DE
S11358F0A2FE14E09DF8040058B1C00709D5DFF8F2
S11359001448572004F0E4FC6070207808B100F0DB
S1135910C8FA9DF8020010B100A8FFF753FF06B0C3
S113592010BD000023FF0000000000002DE9FC4131
S11359308B4CE07E002840F0A580DFF8E40704F0FB
S11359407DFC894D287800F03F00012823D10020F8
S1135950FFF7B4FB287801061DD5E179052902D0AB
S113596006290AD014E0FFF7EAFB48F20251884204
S1135970B8BF0FF2E87007DB09E0FFF7E0FBB0F512
S1135980064F04DC0FF6D810FFF7AAFC03E02878D2
S113599000F07F00287000A80FF2EC02297848CAB2
S11359A048C000A84170DFF8A4130E6800F070F836
S11359B00916C17000F06CF80914017100F068F860
S11359C009128DF8051000F063F88171072000A911
S11359D004F0D7FC0120FFF771FBDFF8487705E0FE
S11359E017F8018B394604F0CCFC4744387800287A
S11359F0F6D16063FF20A8737F20E87004206872EA
S1135A000020E083042068730020208584F82000AF
S1135A10607CA8B3DFF810572868002830D55148B7
S1135A20407A28B901271E210120FFF7E7FB0AE08D
S1135A30E0790628A8BF032705DA06214FF25600AD
S1135A40FFF7B8FA0127B0680068006929684000C8
S1135A50401C90FBF1F0404240B2032804D00428DB
S1135A6004D147F0800701E047F040073A460A2195
S1135A700020FFF7F1FA04F061FC002004F015FDAA
S1135A800120E076BDE8F381020000000000000080
S1135A90B16809680969704738B50400DFF87C56B5
S1135AA008BF04F008FC686901280ADBFEF7B6F9B0
S1135AB06969401A80B2B0F57A7FC4BF0120FFF74C
S1135AC0A2FD002C04BFBDE8314004F0F6BB31BD9B
S1135AD0DFF84806008AC0B27047DFF8400690F944
S1135AE00100704701B108700AB100211170FFF77D
S1135AF016BC704710B50446FF2C82B004D19348FD
S1135B00006880680068047FFF2C06D00DF1010254
S1135B1000A92046FFF7E6FF08B98A2016BD1248FF
S1135B209DF80020817B048291420D4C04BF617E6C
S1135B30002912D0827390F9020000F017F8207E39
S1135B4058B1FFF7F3FEFFF7DEFB002200231146F6
S1135B500120FFF77DFBFFF731FD002016BD00009B
S1135B60FC7B0020D87C0020BC550020F8B50446FE
S1135B707F2C08BF152404F12B00412801D38B206E
S1135B80F2BDDFF89855AE7BAC703046FFF7C7FB2B
S1135B9098B1036A002201E0521CD2B2817F8A428A
S1135BA00BDA0C2101FB02F7F918F5D0FF5CBE42B9
S1135BB024BF4F78B742EFD300E00021DFF870052F
S1135BC090F8222002F0C002802A18BF002908D0D1
S1135BD091F90220944203DB91F90320A24200DCF4
S1135BE01446806B4179491EC9B221B1826812F909
S1135BF011209442F7DB806810F9114000EB41005A
S1135C004678E878864207D0FFF790FE32460121B5
S1135C102220FFF721FAEE706C700020F2BD2DE90E
S1135C20F043DFF8104594F9005083B098B3002D89
S1135C3033D4DFF8FC8498F920006DB2854246D055
S1135C40DFF8D87497F80C90387AB97AFA7A012D7B
S1135C5025DB0FF61C3CBCE8404000ABA3E8404009
S1135C607B8A8DF803301B0A8DF8043019F008067E
S1135C701CBF09F0F703FFF768FA1D212846FFF758
S1135C80BDFA00AB05220021F020FFF7BFF9788AA6
S1135C90A8F828000FE0012DCBDB6D42C9E719F00D
S1135CA008061CBF09F0F703FFF74FFA0022002192
S1135CB0F020FFF7D1F92EB1FA7AB97A387A4B4647
S1135CC0FFF743FA88F8205098F820002070BDE8C8
S1135CD0F78310B5DFF84444A179884211D0A0714C
S1135CE0002814BF0522002200F08FF9A0790028B3
